:020000040000fa
:080000000002040000000000f2
:020000040000fa
:0400080046030000ab
:020000040000fa
:04000c0046030000a7
:020000040000fa
:0400100046030000a3
:020000040000fa
:04001400460300009f
:020000040000fa
:04001800460300009b
:020000040000fa
:04001c004603000097
:020000040000fa
:040020004603000093
:020000040000fa
:04002400460300008f
:020000040000fa
:04002800460300008b
:020000040000fa
:04002c004603000087
:020000040000fa
:040030004603000083
:020000040000fa
:04003400460300007f
:020000040000fa
:04003800460300007b
:020000040000fa
:04003c004603000077
:020000040000fa
:040040004603000073
:020000040000fa
:04004400460300006f
:020000040000fa
:04004800460300006b
:020000040000fa
:04004c004603000067
:020000040000fa
:040050004603000063
:020000040000fa
:04005400d4020000d2
:020000040000fa
:040058000c03000095
:020000040000fa
:04005c004603000057
:020000040000fa
:040060004603000053
:020000040000fa
:04006400460300004f
:020000040000fa
:04006800460300004b
:020000040000fa
:04006c004603000047
:020000040000fa
:040070004603000043
:020000040000fa
:04007400460300003f
:020000040000fa
:04007800460300003b
:020000040000fa
:04007c004603000037
:020000040000fa
:040080004603000033
:020000040000fa
:04008400460300002f
:020000040000fa
:04008800460300002b
:020000040000fa
:04008c004603000027
:020000040000fa
:040090004603000023
:020000040000fa
:04009400460300001f
:020000040000fa
:04009800460300001b
:020000040000fa
:04009c004603000017
:020000040000fa
:0400a0004603000013
:020000040000fa
:0400a400460300000f
:020000040000fa
:0400a800460300000b
:020000040000fa
:0400ac004603000007
:020000040000fa
:0400b0004603000003
:020000040000fa
:0400b40046030000ff
:020000040000fa
:0400b80046030000fb
:020000040000fa
:0400bc0046030000f7
:020000040000fa
:0400c00046030000f3
:020000040000fa
:0400c40046030000ef
:020000040000fa
:0400c80046030000eb
:020000040000fa
:0400cc0046030000e7
:020000040000fa
:0400d00046030000e3
:020000040000fa
:0400d40046030000df
:020000040000fa
:0400d80046030000db
:020000040000fa
:0400dc0046030000d7
:020000040000fa
:0400e00046030000d3
:020000040000fa
:0400e40046030000cf
:020000040000fa
:0400e80046030000cb
:020000040000fa
:0400ec0046030000c7
:020000040000fa
:0400f00046030000c3
:020000040000fa
:0400f40046030000bf
:020000040000fa
:0400f80046030000bb
:020000040000fa
:0400fc0046030000b7
:020000040000fa
:0401000046030000b2
:020000040000fa
:0401040046030000ae
:020000040000fa
:0401080046030000aa
:020000040000fa
:04010c0046030000a6
:020000040000fa
:0401100046030000a2
:020000040000fa
:04011400460300009e
:020000040000fa
:04011800460300009a
:020000040000fa
:04011c004603000096
:020000040000fa
:040120004603000092
:020000040000fa
:04012400460300008e
:020000040000fa
:04012800460300008a
:020000040000fa
:04012c00320300009a
:020000040000fa
:040130004603000082
:020000040000fa
:04013400460300007e
:020000040000fa
:0402080046030000a9
:020000040000fa
:04020c0046030000a5
:020000040000fa
:0402100046030000a1
:020000040000fa
:04021400460300009d
:020000040000fa
:040218004603000099
:020000040000fa
:04021c004603000095
:020000040000fa
:040220004603000091
:020000040000fa
:04022400460300008d
:020000040000fa
:040228004603000089
:020000040000fa
:04022c004603000085
:020000040000fa
:040230004603000081
:020000040000fa
:04023400460300007d
:020000040000fa
:040238004603000079
:020000040000fa
:04023c004603000075
:020000040000fa
:040240004603000071
:020000040000fa
:04024400460300006d
:020000040000fa
:040248004603000069
:020000040000fa
:04024c004603000065
:020000040000fa
:040250004603000061
:020000040000fa
:04025400d4020000d0
:020000040000fa
:040258000c03000093
:020000040000fa
:04025c004603000055
:020000040000fa
:040260004603000051
:020000040000fa
:04026400460300004d
:020000040000fa
:040268004603000049
:020000040000fa
:04026c004603000045
:020000040000fa
:040270004603000041
:020000040000fa
:04027400460300003d
:020000040000fa
:040278004603000039
:020000040000fa
:04027c004603000035
:020000040000fa
:040280004603000031
:020000040000fa
:04028400460300002d
:020000040000fa
:040288004603000029
:020000040000fa
:04028c004603000025
:020000040000fa
:040290004603000021
:020000040000fa
:04029400460300001d
:020000040000fa
:040298004603000019
:020000040000fa
:04029c004603000015
:020000040000fa
:0402a0004603000011
:020000040000fa
:0402a400460300000d
:020000040000fa
:0402a8004603000009
:020000040000fa
:0402ac004603000005
:020000040000fa
:0402b0004603000001
:020000040000fa
:0402b40046030000fd
:020000040000fa
:0402b80046030000f9
:020000040000fa
:0402bc0046030000f5
:020000040000fa
:0402c00046030000f1
:020000040000fa
:0402c40046030000ed
:020000040000fa
:0402c80046030000e9
:020000040000fa
:0402cc0046030000e5
:020000040000fa
:0402d00046030000e1
:020000040000fa
:0402d40046030000dd
:020000040000fa
:0402d80046030000d9
:020000040000fa
:0402dc0046030000d5
:020000040000fa
:0402e00046030000d1
:020000040000fa
:0402e40046030000cd
:020000040000fa
:0402e80046030000c9
:020000040000fa
:0402ec0046030000c5
:020000040000fa
:0402f00046030000c1
:020000040000fa
:0402f40046030000bd
:020000040000fa
:0402f80046030000b9
:020000040000fa
:0402fc0046030000b5
:020000040000fa
:0403000046030000b0
:020000040000fa
:0403040046030000ac
:020000040000fa
:0403080046030000a8
:020000040000fa
:04030c0046030000a4
:020000040000fa
:0403100046030000a0
:020000040000fa
:04031400460300009c
:020000040000fa
:040318004603000098
:020000040000fa
:04031c004603000094
:020000040000fa
:040320004603000090
:020000040000fa
:04032400460300008c
:020000040000fa
:040328004603000088
:020000040000fa
:04032c003203000098
:020000040000fa
:040330004603000080
:020000040000fa
:04033400460300007c
:020000040000fa
:100400002f8a20000e7f22000e01880000000000cd
:10041000000020000000e000020032000001200087
:1004200020028800140007009a0007000000e00086
:1004300003003a004098200001002000020037002d
:100440000000200001002000810f70000100320038
:1004500014000700000020000000e000020032004d
:1004600000000200000000002c0902000000000053
:100470000040da000000fe004440a9000000200017
:100480000000e0000300320000002000a00188000e
:100490004440a800000006008a1f78008b1f7800e7
:1004a0000000060091018800800478000000eb0045
:1004b0001a003700e284440032a0b4009905ba0063
:1004c000e284440032a0b4009906ba00e2844400f9
:1004d00032a0b4000006eb00476fde00fd07b2005b
:1004e000636ce10003003a00ebff07000000eb0043
:1004f0000a003700606ce10004003a00005deb0088
:100500008b05e900fdff3e00040037006168e10053
:10051000010032000086eb000b00070019c7ba008b
:100520001905ba000e04e00003003a000a00e000da
:10053000e0ff3a0000000600fe07b2009e018800be
:100540008a047800f5ff3700395dba008b05e900b1
:100550000c003200295dba008b05e900080032006a
:100560000c00e00003003a00e284440032a0b40032
:10057000f5ff370019ddba008b05e900faff3a00f4
:100580008904e800e184440032a0b40000000600c1
:10059000000000000000000000000000000000005b
:1005a00000000000000000003600f800809fbe0040
:1005b000829fbe00849fbe00869fbe003400f8006c
:1005c00000002000a00188000000fa008560a9005a
:1005d0000500370030118000804078000040800026
:1005e00010009000580207001011800061006000a8
:1005f0000000e000f7ff3a000080fa003400f90044
:100600004f03be004f02be004f01be004f00be00b0
:100610003600f900004006003600f800809fbe005a
:10062000829fbe00849fbe00869fbe003400f800fb
:1006300000002000a00188000000fa008580a900c9
:10064000e80207000080fa003400f9004f03be0002
:100650004f02be004f01be004f00be003600f90041
:10066000004006003400f800881f780008002000d1
:10067000a80188004f0478000000fa008c20a9002f
:100680000080fa003400f900004006000040da0063
:100690000000fe000000050003f0a200889fbe00dd
:1006a0008a9fbe008c1f7800f3000700fa00330019
:1006b0006450e1004f0032006420e100520032003b
:1006c00003826c0007003b000905d0000306d00040
:1006d000820f54000c065d00020039000200320057
:1006e00089017800030678008582550004003d00ea
:1006f0000003fd008103fd008502ea008b854200b6
:10070000840f720002003b0060001000e0801800bf
:100710006011b8000005eb007a28e1000a003900fa
:1007200006007800c75ddd00f707b200878075001e
:100730002d003700828171000a0178006105600098
:100740008180d1000080d3008502e900f9ff3b00e1
:10075000060440008784480002003b006004140047
:10076000e0841c000988a300070032008a81710020
:1007700082817100610164008904d1000884d30082
:100780008b05e800170037000978a30013003a0032
:100790000b00e000130034008b05e900080444005e
:1007a00089844c000a4474000978a3000d003a00c3
:1007b0000b00e000070034008b05e900080444004a
:1007c00089844c0001003a000b0020000978a30046
:1007d000f7ff32000001eb00020037008281710058
:1007e0000a017800690007000cf0a70001f0a000e2
:1007f000b20037006420e10002003a00838f6c00f1
:10080000b20033000801be000200be00ab0037009a
:10081000889fbe008a9fbe008c1f7800960007004c
:100820009d00330003866c006450e1002e0032000e
:100830006420e100330032006150e1002f003200fb
:100840006120e1003100320085855500eb07b000e2
:1008500009002000080420000500370008044400b7
:1008600089844c000a0031000603430087834b0053
:100870000001530081815b00f8ff33000203be00da
:100880000800a0000804440089844c00f6ff3900e9
:10089000c639dd008301730001003200130020001f
:1008a0008904d1000884d3000998a3000500320010
:1008b0000800a7000300a0008904d1000884d30029
:1008c0008b05e8008904d1000884d3000001eb0007
:1008d0000281d2002d00070001f0a1000cf0a7005a
:1008e00001f0a000750037006420e10077003200bd
:1008f0000801be000200be00f7ff37006120e100e2
:10090000720032006000b800f3ff370000002000e2
:1009100001f82700f0ff37000001be00410007008a
:100920000470a70003f0a10003f8a30013003a002d
:100930006509b10010003200090035006928e100a6
:100940000200350001002800000005000000400002
:10095000818048008502e900fcff3a0000000600a3
:10096000f88f4200050035008100d1000080d300df
:100970008502e800fcff3a00000006008000eb0062
:10098000000005006011b8008700370081002000da
:10099000618055000b003d000b00200061fe2f0020
:1009a0000100e1001d0034008281710061016400da
:1009b0008904d1000884d3000000e800faff3a005f
:1009c00071002000610064000300700002006000fc
:1009d0000900320061044400e0844c000988a5004d
:1009e000050032008b05e8006808e10002003a00cb
:1009f0008904d1000884d300f20f20000258e100de
:100a000005003d00c75ddd00f907b2008980750073
:100a100008007800000006000bf827008b00780023
:100a200000000500c70ade00f107b200f50fb200b2
:100a300008003200e1cf4200020032000170a00045
:100a400024000500810f7000010032000408050039
:100a500044000500810f700002003a0014000500f8
:100a60008502e9000000400081c04800fcff3b0017
:100a70000170a000240005000004be00e9ff07008b
:100a80000003be000405be000200be00e5ff070033
:100a9000844f7500000006000200be006450e100b3
:100aa000050036006420e100020036000968a3005a
:100ab00001003a000800be000160a0004f06780067
:100ac0004f05be004f04be0000000600f0ff2f00df
:100ad000f1ff2700f9ff3700889fbe008a9fbe0004
:100ae0008c1f7800e4ff0700ebff330003866c00e7
:100af0006450e100240032006420e100270032004d
:100b00006150e100220032006120e100210032004a
:100b10008b854200eb07b1000134b800003ab80001
:100b20000804420089844a00013ab8000030b80045
:100b30008880400009014a000400330000004000a2
:100b400081804800020149008b05e900c909dd00e8
:100b5000830170000100320013002000c814de0081
:100b60004814dd004709de001200b200c808de00ac
:100b70000884700085ff070001f0a1000cf0a700b9
:100b800001f0a000cdff37006120e100cfff32006f
:100b90000801be000200be00f7ff37006150e1000f
:100ba000fcff3a00c9ff3700889fbe008a9fbe0045
:100bb000008270000402710004827100260032007d
:100bc0000004be000200be006011b8006b092000e6
:100bd000950220000182cf000a0039000541b100d2
:100be0000082cf00070039000541b1000982cf0023
:100bf000040039000541b1000882cf00010039002e
:100c00000541b10005425200120032000a003b00cb
:100c100082817100610164008100d1000080d300f5
:100c20008984d3000884d3008b05e8000442e800df
:100c3000f7ff3a00070037000804440089844c009d
:100c400000004800818048008b05e9000442e9006b
:100c5000f9ff3a004dff07004f05be004f04be00ec
:040c6000000006008a
:020000040000fa
:100c64000600fa00881f7800000f78001207980029
:100c7400230798001e0078000a0007001e00780071
:100c8400200490001e009000ae00900021ff070099
:100c940000007800080001004f0478000080fa008a
:100ca400000006000200fa00000f78001e00780021
:100cb40030009000000001000080fa0000000600ef
:100cc4000400fa00000f7800110798001e00780055
:100cd40010009000e10007000000e00002003a006c
:100ce4000040eb00060037001e0078001000900062
:100cf400d00007009e0090008048780010c0b30028
:100d04000080fa00000006000400fa00000f7800da
:100d1400110798001e00780010009000cf00070013
:100d24000000e00002003a000040eb000900370038
:100d34001e00780010009000be0007009e00900086
:100d4400804878001e00780010009000a000070082
:100d540010c0b3000080fa00000006000800fa008a
:100d6400881f780010079800210798003207980020
:100d7400000000001e00900010009000b700070063
:100d8400be009000810f5000faff39000000eb0014
:100d9400000f78000b0037001e007800ae009000b2
:100da400008440001e00900010009000a100070085
:100db400004c78001e009000100090008400070092
:100dc4001e0fe8009e0078003e009000808f5000c7
:100dd400f1ff39003e0090004f0478000080fa00d3
:100de400000006000200fa00000f78001e007800e0
:100df40010009000990007000080fa00000006002f
:100e04000400fa00881f7800000f7800214798003a
:100e1400000000001e007800100078008f0007001a
:100e2400000478001e00780010007800910007008c
:100e3400800f5400f7ff32001e0078001000780085
:100e4400ae4090003f0007001e0078004000900074
:100e5400000001004f0478000080fa000000060042
:100e64000600fa00000f7800110798002207980086
:100e74000080fa00000006000200fa00000f78006b
:100e84000080fa00000006000000fa000080eb0079
:100e94000080fa00000006000200fa00004f78000b
:100ea4000080fa00000006000400fa00000f780039
:100eb400110798000080fa00000006000600fa00fe
:100ec400000f780011079800220798001e00780090
:100ed4009e009000010878001e0078008000eb005e
:100ee400210098001e0078008000eb00110098009b
:100ef4001e0078008000eb00410098001e0078007e
:100f0400ae009000310098000080fa000000060056
:100f14000200fa00000f78001e0078008000eb0049
:100f2400210098001e0078008000eb00110098005a
:100f34001e0078008000eb00410098000080fa0059
:100f4400000006000400fa00000f78002147980012
:100f54001e007800c00090001e0078003000900051
:100f6400808f5000180032001e0078009000780036
:100f74001e0078001000900000804000ae409000f9
:100f8400014878001e007800100090008000e800fe
:100f94001e00780030009000000178001100090064
:100fa4008280d8008000fd00800078001e00780058
:100fb400110098001e007800400090008000e800b6
:100fc4001e007800410098000080fa00000006002e
:100fd4000200fa00000f78001e0078004000900024
:100fe4000000e000110032001e0078002000900094
:100ff4008000e8001e0078003000900000017800b6
:10100400110009008280d8008000fd008000780073
:101014001e007800210098001e0078004000900017
:101024008000e9001e007800410098000080fa006a
:10103400000006000200fa00000f78001e0078008d
:10104400900078001e00780020009000008040008e
:10105400104078000080fa00000006000200fa0048
:10106400000f78001e007800400090000080fa0015
:10107400000006000200fa00000f78001e0078004d
:10108400300090000080fa00000006001200fa0010
:10109400000f9800020420004180200040882000b6
:1010a40086ff07000204200041842000e08820001d
:1010b40082ff070000408000418820001100980052
:1010c40000408000e1882000010878000e089000ac
:1010d4008000eb002afe0700008fbe000200200003
:1010e400031824001e00be007afe07000001be00a3
:1010f4000040220041a72400c4fd07000200200094
:1011040003f8230063fd070002fe070000007800d7
:1011140040118800401180000000e8004400dd0018
:101124008000eb0016fe07000001be000040220014
:1011340041a72400b5fd0700200798003107980057
:101144000040220041a7240040079800510798005e
:101154004e019000de0190002e009000be00900031
:101164004cfd07004e019000de019000a7fd070032
:1011740060079800710798002002a90001118000ff
:1011840090ff2f0000806000001188002062a900f9
:101194008560a9008580a9009580a8009560a800b5
:1011a40023e2a80023a2a90021e2a8000000000075
:1011b4002342a8006e009000fe0090000080fa0018
:1011c400000006000000fa009580a9009560a900bf
:1011d4002342a90021e2a9000080fa0000000600d1
:1011e4000000fa0002c8bf000004a2000004e000ee
:1011f4001600320010c0b30002e8b7000800370040
:1012040000408000100078008aff07000080fb0087
:101214002011880000408000100078006cff070057
:101224001111800000202000008060000000e00018
:1012340005003a00004080001000780087ff070096
:101244000000e000eeff3a000268ef000080fa00c0
:1012540000000600cc00fa0001408000110798004d
:10126400d222ef00d422ef00d822ef00da22ef00de
:1012740002002000636124001e00900078fe070035
:10128400c1c3b3001e009000ddfe070031c3b300ec
:101294001e009000dafe0700b1c2b3001e009000e9
:1012a400d7fe070064004700a200200080007800f9
:1012b4001e009000a9fe07000000eb00000f78005c
:1012c4000c003700000000001111800000202000f5
:1012d400008060000000e000fbff3a00640047006b
:1012e4001e004000104078000080fb0020118800a0
:1012f4001e0fe8001e007800e90f5000f1ff3400d3
:04130400e8ff3700c7
:020000040000fa
:10130800980800000a000000020000000000000029
:1013180000480800e408f200080000000408000083
:101328009400000000000000000800000200000017
:1013380002000000980800000208000002000000f7
:0813480000000000000000009d
:020000040000fa
:020000040001f9
:0457f800befa0000f5
:020000040000fa
:020000040001f9
:0457fc007f7e0000ac
:00000001FF
