:020000040000FA
:0400000029EF00F0F4
:100008004E82FACF0AF0FBCF0BF0E1CF0CF0E2CF33
:100018000DF0D9CF0EF0DACF0FF0F3CF10F0F4CF08
:1000280011F034EC11F011C0F4FF10C0F3FF0FC051
:10003800DAFF0EC0D9FF0DC0E2FF0CC0E1FF0BC014
:10004800FBFF0AC0FAFF4E9211000BEF11F09EB6AB
:1000580030EF00F032EF00F04EEF02F09EA237EFE3
:1000680000F039EF00F081EF02F00E0E01010019E7
:10007800D8B441EF00F043EF00F04EEF00F00D0E62
:100088000019D8A44AEF00F04CEF00F081EF02F01D
:100098004EEF02F04EEF02F0000E4C6E000E4A6E6C
:1000A8000651D8B45AEF00F05CEF00F063EF00F0AF
:1000B80006C146F0476A0E0E006F69EF00F0000EA9
:1000C800476E0A0E466E0C0E006F02C1C9FF80EF24
:1000D80002F0C5BC72EF00F074EF00F0B2EF00F070
:1000E800010E05657AEF00F07CEF00F097EF00F065
:1000F8004C500325D96E000E0421DA6EDF50C96E0C
:100108004C2A05070651D8B48CEF00F08EEF00F0AA
:1001180080EF02F0000E4A6E0E0E006F06C146F028
:10012800476A80EF02F04C500325D96E000E042177
:10013800DA6EDF50C96E4C2A0507020E0119D8A4E1
:10014800A8EF00F0AAEF00F0AEEF00F0080E006F85
:1001580080EF02F0040E006F80EF02F0000E4A6E8E
:10016800C5840651D8B4BBEF00F0BDEF00F0AAEF8C
:1001780000F00D0E006F92EF00F0C586060E006FBE
:1001880080EF02F0FF0E016EFF0E026E0551036E46
:10019800046A01500326025004224C50056E066A78
:1001A8000350055C0650800A076E0450800A075801
:1001B800D8B0E1EF00F0E3EF00F002EF01F0C59AEC
:1001C8004C500325D96E000E0421DA6EC9CFDFFF2B
:1001D8004C2A0651D8B4F3EF00F0F5EF00F0FEEF2B
:1001E80000F0000E4A6E0E0E006F06C146F0476A18
:1001F8000EEF01F0050E006F0EEF01F0C58A4C50AE
:100208000325D96E000E0421DA6EC9CFDFFF4C2A10
:10021800040E006FC58880EF02F0000E4A6EC58498
:100228000651D8B41AEF01F01CEF01F0AAEF00F064
:10023800BDEF00F001C108F00105D8A426EF01F0D8
:1002480028EF01F049EF01F08551060D3E0EF32429
:10025800D96E010EF420DA6E02C1DFFF8551060D5A
:100268003F0EF324D96E010EF420DA6E03C1DEFFCF
:1002780004C1DDFF8551060D410EF324D96E010E30
:10028800F420DA6E4CC0DFFF852B000E4C6E71EF48
:1002980001F04C50060D070EF324D96E010EF42020
:1002A800DA6E4C50060D010EF324E16E010EF420B7
:1002B800E26E050EDBCFE3FFE806FCE27A0E4C2483
:1002C800D96EDA6A010EDA22790E4C24E16EE26AFE
:1002D800010EE222DFCFE7FF4C2A84514C5CD8A004
:1002E80078EF01F07AEF01F04DEF01F084078451C7
:1002F800D8B481EF01F083EF01F094EF01F0000E24
:10030800006F020E0818D8A48CEF01F08EEF01F0F0
:1003180091EF01F0C58280EF02F0C58080EF02F016
:100328000B0E006F80EF02F09EA69DEF01F09FEF8D
:1003380001F0A1EF01F0010E4A6E46504710D8A413
:10034800A8EF01F0AAEF01F0D3EF01F04A50D8B4BA
:10035800B0EF01F0B2EF01F0D3EF01F00151D8B4E2
:10036800B8EF01F0BAEF01F0C3EF01F0020E011986
:10037800D8A4C1EF01F0C3EF01F0C7EF01F0030EFD
:10038800006F4EEF02F00105D8A4CDEF01F0CFEFDA
:1003980001F0D3EF01F0050E006F4EEF02F046506A
:1003A8004710D8A4DAEF01F0DCEF01F080EF02F09B
:1003B8004A50D8A4E2EF01F0E4EF01F080EF02F038
:1003C800C590C580000E006F80EF02F09EA6EFEF8B
:1003D80001F0F1EF01F00EEF02F00151D8B4F7EFA0
:1003E80001F0F9EF01F0C3EF01F0020E0119D8A4F2
:1003F80000EF02F002EF02F004EF02F0C3EF01F0A9
:100408000105D8A40AEF02F00CEF02F080EF02F029
:10041800CFEF01F046504710D8A415EF02F017EFC0
:1004280002F080EF02F0C590C580E6EF01F09EA6CD
:1004380020EF02F022EF02F024EF02F0010E4A6EE4
:1004480046504710D8A42BEF02F02DEF02F039EFF9
:1004580002F04A50D8B433EF02F035EF02F039EF2A
:1004680002F0080E006F4EEF02F046504710D8A475
:1004780040EF02F042EF02F080EF02F04A50D8A4B9
:1004880048EF02F04AEF02F080EF02F0C590C58015
:10049800E6EF01F001010051016E026A0250000A04
:1004A800D8B459EF02F080EF02F00150000AD8B436
:1004B80050EF00F0030AD8B46DEF00F0070AD8B483
:1004C80011EF01F0010AD8B4C1EF00F0030AD8B463
:1004D800C6EF00F00E0AD8B41EEF01F0040AD8B433
:1004E800EAEF01F0010AD8B41BEF02F0030AD8B40E
:1004F80098EF01F080EF02F09E969EA286EF02F040
:1005080088EF02F099EF02F047BE93EF02F04750F0
:1005180008E14604D8A093EF02F095EF02F098EFB7
:1005280002F04606D8A047069E9212001550800B8E
:100538001E6E15501524206E14AEA5EF02F0A7EF1D
:1005480002F0A8EF02F020802050D8B4AEEF02F0FD
:10055800B0EF02F0C5EF02F02028D8A4B6EF02F001
:10056800B8EF02F0C0EF02F0000E126E000E136E2C
:10057800000E146E000E156E148E000E156ECDEF63
:1005880002F0000E126E000E136E000E146E000EB6
:10059800156E1950800B1F6E1E501F18D8B4D7EF58
:1005A80002F0D9EF02F0DAEF02F01E8C195019248C
:1005B8001F6E18AEE2EF02F0E4EF02F0E5EF02F092
:1005C8001F801F50D8B4EBEF02F0EDEF02F002EFFE
:1005D80003F01F28D8A4F3EF02F0F5EF02F0FDEFC7
:1005E80002F0000E166E000E176E000E186E000E4A
:1005F800196E188E000E196E0AEF03F0000E166EB3
:10060800000E176E000E186E000E196E20501F5C3B
:10061800D8B011EF03F013EF03F03AEF03F01EAC7C
:1006280018EF03F01AEF03F01CEF03F0800E1E1A08
:1006380020C021F01FC020F021C01FF012C021F0FF
:1006480016C012F021C016F013C021F017C013F025
:1006580021C017F014C021F018C014F021C018F000
:1006680015C021F019C015F021C019F0000E216E37
:1006780020501FC01AF01B6A1A5E000E1B5A1BBEC0
:100688004FEF03F01B5009E11A0E1A5CD8A04FEF88
:1006980003F051EF03F088EF03F012501310141019
:1006A8001510D8A45AEF03F05DEF03F0010E5EEFCA
:1006B80003F0000E216E000E126E000E136E000E77
:1006C800146E000E156E1FC020F091EF03F021A0EC
:1006D80070EF03F072EF03F078EF03F0D890213059
:1006E8000109216E7AEF03F0D890213212A07FEF32
:1006F80003F081EF03F082EF03F0218E15341532F9
:10070800143213321232202A1F50205CD8A08FEFE7
:1007180003F091EF03F06BEF03F01EBC96EF03F0CC
:1007280098EF03F0D8EF03F02050D8A49EEF03F021
:10073800A0EF03F0AAEF03F0000E126E000E136E86
:10074800000E146E000E156EF9EF04F01650122606
:1007580017501322185014221950152215A0B7EF5C
:1007680003F0B9EF03F065EF04F021A0BEEF03F04A
:10077800C0EF03F0C6EF03F0D89021300109216ED5
:10078800C8EF03F0D890213212A0CDEF03F0CFEFDD
:1007980003F0D0EF03F0218E1534153214321332E2
:1007A8001232202A65EF04F01650125C17501358C5
:1007B800185014581550800A1A6E1950800A1A5881
:1007C800D8B0E9EF03F0EBEF03F016EF04F01250A6
:1007D800165C1A6E135017581B6E145018581C6E5E
:1007E800155019581D6EFF0E1A24126EFF0E1B208D
:1007F800136EFF0E1C20146EFF0E1D20156E800E4A
:100808001E1A216C2150D8A40CEF04F00EEF04F04E
:100818001EEF04F0010E1226000E132214221522D8
:100828001EEF04F01650125E1750135A1850145A3F
:100838001950155A1250131014101510D8A427EF78
:1008480004F029EF04F05EEF04F02150D8A42FEF54
:1008580004F031EF04F05EEF04F0000E126E000EAB
:10086800136E000E146E000E156EF9EF04F0D8909A
:10087800123613361436153621AE45EF04F047EF1D
:1008880004F048EF04F0128021A04DEF04F04FEF80
:1008980004F053EF04F0D880213655EF04F0D890D7
:1008A80021362050D8B45BEF04F05DEF04F05EEF22
:1008B80004F0200614AE63EF04F065EF04F03BEF9C
:1008C80004F0000E1F6E21AE6CEF04F06EEF04F022
:1008D80086EF04F021C01AF07F0E1A16D8B477EF0D
:1008E80004F079EF04F07DEF04F0010E1F6E86EF3F
:1008F80004F012A082EF04F084EF04F086EF04F015
:1009080079EF04F01F50D8B48CEF04F08EEF04F0A8
:10091800B9EF04F0010E1226000E1322142215223C
:1009280015A099EF04F09BEF04F0B9EF04F012C0A2
:100938001AF013C01BF014C01CF015C01DF01D34B4
:100948001D321C321B321A321AC012F01BC013F0AF
:100958001CC014F01DC015F02028D8B4B6EF04F060
:10096800B8EF04F0B9EF04F0202A2028D8B4BFEF7C
:1009780004F0C1EF04F0C9EF04F02050D8A4C7EF89
:1009880004F0C9EF04F0DBEF04F0000E126E000E65
:10099800136E000E146E000E156E2050D8A4D7EFFB
:1009A80004F0D9EF04F0DBEF04F0000E1E6E20A077
:1009B800E0EF04F0E2EF04F0E5EF04F0148EE6EF68
:1009C80004F0149ED8902030156E1EAEEEEF04F0A1
:1009D800F0EF04F0F1EF04F0158E12C012F013C01E
:1009E80013F014C014F015C015F012001550800B48
:1009F8001E6E15501524246E14AE05EF05F007EF92
:100A080005F008EF05F024802450D8B40EEF05F067
:100A180010EF05F023EF05F02428D8A416EF05F011
:100A280018EF05F020EF05F0000E126E000E136EA1
:100A3800000E146E000E156E148E2BEF05F0000ECE
:100A4800126E000E136E000E146E000E156E195005
:100A5800800B1E1A19501924236E18AE36EF05F0B4
:100A680038EF05F039EF05F023802350D8B43FEF75
:100A780005F041EF05F054EF05F02328D8A447EF1F
:100A880005F049EF05F051EF05F0000E166E000E67
:100A9800176E000E186E000E196E188E5CEF05F0BA
:100AA800000E166E000E176E000E186E000E196EF0
:100AB8002350D8B462EF05F064EF05F06CEF05F051
:100AC8002450D8A46AEF05F06CEF05F076EF05F036
:100AD800000E126E000E136E000E146E000E156ED0
:100AE8000EEF07F018501202F3CF29F0F4CF2AF0D6
:100AF80029501F6E206A216A226A2A50256E266AAA
:100B0800276A286A17501302F3CF29F0F4CF2AF086
:100B180029501F26000E2022212222222A50252673
:100B2800000E26222722282216501402F3CF29F07D
:100B3800F4CF2AF029501F26000E2022212222223B
:100B48002A502526000E26222722282221C022F0FC
:100B580020C021F01FC020F01F6A16501302F3CFE7
:100B680029F0F4CF2AF029501F262A502022000EFF
:100B78002122000E222217501202F3CF29F0F4CFBF
:100B88002AF029501F262A502022000E2122000E6A
:100B9800222221C022F020C021F01FC020F01F6AAD
:100BA80016501202F3CF29F0F4CF2AF029501F264D
:100BB8002A502022000E2122000E22221850130251
:100BC800F3CF29F0F4CF2AF0295025262A502622DF
:100BD800000E2722000E282217501402F3CF29F006
:100BE800F4CF2AF0295025262A502622000E272243
:100BF800000E282218501402F3CF29F0F4CF2AF05F
:100C080029501A6E2A501B6E1C6A1D6A1CC01DF0E2
:100C18001BC01CF01AC01BF01A6A1A5025261B505C
:100C280026221C5027221D5028221FC01AF020C03F
:100C38001BF021C01CF022C01DF0190E29EF06F090
:100C4800D8901D321C321B321A32E82E24EF06F0DF
:100C58001A5025261B5026221C5027221D502822B8
:100C680021C022F020C021F01FC020F01F6A2350AD
:100C780024C01AF01B6A1A26000E1B22820E1A24A0
:100C8800296EFF0E1B202A6E5FEF06F0D8902536DE
:100C980026362736283622AE54EF06F056EF06F0F1
:100CA80057EF06F02580D8901F3620362136223699
:100CB8002906D8A02A0627AE64EF06F066EF06F0EC
:100CC8004AEF06F0000E236E22AE6DEF06F06FEFCE
:100CD80006F093EF06F0FF0E1F141A6EFF0E201495
:100CE8001B6EFF0E21141C6E7F0E22141D6E1A50EF
:100CF8001B101C101D10D8B484EF06F086EF06F008
:100D08008AEF06F0010E236E93EF06F025A08FEF11
:100D180006F091EF06F093EF06F086EF06F0235009
:100D2800D8B499EF06F09BEF06F0BFEF06F0010E7E
:100D38002526000E26222722282228A0A6EF06F024
:100D4800A8EF06F0BFEF06F025C01AF026C01BF08A
:100D580027C01CF028C01DF01D341D321C321B3268
:100D68001A321AC025F01BC026F01CC027F01DC07F
:100D780028F0294A2A2A2ABECAEF06F02A5008E192
:100D88002928D8A0CAEF06F0CCEF06F0D6EF06F077
:100D9800000E256E000E266E800E276E7F0E286EC2
:100DA80004EF07F02ABEE3EF06F02A5006E1290413
:100DB800D8B0E1EF06F0E3EF06F0EFEF06F0000E33
:100DC800256E000E266E000E276E000E286E000E91
:100DD8001E6E04EF07F029C024F0FF0E2516FF0E43
:100DE80026167F0E2716000E281624A0FEEF06F002
:100DF80000EF07F001EF07F0278ED8902430286E17
:100E08001E50281225C012F026C013F027C014F077
:100E180028C015F01200800E206E960E216E980ED6
:100E2800226E4B0E236E3FC012F040C013F0146ABE
:100E3800156A000EA7EC0BF012C024F013C025F0C1
:100E480014C026F015C027F0DFEC08F020C068F0C9
:100E580021C069F022C06AF023C06BF0000E2B6E2F
:100E6800000E2C6E800E2D6E430E2E6E39C016F0BD
:100E78003AC017F03BC018F03CC019F068C012F037
:100E880069C013F06AC014F06BC015F0FAEC04F0F6
:100E980012C02FF013C030F014C031F015C032F07A
:100EA80035EC0FF0D8A05BEF07F05DEF07F0DEEF51
:100EB80008F068C012F069C013F06AC014F06BC083
:100EC80015F039C016F03AC017F03BC018F03CC016
:100ED80019F0FAEC04F012C070F013C071F014C0ED
:100EE80072F015C073F070C012F071C013F072C0C8
:100EF80014F073C015F0B2EC0EF012C074F013C009
:100F080075F070C02BF071C02CF072C02DF073C05A
:100F18002EF074C012F075C013F0146A156A000E32
:100F2800A7EC0BF012C02FF013C030F014C031F052
:100F380015C032F035EC0FF0D8A0A5EF07F0A7EFF9
:100F480007F0CCEF07F070C022F071C023F072C038
:100F580024F073C025F074C012F075C013F0146A41
:100F6800156A000EA7EC0BF012C026F013C027F08C
:100F780014C028F015C029F059EC11F022C060F017
:100F880023C061F024C062F025C063F0EFEF07F0E2
:100F980074C012F075C013F0146A156A000EA7EC3D
:100FA8000BF012C022F013C023F014C024F015C0B7
:100FB80025F070C026F071C027F072C028F073C009
:100FC80029F059EC11F022C060F023C061F024C070
:100FD80062F025C063F060C06CF061C06DF062C063
:100FE8006EF063C06FF06CC02BF06DC02CF06EC05B
:100FF8002DF06FC02EF043C0D9FF44C0DAFFDECF1A
:101008002FF0DECF30F0DECF31F0DECF32F035EC2E
:101018000FF0D8B012EF08F014EF08F030EF08F036
:101028003DC0D9FF3EC0DAFF74C0DEFF75C0DDFFEA
:1010380041C0D9FF42C0DAFF3FC0DEFF40C0DDFF3C
:1010480043C0D9FF44C0DAFF6CC0DEFF6DC0DEFFCD
:101058006EC0DEFF6FC0DEFF0001744B752B70C0E1
:101068002BF071C02CF072C02DF073C02EF074C03C
:1010780012F075C013F0146A156A000EA7EC0BF095
:1010880012C02FF013C030F014C031F015C032F088
:1010980035EC0FF0D8A053EF08F055EF08F07AEFD1
:1010A80008F070C022F071C023F072C024F073C041
:1010B80025F074C012F075C013F0146A156A000E9A
:1010C800A7EC0BF012C026F013C027F014C028F0CC
:1010D80015C029F059EC11F022C064F023C065F066
:1010E80024C066F025C067F09DEF08F074C012F0C8
:1010F80075C013F0146A156A000EA7EC0BF012C045
:1011080022F013C023F014C024F015C025F070C0DD
:1011180026F071C027F072C028F073C029F059EC8E
:1011280011F022C064F023C065F024C066F025C029
:1011380067F064C06CF065C06DF066C06EF067C0A3
:101148006FF06CC02BF06DC02CF06EC02DF06FC02E
:101158002EF043C0D9FF44C0DAFFDECF2FF0DECF38
:1011680030F0DECF31F0DECF32F035EC0FF0D8B012
:10117800C0EF08F0C2EF08F0DEEF08F03DC0D9FF7D
:101188003EC0DAFF74C0DEFF75C0DDFF41C0D9FF85
:1011980042C0DAFF3FC0DEFF40C0DDFF43C0D9FFD9
:1011A80044C0DAFF6CC0DEFF6DC0DEFF6EC0DEFF3C
:1011B8006FC0DEFF12002350800B306E23502324B3
:1011C800376E22AEEAEF08F0ECEF08F0EDEF08F02A
:1011D80037803750D8B4F3EF08F0F5EF08F00AEF8E
:1011E80009F03728D8A4FBEF08F0FDEF08F005EF69
:1011F80009F0000E206E000E216E000E226E000E09
:10120800236E228E000E236E12EF09F0000E206E60
:10121800000E216E000E226E000E236E2750800BEA
:10122800301A27502724386E26AE1DEF09F01FEF1D
:1012380009F020EF09F038803850D8B426EF09F0CB
:1012480028EF09F03DEF09F03828D8A42EEF09F06F
:1012580030EF09F038EF09F0000E246E000E256E0D
:10126800000E266E000E276E268E000E276E45EFA6
:1012780009F0000E246E000E256E000E266E000E7C
:10128800276E2450251026102710D8A44EEF09F0F9
:1012980050EF09F068EF09F0000E206E000E216E85
:1012A800000E226E000E236E800E22127F0E231275
:1012B8003050231220C020F021C021F022C022F09B
:1012C80023C023F0ABEF0AF03750D8A46EEF09F033
:1012D80070EF09F07AEF09F0000E206E000E216E13
:1012E800000E226E000E236EABEF0AF0385037C0A6
:1012F80028F0296A285E000E295A7F0E2824316EAC
:10130800000E2920326E20C02CF021C02DF022C002
:101318002EF023C02FF0000E206E000E216E000E5E
:10132800226E000E236E000E336E000E346E000E19
:10133800356E000E366E000E386EDBEF09F0385051
:10134800D8B4A9EF09F0ABEF09F0C2EF09F0D890D3
:101358002C362D362E362F36D8902036213622368A
:10136800233636AEBAEF09F0BCEF09F0BDEF09F04D
:101378002080D890333634363536363624502C5CB7
:1013880025502D5826502E5827502F58D8A0CFEF2B
:1013980009F0D1EF09F0DAEF09F0368C24502C5E11
:1013A80025502D5A26502E5A27502F5A382A190EB2
:1013B8003864E1EF09F0E3EF09F0A3EF09F02C50EE
:1013C8002D102E102F10D8B4ECEF09F0EEEF09F025
:1013D80006EF0AF0338006EF0AF0D890203621365F
:1013E8002236233636AEFBEF09F0FDEF09F0FEEFAB
:1013F80009F02080D8903336343635363636310603
:10140800D8A0320622AE0BEF0AF00DEF0AF0F1EF8A
:1014180009F0000E386E36AE14EF0AF016EF0AF037
:101428003AEF0AF0FF0E3314286EFF0E3414296EBB
:10143800FF0E35142A6E7F0E36142B6E2850291095
:101448002A102B10D8B42BEF0AF02DEF0AF031EF49
:101458000AF0010E386E3AEF0AF020A036EF0AF0D3
:1014680038EF0AF03AEF0AF02DEF0AF03850D8B406
:1014780040EF0AF042EF0AF066EF0AF0010E20266C
:10148800000E21222222232223A04DEF0AF04FEF43
:101498000AF066EF0AF020C028F021C029F022C027
:1014A8002AF023C02BF02B342B322A32293228324F
:1014B80028C020F029C021F02AC022F02BC023F038
:1014C800314A322A32BE71EF0AF0325008E131282F
:1014D800D8A071EF0AF073EF0AF07EEF0AF0000E61
:1014E800326E3168000E206E000E216E000E226EE4
:1014F800000E236E32BE8BEF0AF0325006E1310443
:10150800D8B089EF0AF08BEF0AF099EF0AF0000ED5
:10151800326E000E316E000E206E000E216E000E2F
:10152800226E000E236E000E306E31C037F037A0E9
:10153800A0EF0AF0A2EF0AF0A5EF0AF0228EA6EFBC
:101548000AF0229ED8903730236E5CEF09F0120023
:1015580000017A6FF28CF28E000E00017F6F000E90
:10156800806FA00E816F410E826F000E7C6F000E9F
:101578007B6F000E7E6F000E7D6F170E396EB70EF3
:101588003A6ED10E3B6E380E3C6E7D0E3D6E000EEF
:101598003E6E000E406E100E3F6E7B0E416E000ECA
:1015A800426E7F0E436E000E446E0FEC07F0170E6E
:1015B800396EB70E3A6ED10E3B6E380E3C6E7D0E0C
:1015C8003D6E000E3E6E000E406E040E3F6E7B0EAA
:1015D800416E000E426E7F0E436E000E446E0FEC9D
:1015E80007F0170E396EB70E3A6ED10E3B6E380EF5
:1015F8003C6E7D0E3D6E000E3E6E000E406E010E7E
:101608003F6E7B0E416E000E426E7F0E436E000EE3
:10161800446E0FEC07F07FC012F080C013F081C059
:1016280014F082C015F0000E166E000E176EA00E94
:10163800186E410E196E33EC10F0D8A026EF0BF09F
:1016480028EF0BF02DEF0BF0000176697769A6EF14
:101658000BF0000E0101846F000E856F790E126E7B
:10166800010E136E000E156E000E146E000E176E2E
:101678000B0E166E46EC0DF0010E4D6E0B0E0101B1
:10168800006FBA50870B4809BA6E7DC0BBFF000EC9
:10169800BC6E9D829E9261EF0BF0BA50FC0B020962
:1016A800BA6E7CEF0BF0BA50FC0B0109BA6E7CEFF6
:1016B8000BF0FC0EBA167CEF0BF07BC078F07CC008
:1016C80079F000017951000AD8B46DEF0BF028EFDA
:1016D8000BF07851010AD8B45DEF0BF0050AD8B4C5
:1016E80057EF0BF0140AD8B451EF0BF028EF0BF0BA
:1016F800000E476E000E466EBA847AA386EF0BF092
:1017080088EF0BF08BEF0BF09D868CEF0BF09D961E
:101718007AA191EF0BF093EF0BF028EF0BF0C69A3C
:10172800410EC86EC79EC650F00B0809C66EC68A21
:10173800010E0101866F7AC087F1000E0001776FF4
:10174800000E766F12001A6E1A50D8B4AEEF0BF076
:10175800B0EF0BF0D2EF0BF015BEB7EF0BF0B5EF13
:101768000BF0D2EF0BF012C016F013C017F014C034
:1017780018F015C019F0161E171E181E191E162A65
:10178800000E17221822192216C01CF017C01DF0CF
:1017980018C01EF019C01FF0DAEF0BF012C01CF0D1
:1017A80013C01DF014C01EF015C01FF01250131006
:1017B80014101510D8A4E3EF0BF0E5EF0BF0EFEFE2
:1017C8000BF0000E126E000E136E000E146E000E5B
:1017D800156E80EF0CF0960E1B6EF9EF0BF01B2ABE
:1017E800D8901F321E321D321C32000E1C14166E89
:1017F800000E1D14176E000E1E14186EFE0E1F1418
:10180800196E1650171018101910D8A40EEF0CF0F6
:1018180010EF0CF0F3EF0BF01EEF0CF01B2A010E8B
:101828001C26000E1D221E221F22D8901F321E3297
:101838001D321C32000E1C14166E000E1D14176E7D
:10184800000E1E14186EFF0E1F14196E1650171076
:1018580018101910D8A433EF0CF035EF0CF012EF74
:101868000CF03DEF0CF01B06D8901C361D361E36CA
:101878001F361EBE42EF0CF044EF0CF04CEF0CF09C
:10188800020E1B604AEF0CF04CEF0CF037EF0CF037
:101898001BB051EF0CF053EF0CF054EF0CF01E9E00
:1018A800D8901B321BC016F0176A186A196A16C03E
:1018B80019F0186A176A166A16501C1217501D126A
:1018C80018501E1219501F121A50D8B46EEF0CF08F
:1018D80070EF0CF078EF0CF015BE77EF0CF075EFA9
:1018E8000CF078EF0CF01F8E1CC012F01DC013F026
:1018F8001EC014F01FC015F01200700ED3129268AB
:10190800BF0E946E000E956E000E966E000E936ECE
:10191800010E0F01386F000E3A6F000E3C6F000E7B
:10192800396F000E616EF18EF28E000E8C6E000E15
:101938008D6E000E8A6E8BEC11F0030EACEC0AF083
:1019480076C08FF077C090F000018F2906E19029CA
:10195800D8A4B1EF0CF0B3EF0CF0B6EF0CF08C6834
:1019680044EF0DF0560E126E000E136E7CEC11F063
:10197800AAC083F0ABC084F0ACC085F0ADC088F0DD
:10198800AEC089F0830E0001916F000E926F030EB6
:10199800936F91C012F092C013F093C014F00A0E26
:1019A800156EAE0EB7EC0FF012C08FF013C090F0AA
:1019B80000018F2906E19029D8A4E5EF0CF0E7EFA4
:1019C8000CF0E9EF0CF0B3EF0CF08FC094F09451E9
:1019D800D5EC10F012501310D8A4F5EF0CF0F7EF77
:1019E8000CF0FAEF0CF08C5001098C6E880E126E18
:1019F800000E136E020E146E860E156E000E166E15
:101A0800010E176E0A0E186EAE0E01EC0EF08C0E5B
:101A1800126E000E136E8A0E146E000E156E88EC90
:101A280010F012C08DF013C08EF000018D518E1190
:101A3800D8B421EF0DF023EF0DF00BEF0DF08DC0B2
:101A4800D9FF8EC0DAFF210EDE18D8A42EEF0DF0D4
:101A580030EF0DF033EF0DF08C5002098C6E94517D
:101A6800D5EC10F012041310D8A43DEF0DF03FEFA1
:101A78000DF00BEF0DF08C5004098C6E0BEF0DF090
:101A880029EF00F012C01CF013C01DF016501710FB
:101A9800D8A451EF0DF053EF0DF055EF0DF000EF16
:101AA8000EF01CC0D9FF1DC0DAFF14C0DFFF1650AE
:101AB8001C24186E17501D20196EFF0E1824D96E9D
:101AC800FF0E1920DA6E14C0DFFF175007E1030E6E
:101AD800165CD8B072EF0DF074EF0DF076EF0DF0E4
:101AE80000EF0EF020EE01F01C50D9261D50DA222E
:101AF80014C0DFFF20EE02F01C50D9261D50DA2258
:101B080014C0DFFF16501C24186E17501D20196EC4
:101B1800FE0E1824D96EFF0E1920DA6E14C0DFFFEE
:101B280016501C24186E17501D20196EFD0E18240F
:101B3800D96EFF0E1920DA6E14C0DFFF175007E1C7
:101B4800070E165CD8B0ABEF0DF0ADEF0DF0AFEFB0
:101B58000DF000EF0EF020EE03F01C50D9261D50BA
:101B6800DA2214C0DFFF16501C24186E17501D20EF
:101B7800196EFC0E1824D96EFF0E1920DA6E14C0E7
:101B8800DFFF175007E1090E165CD8B0CEEF0DF055
:101B9800D0EF0DF0D2EF0DF000EF0EF01CC018F0F2
:101BA8001DC019F0181E191E184A192A030E1814F8
:101BB8001A6E1B6A1A501C261B501D221A50165EDC
:101BC8001B50175AFC0E1616FF0E1716F7EF0DF0DE
:101BD8001CC0D9FF1DC0DAFF14C0DFFF1606D8A04D
:101BE80017061C4A1D2A16501710D8A4FEEF0DF030
:101BF80000EF0EF0ECEF0DF01200196E01018605F2
:101C0800D8B409EF0EF00BEF0EF00DEF0EF0B1EFB8
:101C18000EF087B312EF0EF014EF0EF016EF0EF081
:101C2800B1EF0EF0080E84651CEF0EF01EEF0EF0FB
:101C380020EF0EF0B1EF0EF04D2A4D50D8A427EF4B
:101C48000EF029EF0EF02AEF0EF04D2A8451060D02
:101C5800010EF324D96E010EF420DA6E020EDF6E47
:101C68008451060D020EF324D96E010EF420DA6EAB
:101C780019C0DFFF8451060D030EF324D96E010E3F
:101C8800F420DA6E12C0DEFF13C0DDFF8451060DAA
:101C9800050EF324D96E010EF420DA6E14C0DFFFAE
:101CA8008451060D060EF324D96E010EF420DA6E67
:101CB80018C0DFFF790E8425D96EDA6A010EDA22A0
:101CC8004DC0DFFF842B8451060D010EF324D96E1D
:101CD800010EF420DA6E010EDF6E8451060D020E3D
:101CE800F324D96E010EF420DA6E19500109DF6E63
:101CF8008451060D030EF324D96E010EF420DA6E1A
:101D080015C0DEFF16C0DDFF8451060D050EF32455
:101D1800D96E010EF420DA6E17C0DFFF8451060D6C
:101D2800060EF324D96E010EF420DA6E18C0DFFF18
:101D3800790E8425D96EDA6A010EDA224DC0DFFFEA
:101D4800842B0B0E0019D8A4ACEF0EF0AEEF0EF0FA
:101D5800B1EF0EF0000E006FC58012001434153478
:101D68001B6E1B50D8A4BBEF0EF0BDEF0EF0C7EFF3
:101D78000EF0000E126E000E136E000E146E000EA2
:101D8800156E34EF0FF012C016F013C017F014C020
:101D980018F015C019F0200ED7EF0EF0D8901932B0
:101DA800183217321632E82ED2EF0EF016501A6E8D
:101DB800148EFF0E1216FF0E1316FF0E1416000EC9
:101DC8001516960E1B5E1BBEEEEF0EF0ECEF0EF036
:101DD80004EF0FF01B50800A970FD8B0F6EF0EF003
:101DE800F8EF0EF0FAEF0EF0BDEF0EF0D8901532C6
:101DF8001432133212321B3EFAEF0EF01CEF0FF0C2
:101E08001F0E1B640AEF0FF00CEF0FF014EF0FF02A
:101E1800BDEF0EF0D89012361336143615361B0661
:101E28001B50D8A41AEF0FF01CEF0FF00EEF0FF0B5
:101E38001A50D8B422EF0FF024EF0FF02CEF0FF068
:101E4800151E141E131E126C000E132214221522C6
:101E580012C012F013C013F014C014F015C015F01E
:101E68001200000E2B14336E000E2C14346E800EEC
:101E78002D14356E7F0E2E14366E335034103510F7
:101E88003610D8A44AEF0FF04CEF0FF054EF0FF0D4
:101E9800000E2B6E000E2C6E000E2D6E000E2E6E98
:101EA800000E2F14336E000E3014346E800E311471
:101EB800356E7F0E3214366E3350341035103610AE
:101EC800D8A469EF0FF06BEF0FF073EF0FF0000E6F
:101ED8002F6E000E306E000E316E000E326E2EAE7A
:101EE80078EF0FF07AEF0FF083EF0FF02B6C2C1ECA
:101EF800D8B02C2A2D1ED8B02D2A800E2E5632AEE0
:101F080088EF0FF08AEF0FF093EF0FF02F6C301E71
:101F1800D8B0302A311ED8B0312A800E3256000E81
:101F28002B1A000E2C1A000E2D1A800E2E1A000ED7
:101F38002F1A000E301A000E311A800E321A2F5046
:101F48002B5C30502C5831502D5832502E58D8B068
:101F5800B0EF0FF0B2EF0FF0B5EF0FF0D890B6EF8B
:101F68000FF0D8801200166E01018605D8B4BFEFB5
:101F78000FF0C1EF0FF0C5EF0FF01268136832EFE2
:101F880010F087B3CAEF0FF0CCEF0FF0CEEF0FF0E1
:101F9800C1EF0FF0080E8465D4EF0FF0D6EF0FF005
:101FA800DCEF0FF0000E136E010E126E32EF10F020
:101FB8004D2A4D50D8A4E3EF0FF0E5EF0FF0E6EF10
:101FC8000FF04D2A8451060D010EF324D96E010E2F
:101FD800F420DA6E000EDF6E8451060D020EF32433
:101FE800D96E010EF420DA6E16C0DFFF8451060D9B
:101FF800030EF324D96E010EF420DA6E12C0DEFF50
:1020080013C0DDFF8451060D050EF324D96E010EB1
:10201800F420DA6E14C0DFFF8451060D060EF32497
:10202800D96E010EF420DA6E15C0DFFF790E842513
:10203800D96EDA6A010EDA224DC0DFFF842B0B0E4F
:102048000019D8A42AEF10F02CEF10F02FEF10F0A1
:10205800000E006FC5804DC012F0136A1200000E0A
:1020680012141A6E000E13141B6E800E14141C6EBC
:102078007F0E15141D6E1A501B101C101D10D8A4AD
:1020880048EF10F04AEF10F052EF10F0000E126E09
:10209800000E136E000E146E000E156E000E161450
:1020A8001A6E000E17141B6E800E18141C6E7F0E0D
:1020B80019141D6E1A501B101C101D10D8A467EFA0
:1020C80010F069EF10F071EF10F0000E166E000EB0
:1020D800176E000E186E000E196E165012180FE1CA
:1020E800175013180CE11850141809E11950151855
:1020F800D8B481EF10F083EF10F086EF10F0D8908D
:1021080087EF10F0D880120001018551D8B48FEF05
:1021180010F091EF10F0D0EF10F03FC118F040C16F
:1021280019F04151166E176A14C0D9FF15C0DAFFAD
:1021380016C0DEFF17C0DDFF12C0D9FF13C0DAFFDB
:102148003EC1DFFF000E1A6EC0EF10F01A50060DE8
:10215800430EF324D96E010EF420DA6E1A50060DE0
:102168003D0EF324E16E010EF420E26E050EDBCF86
:10217800E3FFE806FCE21A2A85511A5CD8A0C7EFEB
:1021880010F0C9EF10F0AAEF10F0850718C012F090
:1021980019C013F0D4EF10F0000E126E000E136E7B
:1021A8001200156E01018605D8B4DDEF10F0DFEFDF
:1021B80010F0E3EF10F0126813680AEF11F0000E48
:1021C800166EFDEF10F0790E1624D96EDA6A010E3C
:1021D800DA221550DE18D8A4F4EF10F0F6EF10F05C
:1021E800FCEF10F0000E136E000E126E0AEF11F0E5
:1021F800162A8451165CD8A004EF11F006EF11F0EE
:10220800E7EF10F0000E136E010E126E12001E0E94
:10221800F66E230EF76E000EF86E00EEAAF010EEC2
:1022280005F00900F5CFEEFFE550E150FAE101EEC7
:1022380000F0880EEE6AE806FDE100EE95F0150E56
:10224800EE6AE806FDE100EE46F0080EEE6AE806E2
:10225800FDE14E904E92000EF86E000181EF0CF0F9
:10226800000E096E4EEF11F00950020D960EF32480
:10227800D96E000EF420DA6E02D84DEF11F0050089
:10228800FA6EDE50FD6EDE50FE6EF850FF6EFA50AC
:102298001200092A00019551095CD8A056EF11F0E7
:1022A80058EF11F038EF11F01200000E261A000E48
:1022B800271A000E281A800E291A22C012F023C0ED
:1022C80013F024C014F025C015F026C016F027C05E
:1022D80017F028C018F029C019F09AEC02F012C0C3
:1022E80022F013C023F014C024F015C025F012000A
:1022F80000019551020D960EF324D96E000EF420BC
:10230800DA6E12C0DEFF13C0DDFF952B1200000E3F
:0B2318000001956F1200101021101042
:020000040020DA
:08000000FFFFFFFFFFFFFFFF00
:020000040030CA
:0E000000FF32193CFFB585FF0FC00FE00F4027
:00000001FF
