:020000040000FA
:0400000029EF00F0F4
:100008005F82FACF78F0FBCF79F0E1CF7AF0E2CFD8
:100018007BF0D9CF7CF0DACF7DF0F3CF7EF0F4CF50
:100028007FF09BEC1CF07FC0F4FF7EC0F3FF7DC027
:10003800DAFF7CC0D9FF7BC0E2FF7AC0E1FF79C05C
:10004800FBFF78C0FAFF5F9211004BEF1CF09EB6E1
:1000580030EF00F032EF00F020EF03F09EA237EF10
:1000680000F039EF00F054EF03F00E0E01010B1908
:10007800D8B441EF00F043EF00F057EF00F00D0E59
:100088000B19D8B44AEF00F04CEF00F057EF00F02E
:100098000C0E0B19D8A453EF00F055EF00F054EFF5
:1000A80003F020EF03F020EF03F0000EDE6F000EE8
:1000B800DD6F01011251D8B464EF00F066EF00F073
:1000C8006FEF00F012C1D7F00001D86B0E0E0101DE
:1000D8000B6F77EF00F0000E0001D86F0A0ED76F94
:1000E8000C0E01010B6F0DC1C9FF53EF03F0C5BC26
:1000F80080EF00F082EF00F0E0EF00F0010E010168
:10010800116589EF00F08BEF00F0B7EF00F00EC13A
:1001180067F00FC168F067C0D9FF68C0DAFFDECFAB
:1001280069F0DDCF6AF00001DE516925D96E000E55
:100138006A21DA6EDF50C96EDE2B010111071251F8
:10014800D8B4A9EF00F0ABEF00F053EF03F0000EC6
:100158000001DD6F0E0E01010B6F12C1D7F0000117
:10016800D86B53EF03F00EC16BF00FC16CF06BC08E
:10017800D9FF6CC0DAFFDECF6DF0DDCF6EF0000185
:10018800DE516D25D96E000E6E21DA6EDF50C96E14
:10019800DE2B01011107020E0C19D8A4D6EF00F0CE
:1001A800D8EF00F0DCEF00F0090E0B6F53EF03F00F
:1001B800050E0B6F53EF03F0000EDD6F8C80C580CA
:1001C80001011251D8B4EBEF00F0EDEF00F0D8EFD9
:1001D80000F00D0E0B6FB1EF00F0C586070E0101A0
:1001E8000B6F53EF03F0FF0E606FFF0E616F01019D
:1001F80011510001626F636B605162276151632383
:10020800DE51646F656B6251645D6551800A666F8B
:100218006351800A6659D8B014EF01F016EF01F067
:1002280045EF01F0C59A0EC16FF00FC170F06FC0B5
:10023800D9FF70C0DAFFDECF71F0DDCF72F0DE518A
:100248007125D96E000E7221DA6EC9CFDFFFDE2B61
:1002580001011251D8B433EF01F035EF01F041EF4D
:1002680001F0000E0001DD6F0E0E01010B6F12C1CF
:10027800D7F00001D86B5EEF01F0060E0B6F5EEF52
:1002880001F0C58A0EC173F00FC174F073C0D9FFB5
:1002980074C0DAFFDECF75F0DDCF76F0DE5175255C
:1002A800D96E000E7621DA6EC9CFDFFFDE2B050E80
:1002B80001010B6FC58853EF03F0000EDD6FC58495
:1002C80001011251D8B46BEF01F06DEF01F0D8EFD6
:1002D80000F0EDEF00F00CC177F001010C05D8A497
:1002E80078EF01F07AEF01F009EF02F0090EAF653F
:1002F80080EF01F082EF01F0D4EF01F054C10CF06F
:1003080055C10DF0000E0E6E0AEC06F0000E00014D
:10031800DE6FB3EF01F0DE51070D590EF324D96EED
:10032800010EF420DA6EDE51070D520EF324E16E51
:10033800010EF420E26E060EDBCFE3FFE806FCE2D6
:10034800A40EDE25D96EDA6A010EDA22A30EDE25A6
:10035800E16EE26A010EE222DFCFE7FFDE2BFF0E3D
:10036800606FFF0E616F0101AF510001626F636B37
:100378006051622761516323DE51646F656B62517E
:10038800645D6551800A666F6351800A6659D8A01A
:10039800D0EF01F0D2EF01F08FEF01F00101AF07CC
:1003A800AF51070D530EF324D96E010EF420DA6E07
:1003B8000DC1DFFFAF51070D540EF324D96E010EA6
:1003C800F420DA6E0EC1DEFF0FC1DDFFAF51070D5D
:1003D800570EF324D96E010EF420DA6EDEC0DFFF6B
:1003E800AF51070D560EF324D96E010EF420DA6EC4
:1003F80010C1DFFFA30EAF25D96EDA6A010EDA222B
:1004080098C1DFFFAF2B11EF02F00EC10CF00FC146
:100418000DF0000E0E6E0AEC06F0000E0001DE6F05
:100428003AEF02F0DE51070D130EF324D96E010ED8
:10043800F420DA6EDE51070D0C0EF324E16E010E86
:10044800F420E26E060EDBCFE3FFE806FCE2990E2D
:10045800DE25D96EDA6A010EDA22980EDE25E16E03
:10046800E26A010EE222DFCFE7FFDE2B0101AE5187
:100478000001DE5DD8A043EF02F045EF02F016EF71
:1004880002F00101AE07AE51D8B44DEF02F04FEFC4
:1004980002F061EF02F0010E0B6F020E00017719F6
:1004A800D8A459EF02F05BEF02F05EEF02F0C582CC
:1004B80053EF03F0C58053EF03F0000E0B6F53EFBB
:1004C80003F09EA66AEF02F06CEF02F06EEF02F006
:1004D800010EDD6FD751D811D8A475EF02F077EF70
:1004E80002F0A1EF02F0DD51D8B47DEF02F07FEF0A
:1004F80002F0A1EF02F001010C51D8B486EF02F02E
:1005080088EF02F091EF02F0020E0C19D8A48FEFD9
:1005180002F091EF02F095EF02F0040E0B6F20EF5E
:1005280003F00C05D8A49BEF02F09DEF02F0A1EFB9
:1005380002F0060E0B6F20EF03F00001D751D8111F
:10054800D8A4A9EF02F0ABEF02F053EF03F0DD51AE
:10055800D8A4B1EF02F0B3EF02F053EF03F0C59067
:10056800C580010E01010B6F53EF03F09EA6BFEF8C
:1005780002F0C1EF02F0DFEF02F001010C51D8B434
:10058800C8EF02F0CAEF02F091EF02F0020E0C1968
:10059800D8A4D1EF02F0D3EF02F0D5EF02F091EF3B
:1005A80002F00C05D8A4DBEF02F0DDEF02F053EF08
:1005B80003F09DEF02F0D751D811D8A4E6EF02F06E
:1005C800E8EF02F053EF03F0C590C580B5EF02F0F5
:1005D8009EA6F1EF02F0F3EF02F0F5EF02F0010E44
:1005E800DD6FD751D811D8A4FCEF02F0FEEF02F06E
:1005F8000BEF03F0DD51D8B404EF03F006EF03F07E
:100608000BEF03F0090E01010B6F20EF03F0D75138
:10061800D811D8A412EF03F014EF03F053EF03F04E
:10062800DD51D8A41AEF03F01CEF03F053EF03F0E9
:10063800C590C580B5EF02F001010B510001606F54
:10064800616B6151000AD8B42CEF03F053EF03F04B
:100658006051010AD8B459EF00F0050AD8B47BEF0D
:1006680000F0010AD8B461EF01F0030AD8B4F1EF41
:1006780000F0010AD8B4F7EF00F00E0AD8B46FEF13
:1006880001F0050AD8B4BAEF02F0010AD8B4ECEFC9
:1006980002F0030AD8B465EF02F053EF03F09E9618
:1006A8009EA259EF03F05BEF03F07BEF03F000012C
:1006B800D751D811D8B463EF03F065EF03F068EFB2
:1006C80003F0D707D8A0D807D951DA11D8B46FEFFB
:1006D80003F071EF03F076EF03F0D907D8A0DA073B
:1006E8007AEF03F0270EDA6F100ED96F9E92120080
:1006F8008BC0D9FF8CC0DAFFDE50DE10D8B487EF8C
:1007080003F089EF03F009EF06F0B40E0001806FE3
:10071800010E816F8D51410D7A0EF324826F020E06
:10072800F420836F000E856F400E846F22EC1CF05E
:10073800000E0101F66F000EF76F00018D513D0D9F
:10074800000E8E6F020E8F6FF3508E27F4508F239A
:100758000101F751060DF35000018E27F4508F2345
:100768008E518B1907E18F518C19D8A4BEEF03F075
:10077800C0EF03F0C4EF03F0F7C1F6F1CEEF03F0DA
:100788000101F72B090EF765CCEF03F0CEEF03F06C
:10079800A1EF03F0000E0101F76FF751060DF3CF3B
:1007A8008EF0F4CF8FF000018D513D0D000E906F4B
:1007B800020E916F050E9027000E9123F35090279B
:1007C800F45091238E519025D96E8F519121DA6E74
:1007D8000101F651060DF3CF93F0F4CF94F0000128
:1007E8008D513D0D000E956F020E966F050E9527E3
:1007F800000E9623F3509527F45096239351952590
:10080800E16E94519621E26EDE50E65CD8B00FEFAF
:1008180004F011EF04F0BCEF04F00101F751060DEC
:10082800F3CF8EF0F4CF8FF000018D513D0D000E07
:10083800906F020E916F030E9027000E9123F350D4
:100848009027F45091238E519025D96E8F51912184
:10085800DA6EDE04D8A433EF04F035EF04F0BCEF11
:1008680004F00101F651060DF3CF8EF0F4CF8FF0AE
:1008780000018D513D0D000E906F020E916F050E17
:100888009027000E9123F3509027F45091238E5116
:100898009025D96E8F519121DA6EDF50926F936B4C
:1008A800B40E92250101F46F010E0001932101019C
:1008B800F56FF4C180F0F5C181F0F751060DF3CF63
:1008C8008EF0F4CF8FF000018D513D0D000E906F2A
:1008D800020E916FF3509027F45091238E5190257A
:1008E800D96E8F519121DA6EDECF82F0DDCF83F0A1
:1008F800400E926F000E936F0101F751060DF3CF72
:1009080094F0F4CF95F000018D513D0D000E966FD7
:10091800020E976F050E9627000E9723F350962721
:10092800F450972394519625D96E95519721DA6EF4
:10093800DF50986F9851925D846F9351D8A09305BA
:10094800856F22EC1CF000018D51410D7A0EF324C5
:10095800806F020EF420816FB40E826F010E836FD8
:10096800000E856F400E846F22EC1CF0C6EF04F079
:100978000101F72B090EF765C4EF04F0C6EF04F088
:10098800D1EF03F0000E0101F76FF751060DF3CF19
:100998008EF0F4CF8FF000018D513D0D000E906F59
:1009A800020E916F050E9027000E9123F3509027A9
:1009B800F45091238E519025D96E8F519121DA6E82
:1009C8000101F651060DF3CF93F0F4CF94F0000136
:1009D8008D513D0D000E956F020E966F050E9527F1
:1009E800000E9623F3509527F4509623935195259E
:1009F800E16E94519621E26EDE50E65CD8B007EFC6
:100A080005F009EF05F0B1EF05F00101F751060D0A
:100A1800F3CF8EF0F4CF8FF000018D513D0D000E15
:100A2800906F020E916F030E9027000E9123F350E2
:100A38009027F45091238E519025D96E8F51912192
:100A4800DA6EDE04D8A42BEF05F02DEF05F0B1EF38
:100A580005F00101F651060DF3CF8EF0F4CF8FF0BB
:100A680000018D513D0D000E906F020E916F020E28
:100A78009027000E9123F3509027F45091238E5124
:100A88009025D96E8F519121DA6EDF50926F010156
:100A9800F751060DF3CF93F0F4CF94F000018D5188
:100AA8003D0D000E956F020E966F050E9527000EF0
:100AB8009623F3509527F450962393519525D96E94
:100AC80094519621DA6E9251DF5E8D51410D7A0E66
:100AD8008E6F020E8F6FF3508E27F4508F23010113
:100AE800F751060DF3CF90F0F4CF91F000018D513E
:100AF8003D0D000E926F020E936F050E9227000EA9
:100B08009323F3509227F450932390519225D96E52
:100B180091519321DA6EDF50946F94518E27000E15
:100B28008F230101F751060DF3CF95F0F4CF96F01E
:100B380000018D513D0D000E976F020E986FF35016
:100B48009727F450982395519725D96E9651982157
:100B5800DA6E8EC0DEFF8FC0DDFF0101F72B090EB4
:100B6800F765B9EF05F0BBEF05F0C9EF04F0F651F2
:100B7800060DF3CF8EF0F4CF8FF000018D513D0DAF
:100B8800000E906F020E916F030E9027000E9123B6
:100B9800F3509027F45091238E519025D96E8F51A0
:100BA8009121DA6E000EDF6E8D513D0D3C0EF3245F
:100BB800D96E020EF420DA6EDF060101F651060D39
:100BC800F3CF8EF0F4CF8FF000018D513D0D000E64
:100BD800906F020E916F020E9027000E9123F35032
:100BE8009027F45091238E519025D96E8F519121E1
:100BF800DA6EDF50926F8D51410DBA0EF324D96E23
:100C0800020EF420DA6E9251DF5E12000CC0D9FF9A
:100C18000DC0DAFFDE50DE10D8B415EF06F017EF7E
:100C280006F06FEF08F01A0E016E000E026E0E50FD
:100C3800410D7A0EF324036E020EF420046E000EAA
:100C4800066E400E056E73EC1CF0000E5C6E000E16
:100C58005D6E0E503D0D000E0F6E020E106EF350BD
:100C68000F26F45010225D50060DF3500F26F45055
:100C780010220F500C1807E110500D18D8A447EF98
:100C880006F049EF06F04DEF06F05DC05CF056EF58
:100C980006F05D2A090E5D6454EF06F056EF06F083
:100CA8002DEF06F0000E5D6E5D50060DF3CF0FF0D0
:100CB800F4CF10F00E503D0D000E116E020E126EA4
:100CC800050E1126000E1222F3501126F45012229E
:100CD8000F501124D96E10501220DA6E5C50060D98
:100CE800F3CF14F0F4CF15F00E503D0D000E166E34
:100CF800020E176E050E1626000E1722F350162642
:100D0800F450172214501624E16E15501720E26E85
:100D1800DE50E65CD8B093EF06F095EF06F035EFBD
:100D280007F05D50060DF3CF0FF0F4CF10F00E5022
:100D38003D0D000E116E020E126E030E1126000EEE
:100D48001222F3501126F45012220F501124D96E9A
:100D580010501220DA6EDE04D8A4B5EF06F0B7EF13
:100D680006F035EF07F05C50060DF3CF0FF0F4CF27
:100D780010F00E503D0D000E116E020E126E050E93
:100D88001126000E1222F3501126F45012220F5091
:100D98001124D96E10501220DA6EDF50136E146AC7
:100DA8001A0E13245A6E000E14205B6E5AC001F0FE
:100DB8005BC002F05D50060DF3CF0FF0F4CF10F0DA
:100DC8000E503D0D000E116E020E126EF3501126DC
:100DD800F45012220F501124D96E10501220DA6EDE
:100DE800DECF03F0DDCF04F0400E136E000E146E5C
:100DF8005D50060DF3CF15F0F4CF16F00E503D0DF3
:100E0800000E176E020E186E050E1726000E182219
:100E1800F3501726F450182215501724D96E16507F
:100E28001820DA6EDF50196E1950135C056E1450D5
:100E3800D8A01404066E73EC1CF00E50410D7A0E07
:100E4800F324016E020EF420026E1A0E036E000ED9
:100E5800046E000E066E400E056E73EC1CF03EEF3D
:100E680007F05D2A090E5D643CEF07F03EEF07F0DE
:100E780058EF06F0000E5D6E5D50060DF3CF0FF0D3
:100E8800F4CF10F00E503D0D000E116E020E126ED2
:100E9800050E1126000E1222F3501126F4501222CC
:100EA8000F501124D96E10501220DA6E5C50060DC6
:100EB800F3CF14F0F4CF15F00E503D0D000E166E62
:100EC800020E176E050E1626000E1722F350162670
:100ED800F450172214501624E16E15501720E26EB4
:100EE800DE50E65CD8B07BEF07F07DEF07F01BEF34
:100EF80008F05D50060DF3CF0FF0F4CF10F00E5050
:100F08003D0D000E116E020E126E030E1126000E1C
:100F18001222F3501126F45012220F501124D96EC8
:100F280010501220DA6EDE04D8A49DEF07F09FEF70
:100F380007F01BEF08F05C50060DF3CF0FF0F4CF6D
:100F480010F00E503D0D000E116E020E126E020EC4
:100F58001126000E1222F3501126F45012220F50BF
:100F68001124D96E10501220DA6EDF50136E5D50C6
:100F7800060DF3CF14F0F4CF15F00E503D0D000E12
:100F8800166E020E176E050E1626000E1722F35067
:100F98001626F450172214501624D96E155017200F
:100FA800DA6E1350DF5E0E50410D7A0E0F6E020E90
:100FB800106EF3500F26F45010225D50060DF3CF3B
:100FC80011F0F4CF12F00E503D0D000E136E020E0C
:100FD800146E050E1326000E1422F3501326F45037
:100FE800142211501324D96E12501420DA6EDF50D7
:100FF800156E15500F26000E10225D50060DF3CF0A
:1010080016F0F4CF17F00E503D0D000E186E020EBC
:10101800196EF3501826F450192216501824D96E58
:1010280017501920DA6E0FC0DEFF10C0DDFF5D2AF1
:10103800090E5D6422EF08F024EF08F040EF07F096
:101048005C50060DF3CF0FF0F4CF10F00E503D0DAD
:10105800000E116E020E126E030E1126000E1222E1
:10106800F3501126F45012220F501124D96E10504B
:101078001220DA6E000EDF6E0E503D0D3C0EF3248A
:10108800D96E020EF420DA6EDF065C50060DF3CF3F
:101098000FF0F4CF10F00E503D0D000E116E020E41
:1010A800126E020E1126000E1222F3501126F45071
:1010B80012220F501124D96E10501220DA6EDF5010
:1010C800136E0E50410DBA0EF324D96E020EF420A1
:1010D800DA6E1350DF5E120000018351800B8C6FB3
:1010E800835183258E6F82AF7CEF08F07EEF08F086
:1010F8007FEF08F08E818E51D8B485EF08F087EF26
:1011080008F09CEF08F08E29D8A48DEF08F08FEF37
:1011180008F097EF08F0000E806F000E816F000E48
:10112800826F000E836F828F000E836FA4EF08F02A
:10113800000E806F000E816F000E826F000E836FAD
:101148008751800B8D6F8C518D19D8B4AEEF08F094
:10115800B0EF08F0B1EF08F08C8D875187258D6FBF
:1011680086AFB9EF08F0BBEF08F0BCEF08F08D814F
:101178008D51D8B4C2EF08F0C4EF08F0D9EF08F0E9
:101188008D29D8A4CAEF08F0CCEF08F0D4EF08F006
:10119800000E846F000E856F000E866F000E876F3D
:1011A800868F000E876FE1EF08F0000E846F000E47
:1011B800856F000E866F000E876F8E518D5DD8B0DB
:1011C800E8EF08F0EAEF08F011EF09F08CADEFEF67
:1011D80008F0F1EF08F0F3EF08F0800E8C1B8EC0DA
:1011E8008FF08DC08EF08FC08DF080C08FF084C0DE
:1011F80080F08FC084F081C08FF085C081F08FC0EF
:1012080085F082C08FF086C082F08FC086F083C0E0
:101218008FF087C083F08FC087F0000E8F6F8E51DC
:101228008DC088F0896B885F000E895B89BF26EFC7
:1012380009F0895109E11A0E885DD8A026EF09F056
:1012480028EF09F05FEF09F08051811182118311B5
:10125800D8A431EF09F034EF09F0010E35EF09F0A9
:10126800000E8F6F000E806F000E816F000E826F70
:10127800000E836F8DC08EF068EF09F08FA147EFE5
:1012880009F049EF09F04FEF09F0D8908F310109C3
:101298008F6F51EF09F0D8908F3380A156EF09F086
:1012A80058EF09F059EF09F08F8F83358333823374
:1012B800813380338E2B8D518E5DD8A066EF09F077
:1012C80068EF09F042EF09F08CBD6DEF09F06FEFA0
:1012D80009F0AFEF09F08E51D8A475EF09F077EF58
:1012E80009F081EF09F0000E806F000E816F000E8B
:1012F800826F000E836FD0EF0AF0845180278551EA
:101308008123865182238751832383A18EEF09F09D
:1013180090EF09F03CEF0AF08FA195EF09F097EFF5
:1013280009F09DEF09F0D8908F3101098F6F9FEF79
:1013380009F0D8908F3380A1A4EF09F0A6EF09F047
:10134800A7EF09F08F8F833583338233813380335E
:101358008E2B3CEF0AF08451805D8551815986516E
:1013680082598351800A886F8751800A8859D8B07A
:10137800C0EF09F0C2EF09F0EDEF09F08051845D8C
:10138800886F81518559896F825186598A6F835137
:1013980087598B6FFF0E8825806FFF0E8921816F1B
:1013A800FF0E8A21826FFF0E8B21836F800E8C1BAC
:1013B8008F6D8F51D8A4E3EF09F0E5EF09F0F5EF51
:1013C80009F0010E8027000E812382238323F5EF85
:1013D80009F08451805F8551815B8651825B87511A
:1013E800835B8051811182118311D8A4FEEF09F02B
:1013F80000EF0AF035EF0AF08F51D8A406EF0AF093
:1014080008EF0AF035EF0AF0000E806F000E816FCA
:10141800000E826F000E836FD0EF0AF0D8908037ED
:101428008137823783378FAF1CEF0AF01EEF0AF03F
:101438001FEF0AF080818FA124EF0AF026EF0AF04F
:101448002AEF0AF0D8808F372CEF0AF0D8908F3720
:101458008E51D8B432EF0AF034EF0AF035EF0AF0C3
:101468008E0782AF3AEF0AF03CEF0AF012EF0AF06B
:10147800000E8D6F8FAF43EF0AF045EF0AF05DEF76
:101488000AF08FC088F07F0E8817D8B44EEF0AF0A4
:1014980050EF0AF054EF0AF0010E8D6F5DEF0AF07D
:1014A80080A159EF0AF05BEF0AF05DEF0AF050EF08
:1014B8000AF08D51D8B463EF0AF065EF0AF090EFA7
:1014C8000AF0010E8027000E81238223832383A143
:1014D80070EF0AF072EF0AF090EF0AF080C088F01F
:1014E80081C089F082C08AF083C08BF08B358B3342
:1014F8008A338933883388C080F089C081F08AC0F4
:1015080082F08BC083F08E29D8B48DEF0AF08FEF6C
:101518000AF090EF0AF08E2B8E29D8B496EF0AF0D5
:1015280098EF0AF0A0EF0AF08E51D8A49EEF0AF0C7
:10153800A0EF0AF0B2EF0AF0000E806F000E816F84
:10154800000E826F000E836F8E51D8A4AEEF0AF0A2
:10155800B0EF0AF0B2EF0AF0000E8C6F8EA1B7EF71
:101568000AF0B9EF0AF0BCEF0AF0828FBDEF0AF07B
:10157800829FD8908E31836F8CAFC5EF0AF0C7EF8A
:101588000AF0C8EF0AF0838F80C080F081C081F034
:1015980082C082F083C083F0120000018351800B67
:1015A8008C6F83518325926F82AFDDEF0AF0DFEFF6
:1015B8000AF0E0EF0AF092819251D8B4E6EF0AF00F
:1015C800E8EF0AF0FBEF0AF09229D8A4EEEF0AF050
:1015D800F0EF0AF0F8EF0AF0000E806F000E816F4E
:1015E800000E826F000E836F828F03EF0BF0000EE8
:1015F800806F000E816F000E826F000E836F87511F
:10160800800B8C1B875187258D6F86AF0EEF0BF0F3
:1016180010EF0BF011EF0BF08D818D51D8B417EF4F
:101628000BF019EF0BF02CEF0BF08D29D8A41FEF5E
:101638000BF021EF0BF029EF0BF0000E846F000E7A
:10164800856F000E866F000E876F868F34EF0BF064
:10165800000E846F000E856F000E866F000E876F78
:101668008D51D8B43AEF0BF03CEF0BF044EF0BF090
:101678009251D8A442EF0BF044EF0BF04EEF0BF071
:10168800000E806F000E816F000E826F000E836F58
:10169800E6EF0CF086518003F3CF97F0F4CF98F083
:1016A80097518E6F8F6B906B916B9851936F946B72
:1016B800956B966B85518103F3CF97F0F4CF98F033
:1016C80097518E27000E8F239023912398519327AB
:1016D800000E94239523962384518203F3CF97F029
:1016E800F4CF98F097518E27000E8F2390239123E3
:1016F80098519327000E94239523962390C091F038
:101708008FC090F08EC08FF08E6B84518103F3CF21
:1017180097F0F4CF98F097518E2798518F23000EA9
:101728009023000E912385518003F3CF97F0F4CFD7
:1017380098F097518E2798518F23000E9023000E12
:10174800912390C091F08FC090F08EC08FF08E6B77
:1017580084518003F3CF97F0F4CF98F097518E27F8
:1017680098518F23000E9023000E912386518103F8
:10177800F3CF97F0F4CF98F097519327985194238B
:10178800000E9523000E962385518203F3CF97F020
:10179800F4CF98F09751932798519423000E9523EE
:1017A800000E962386518203F3CF97F0F4CF98F07A
:1017B8009751886F9851896F8A6B8B6B8AC08BF0B1
:1017C80089C08AF088C089F0886B8851932789512D
:1017D80094238A5195238B5196238EC088F08FC00D
:1017E80089F090C08AF091C08BF0190E01EF0CF0CF
:1017F800D8908B338A3389338833E82EFCEF0BF08B
:1018080088519327895194238A5195238B51962384
:1018180090C091F08FC090F08EC08FF08E6B8D517C
:1018280092C088F0896B8827000E8923820E88254C
:10183800976FFF0E8921986F37EF0CF0D890933788
:1018480094379537963791AF2CEF0CF02EEF0CF0BC
:101858002FEF0CF09381D8908E378F3790379137D0
:101868009707D8A0980795AF3CEF0CF03EEF0CF027
:1018780022EF0CF0000E8D6F91AF45EF0CF047EFA3
:101888000CF06BEF0CF0FF0E8E15886FFF0E8F15A6
:10189800896FFF0E90158A6F7F0E91158B6F885197
:1018A80089118A118B11D8B45CEF0CF05EEF0CF043
:1018B80062EF0CF0010E8D6F6BEF0CF093A167EFE8
:1018C8000CF069EF0CF06BEF0CF05EEF0CF08D5143
:1018D800D8B471EF0CF073EF0CF097EF0CF0010E29
:1018E8009327000E94239523962396A17EEF0CF060
:1018F80080EF0CF097EF0CF093C088F094C089F05B
:1019080095C08AF096C08BF08B358B338A33893338
:10191800883388C093F089C094F08AC095F08BC052
:1019280096F0974B982B98BFA2EF0CF0985108E1CE
:101938009729D8A0A2EF0CF0A4EF0CF0AEEF0CF0B2
:10194800000E936F000E946F800E956F7F0E966F4A
:10195800DCEF0CF098BFBBEF0CF0985106E197054F
:10196800D8B0B9EF0CF0BBEF0CF0C7EF0CF0000EDD
:10197800936F000E946F000E956F000E966F000E19
:101988008C6FDCEF0CF097C092F0FF0E9317FF0EF0
:1019980094177F0E9517000E961792A1D6EF0CF0AC
:1019A800D8EF0CF0D9EF0CF0958FD8909231966F54
:1019B8008C51961393C080F094C081F095C082F04A
:1019C80096C083F01200800E00018E6F960E8F6F06
:1019D800980E906F4B0E916FADC080F0AEC081F045
:1019E800826B836B000E75EC16F080C092F081C09C
:1019F80093F082C094F083C095F0C0EC0EF08EC0D6
:101A0800BCF18FC0BDF190C0BEF191C0BFF1000E16
:101A18000001996F000E9A6F800E9B6F430E9C6FAA
:101A2800A7C084F0A8C085F0A9C086F0AAC087F036
:101A3800BCC180F0BDC181F0BEC182F0BFC183F0DE
:101A4800D1EC0AF080C09DF081C09EF082C09FF06A
:101A580083C0A0F04DEC1AF00001D8A036EF0DF0CD
:101A680038EF0DF0BFEF0EF0BCC180F0BDC181F0C2
:101A7800BEC182F0BFC183F0A7C084F0A8C085F0C2
:101A8800A9C086F0AAC087F0D1EC0AF080C0C4F1E2
:101A980081C0C5F182C0C6F183C0C7F1C4C180F05E
:101AA800C5C181F0C6C182F0C7C183F0C9EC19F085
:101AB80080C0C8F181C0C9F1C4C199F0C5C19AF00C
:101AC800C6C19BF0C7C19CF0C8C180F0C9C181F0F4
:101AD8000001826B836B000E75EC16F080C09DF0E0
:101AE80081C09EF082C09FF083C0A0F04DEC1AF038
:101AF8000001D8A082EF0DF084EF0DF0A9EF0DF0F2
:101B0800C4C190F0C5C191F0C6C192F0C7C193F0AD
:101B1800C8C180F0C9C181F0826B836B000E75EC7F
:101B280016F080C094F081C095F082C096F083C012
:101B380097F0C0EC1CF090C0B4F191C0B5F192C020
:101B4800B6F193C0B7F1CCEF0DF0C8C180F0C9C1B0
:101B580081F0826B836B000E75EC16F080C090F0FC
:101B680081C091F082C092F083C093F0C4C194F018
:101B7800C5C195F0C6C196F0C7C197F0C0EC1CF07E
:101B880090C0B4F191C0B5F192C0B6F193C0B7F16D
:101B9800B4C1C0F1B5C1C1F1B6C1C2F1B7C1C3F199
:101BA800C0C199F0C1C19AF0C2C19BF0C3C19CF0F9
:101BB800B1C0D9FFB2C0DAFFDECF9DF0DECF9EF014
:101BC800DECF9FF0DECFA0F04DEC1AF00001D8B0C8
:101BD800F0EF0DF0F2EF0DF00EEF0EF0ABC0D9FF05
:101BE800ACC0DAFFC8C1DEFFC9C1DDFFAFC0D9FF95
:101BF800B0C0DAFFADC0DEFFAEC0DDFFB1C0D9FFB7
:101C0800B2C0DAFFC0C1DEFFC1C1DEFFC2C1DEFF64
:101C1800C3C1DEFF0101C84BC92BC4C199F0C5C1BE
:101C28009AF0C6C19BF0C7C19CF0C8C180F0C9C179
:101C380081F00001826B836B000E75EC16F080C09A
:101C48009DF081C09EF082C09FF083C0A0F04DEC53
:101C58001AF00001D8A033EF0EF035EF0EF05AEF6E
:101C68000EF0C4C190F0C5C191F0C6C192F0C7C1D1
:101C780093F0C8C180F0C9C181F0826B836B000EFC
:101C880075EC16F080C094F081C095F082C096F093
:101C980083C097F0C0EC1CF090C0B8F191C0B9F1C6
:101CA80092C0BAF193C0BBF17DEF0EF0C8C180F0CD
:101CB800C9C181F0826B836B000E75EC16F080C091
:101CC80090F081C091F082C092F083C093F0C4C1BB
:101CD80094F0C5C195F0C6C196F0C7C197F0C0ECA5
:101CE8001CF090C0B8F191C0B9F192C0BAF193C09C
:101CF800BBF1B8C1C0F1B9C1C1F1BAC1C2F1BBC130
:101D0800C3F1C0C199F0C1C19AF0C2C19BF0C3C16F
:101D18009CF0B1C0D9FFB2C0DAFFDECF9DF0DECFB4
:101D28009EF0DECF9FF0DECFA0F04DEC1AF0000160
:101D3800D8B0A1EF0EF0A3EF0EF0BFEF0EF0ABC0DE
:101D4800D9FFACC0DAFFC8C1DEFFC9C1DDFFAFC033
:101D5800D9FFB0C0DAFFADC0DEFFAEC0DDFFB1C055
:101D6800D9FFB2C0DAFFC0C1DEFFC1C1DEFFC2C108
:101D7800DEFFC3C1DEFF120000019151800B9E6F90
:101D880091519125A56F90AFCCEF0EF0CEEF0EF0EC
:101D9800CFEF0EF0A581A551D8B4D5EF0EF0D7EF4F
:101DA8000EF0ECEF0EF0A529D8A4DDEF0EF0DFEF72
:101DB8000EF0E7EF0EF0000E8E6F000E8F6F000E24
:101DC800906F000E916F908F000E916FF4EF0EF0F0
:101DD800000E8E6F000E8F6F000E906F000E916FC9
:101DE8009551800B9E1B95519525A66F94AFFFEFDB
:101DF8000EF001EF0FF002EF0FF0A681A651D8B454
:101E080008EF0FF00AEF0FF01FEF0FF0A629D8A484
:101E180010EF0FF012EF0FF01AEF0FF0000E926FA5
:101E2800000E936F000E946F000E956F948F000E46
:101E3800956F27EF0FF0000E926F000E936F000E54
:101E4800946F000E956F9251931194119511D8A427
:101E580030EF0FF032EF0FF04AEF0FF0000E8E6FF9
:101E6800000E8F6F000E906F000E916F800E901312
:101E78007F0E91139E5191138EC08EF08FC08FF0FC
:101E880090C090F091C091F08DEF10F0A551D8A4BA
:101E980050EF0FF052EF0FF05CEF0FF0000E8E6F67
:101EA800000E8F6F000E906F000E916F8DEF10F087
:101EB800A651A5C096F0976B965F000E975B7F0EB4
:101EC80096259F6F000E9721A06F8EC09AF08FC045
:101ED8009BF090C09CF091C09DF0000E8E6F000E9C
:101EE8008F6F000E906F000E916F000EA16F000EA5
:101EF800A26F000EA36F000EA46F000EA66FBDEFB9
:101F08000FF0A651D8B48BEF0FF08DEF0FF0A4EFC0
:101F18000FF0D8909A379B379C379D37D8908E37DB
:101F28008F3790379137A4AF9CEF0FF09EEF0FF0EB
:101F38009FEF0FF08E81D890A137A237A337A4372F
:101F480092519A5D93519B5994519C5995519D5921
:101F5800D8A0B1EF0FF0B3EF0FF0BCEF0FF0A48DE6
:101F680092519A5F93519B5B94519C5B95519D5BF9
:101F7800A62B190EA665C3EF0FF0C5EF0FF085EF7E
:101F88000FF09A519B119C119D11D8B4CEEF0FF010
:101F9800D0EF0FF0E8EF0FF0A181E8EF0FF0D89045
:101FA8008E378F3790379137A4AFDDEF0FF0DFEF23
:101FB8000FF0E0EF0FF08E81D890A137A237A3374A
:101FC800A4379F07D8A0A00790AFEDEF0FF0EFEF71
:101FD8000FF0D3EF0FF0000EA66FA4AFF6EF0FF0DF
:101FE800F8EF0FF01CEF10F0FF0EA115966FFF0E23
:101FF800A215976FFF0EA315986F7F0EA415996F02
:102008009651971198119911D8B40DEF10F00FEF60
:1020180010F013EF10F0010EA66F1CEF10F08EA158
:1020280018EF10F01AEF10F01CEF10F00FEF10F08F
:10203800A651D8B422EF10F024EF10F048EF10F0BA
:10204800010E8E27000E8F239023912391A12FEF4D
:1020580010F031EF10F048EF10F08EC096F08FC0FE
:1020680097F090C098F091C099F0993599339833CA
:102078009733963396C08EF097C08FF098C090F043
:1020880099C091F09F4BA02BA0BF53EF10F0A05127
:1020980008E19F29D8A053EF10F055EF10F060EF3A
:1020A80010F0000EA06F9F69000E8E6F000E8F6FEC
:1020B800000E906F000E916FA0BF6DEF10F0A05151
:1020C80006E19F05D8B06BEF10F06DEF10F07BEFD5
:1020D80010F0000EA06F000E9F6F000E8E6F000EA6
:1020E8008F6F000E906F000E916F000E9E6F9FC055
:1020F800A5F0A5A182EF10F084EF10F087EF10F0A3
:10210800908F88EF10F0909FD890A531916F3EEF97
:102118000FF0120000019F6F000E00019D6F000E6E
:102128009E6F0101B005D8B49CEF10F09EEF10F03F
:10213800A3EF10F0000194699569D4EF11F0B1A1F3
:10214800A8EF10F0AAEF10F0ACEF10F09EEF10F02F
:10215800070EAE65B2EF10F0B4EF10F0BBEF10F061
:10216800FF0E0001956FFE0E946FD4EF11F0000181
:10217800DF2BDF51D8A4C3EF10F0C5EF10F0C6EF86
:1021880010F0DF2B000E866F9651010DF350D5EC41
:1021980011F086C0A0F087C0A1F0A0C080F0A1C057
:1021A80081F0000E0001826FB1EC18F00101AE5110
:1021B800070D100EF324D96E010EF420DA6E00011B
:1021C80080C0DFFFA0C0D9FFA1C0DAFFDE50DE105B
:1021D800D8A4F1EF10F0F3EF10F0F5EF10F09EEF48
:1021E80010F0A0C0D9FFA1C0DAFFDECF80F0DDCFAC
:1021F80081F094C082F095C083F09651010DF3CF21
:1022080084F0F4CF85F022EC1CF00101AE51070DEB
:102218000E0EF324D96E010EF420DA6EA0C0DEFF94
:10222800A1C0DDFF000E0001866F9751010DF3502C
:10223800D5EC11F086C0A0F087C0A1F0A0C0D9FFEE
:10224800A1C0DAFFDE50DE10D8A42DEF11F02FEF79
:1022580011F031EF11F09EEF10F00101AE51070DB2
:10226800150EF324D96E010EF420DA6EA0C0DEFF3D
:10227800A1C0DDFFA0C080F0A1C081F0000E000168
:10228800826FB1EC18F00101AE51070D170EF3245F
:10229800D96E010EF420DA6E000180C0DFFF010163
:1022A800AE51070D0C0EF324D96E010EF420DA6E30
:1022B800020EDF6EAE51070D0D0EF324D96E010E1E
:1022C800F420DA6E9FC0DFFFAE51070D110EF32424
:1022D800D96E010EF420DA6E96C0DFFFAE51070DFD
:1022E800120EF324D96E010EF420DA6E98C0DFFFC7
:1022F800980EAE25D96EDA6A010EDA22DFC0DFFF4A
:102308000001DF2BDF51D8A48CEF11F08EEF11F014
:102318008FEF11F0DF2B0101AE2BAE51070D0C0E24
:10232800F324D96E010EF420DA6E010EDF6EAE5181
:10233800070D0D0EF324D96E010EF420DA6E00019C
:102348009F510109DF6E0101AE51070D110EF324F3
:10235800D96E010EF420DA6E97C0DFFFAE51070D7B
:10236800120EF324D96E010EF420DA6E98C0DFFF46
:10237800980EAE25D96EDA6A010EDA22DFC0DFFFC9
:10238800AE2B0B51D8A4CBEF11F0CDEF11F0D0EF5D
:1023980011F0010E0B6FC580DFC094F00001956B42
:1023A80012000001906F000186513D0D3C0EF32490
:1023B800D96E020EF420DA6E090EDF64E6EF11F032
:1023C800E8EF11F0F2EF11F0B20E916F010E926F7B
:1023D80091C086F092C087F012EF13F086C080F0AB
:1023E800905126EC1BF080C08EF081C08FF0000168
:1023F8008E518F11D8A403EF12F005EF12F007EFFA
:1024080012F0E8EF11F0D50E8625D96EDA6A000EC3
:10241800DA22DF2AD50E8625D96EDA6A000EDA228C
:10242800DF50D8A41AEF12F01CEF12F023EF12F0CD
:10243800D50E8625D96EDA6A000EDA22DF2A000E5A
:10244800936F9351060DF3CF88F0F4CF89F086513E
:102458003D0D000E8A6F020E8B6F030E8A27000E49
:102468008B23F3508A27F4508B2388518A25D96E01
:1024780089518B21DA6EDF50D8A445EF12F047EF6F
:1024880012F0E6EF12F09351060DF3CF88F0F4CF77
:1024980089F086513D0D000E8A6F020E8B6FF35046
:1024A8008A27F4508B2388518A25D96E89518B212C
:1024B800DA6E8EC0DEFF8FC0DDFF9351060DF3CFBD
:1024C80088F0F4CF89F086513D0D000E8A6F020E18
:1024D8008B6F020E8A27000E8B23F3508A27F45045
:1024E8008B2388518A25D96E89518B21DA6E90C049
:1024F800DFFF9351060DF3CF88F0F4CF89F08651B2
:102508003D0D000E8A6F020E8B6F030E8A27000E98
:102518008B23F3508A27F4508B2388518A25D96E50
:1025280089518B21DA6E010EDF6ED50E8625D96EA4
:10253800DA6A000EDA229351060DF3CF88F0F4CF51
:1025480089F086513D0D000E8A6F020E8B6F040EC6
:102558008A27000E8B23F3508A27F4508B23885147
:102568008A25E16E89518B21E26EDFCFE7FF935117
:10257800060DF3CF88F0F4CF89F086513D0D000E9B
:102588008A6F020E8B6F050E8A27000E8B23F3507D
:102598008A27F4508B2388518A25D96E89518B213B
:1025A800DA6E8651410DBA0EF324E16E020EF42064
:1025B800E26EE7508C6F90518C5DDF6E93C08DF0AA
:1025C800EFEF12F0932B090E9365EDEF12F0EFEF9A
:1025D80012F025EF12F086513D0D3C0EF324D96E12
:1025E800020EF420DA6EDF2A8D51060DF3CF88F043
:1025F800F4CF89F086513D0D000E8A6F020E8B6F65
:10260800F3508A27F4508B2388518A25916F89517A
:102618008B21926F91C086F092C087F01200000162
:102628009C6F0101B005D8B41CEF13F01EEF13F036
:1026380023EF13F000019469956945EF14F0B1A1F7
:1026480028EF13F02AEF13F02CEF13F01EEF13F01E
:10265800B1B531EF13F033EF13F09BEF13F09CC0DB
:1026680080F00001816B02EC1DF000019751D8B495
:1026780040EF13F042EF13F04EEF13F097C0D7F08E
:10268800D86BD751D811D8A44CEF13F04EEF13F0F4
:1026980045EF13F0000E9D6F75EF13F09D519425D3
:1026A800D96E000E9521DA6EDF50986F9851806FC1
:1026B800816BE4EC1CF000019751D8B466EF13F07D
:1026C80068EF13F074EF13F097C0D7F0D86BD751B9
:1026D800D811D8A472EF13F074EF13F06BEF13F066
:1026E8009D2B96519D5DD8A07CEF13F07EEF13F0E3
:1026F80052EF13F032EC1DF000019751D8B487EF78
:1027080013F089EF13F095EF13F097C0D7F0D86B5B
:10271800D751D811D8A493EF13F095EF13F08CEF9D
:1027280013F0000E956F000E946F45EF14F0080E2D
:10273800AE65A1EF13F0A3EF13F0AAEF13F0FF0EAD
:102748000001956FFE0E946F45EF14F00001DF2B2A
:10275800DF51D8A4B2EF13F0B4EF13F0B5EF13F0D4
:10276800DF2B000E866F9651010DF350D5EC11F05A
:1027780086C09EF087C09FF09EC080F09FC081F009
:10278800000E0001826FB1EC18F00101AE51070D87
:10279800100EF324D96E010EF420DA6E000180C009
:1027A800DFFF9EC0D9FF9FC0DAFFDE50DE10D8A43D
:1027B800E0EF13F0E2EF13F0E4EF13F01EEF13F085
:1027C8009EC0D9FF9FC0DAFFDECF80F0DDCF81F059
:1027D80094C082F095C083F09651010DF3CF84F038
:1027E800F4CF85F022EC1CF00101AE51070D0E0E5E
:1027F800F324D96E010EF420DA6E9EC0DEFF9FC06E
:10280800DDFFAE51070D0C0EF324D96E010EF42036
:10281800DA6E000EDF6EAE51070D0D0EF324D96E81
:10282800010EF420DA6E9CC0DFFFAE51070D110EC9
:10283800F324D96E010EF420DA6E96C0DFFFAE5194
:10284800070D120EF324D96E010EF420DA6E97C02C
:10285800DFFF980EAE25D96EDA6A010EDA22DFC0E4
:10286800DFFFAE2B0B51D8A43CEF14F03EEF14F071
:1028780041EF14F0010E0B6FC580DFC094F000012A
:10288800956B1200700ED3129268BF0E946E000EF4
:10289800956E000E966E000E936E010E0F01386F46
:1028A800000E3A6F000E3C6F000E396F000E616E1D
:1028B800F18EF28E000E8C6E000E8D6E000E8A6EFA
:1028C8003CEC1DF0060E65EC15F0B3C009F3B4C07E
:1028D8000AF30301092906E10A29D8A476EF14F0BE
:1028E80078EF14F07BEF14F08C6863EF15F0560E58
:1028F8000001806F000E816F17EC1DF0FCC105F31D
:10290800FDC106F3FEC107F3050E0001946F030E27
:10291800956F030E966F0A0E976FA00E13EC13F0C7
:1029280094C009F395C00AF30301092906E10A29AD
:10293800D8A4A1EF14F0A3EF14F0A5EF14F078EFEA
:1029480014F0140E066F320E076F050E0001946F17
:10295800030E956F030E966F0A0E976FAE0E13EC6B
:1029680013F094C009F395C00AF30301092906E19D
:102978000A29D8A4C2EF14F0C4EF14F0C6EF14F07B
:1029880078EF14F0130E066F050E0001946F030E16
:10299800956F020E966F010E976F0A0E986FA00E34
:1029A8008EEC10F094C009F395C00AF303010929CD
:1029B80006E10A29D8A4E3EF14F0E5EF14F0E7EFF5
:1029C80014F078EF14F0140E066F050E0001946FE2
:1029D800030E956F020E966F010E976F0A0E986F91
:1029E800AE0E8EEC10F094C009F395C00AF3030103
:1029F800092906E10A29D8A404EF15F006EF15F015
:102A080008EF15F078EF14F0080E0101F86F030EC7
:102A1800F96F000EFA6F030EFB6F0DEC18F0F8C19A
:102A280001F3F9C102F301C3D9FF02C3DAFFDE5093
:102A3800DE10D8B422EF15F024EF15F008EF15F0EA
:102A480001C3D9FF02C3DAFFDECF03F3DDCF04F3FE
:102A5800A00E03010819D8A434EF15F036EF15F0CD
:102A680046EF15F003C3D9FF04C3DAFF210EDE18C1
:102A7800D8A441EF15F043EF15F046EF15F08C5050
:102A880002098C6EAE0E0819D8A44DEF15F04FEF61
:102A980015F05FEF15F003C3D9FF04C3DAFF320E58
:102AA800DE18D8A45AEF15F05CEF15F05FEF15F0BB
:102AB8008C5004098C6EF4EC1BF008EF15F029EF2C
:102AC80000F00001B76FF28CF28E000E0101B26FB8
:102AD800000EB36F26EC1DF0000E0001BC6F000E57
:102AE800BD6FA00EBE6F410EBF6F000EB96F000E16
:102AF800B86F000EBB6F000EBA6F170EA76FB70E38
:102B0800A86FD10EA96F380EAA6FBA0EAB6F000E60
:102B1800AC6F000EAE6F100EAD6FB80EAF6F000E3B
:102B2800B06FBC0EB16F000EB26FE7EC0CF0170E71
:102B38000001A76FB70EA86FD10EA96F380EAA6F44
:102B4800BA0EAB6F000EAC6F000EAE6F040EAD6F19
:102B5800B80EAF6F000EB06FBC0EB16F000EB26F43
:102B6800E7EC0CF0170E0001A76FB70EA86FD10E97
:102B7800A96F380EAA6FBA0EAB6F000EAC6F000EBD
:102B8800AE6F010EAD6FB80EAF6F000EB06FBC0E1A
:102B9800B16F000EB26FE7EC0CF0BCC080F0BDC0A6
:102BA80081F0BEC082F0BFC083F0000E0001846FC8
:102BB800000E856FA00E866F410E876FD0EC1AF05D
:102BC8000001D8A0EAEF15F0ECEF15F0F0EF15F0E2
:102BD800B369B46974EF16F0000E0101AE6F000E10
:102BE800AF6F980E0001806F010E816F000E836F2A
:102BF800000E826F000E856F0B0E846F51EC17F07C
:102C0800010E0001DF6F000E01010B6FBA50870B38
:102C18004809BA6EBAC0BBFF000EBC6E9D829E9278
:102C280026EF16F0BA50FC0B0209BA6E41EF16F007
:102C3800BA50FC0B0109BA6E41EF16F0FC0EBA1639
:102C480041EF16F0B8C0B5F0B9C0B6F00001B65102
:102C5800000AD8B432EF16F0ECEF15F0B551010ABE
:102C6800D8B422EF16F0050AD8B41CEF16F0140AEF
:102C7800D8B416EF16F0ECEF15F0000ED86F000E72
:102C8800D76FBA84B7A54BEF16F04DEF16F050EF9B
:102C980016F09D8651EF16F09D96B7A356EF16F0E5
:102CA80058EF16F0ECEF15F0B7A15DEF16F05FEFF7
:102CB80016F061EF16F0ECEF15F0C69A410EC86EEB
:102CC800C79EC650F00B0809C66EC68A010E0101E0
:102CD800B06FB7C0B1F1000E0001B46F000EB36F52
:102CE80012000001886F00018851D8B47EEF16F0F9
:102CF80080EF16F0A2EF16F083BF87EF16F085EF8E
:102D080016F0A2EF16F080C084F081C085F082C072
:102D180086F083C087F0841F851F861F871F842B3A
:102D2800000E85238623872384C08AF085C08BF014
:102D380086C08CF087C08DF0AAEF16F080C08AF0AC
:102D480081C08BF082C08CF083C08DF080518111DE
:102D580082118311D8A4B3EF16F0B5EF16F0BFEFC8
:102D680016F0000E806F000E816F000E826F000E4D
:102D7800836F50EF17F0960E896FC9EF16F0892B05
:102D8800D8908D338C338B338A33000E8A15846F39
:102D9800000E8B15856F000E8C15866FFE0E8D1537
:102DA800876F8451851186118711D8A4DEEF16F03C
:102DB800E0EF16F0C3EF16F0EEEF16F0892B010ED8
:102DC8008A27000E8B238C238D23D8908D338C3348
:102DD8008B338A33000E8A15846F000E8B15856F2E
:102DE800000E8C15866FFF0E8D15876F8451851127
:102DF80086118711D8A403EF17F005EF17F0E2EF5B
:102E080016F00DEF17F08907D8908A378B378C3773
:102E18008D378CBF12EF17F014EF17F01CEF17F077
:102E2800020E89611AEF17F01CEF17F007EF17F081
:102E380089B121EF17F023EF17F024EF17F08C9FDB
:102E4800D890893389C084F0856B866B876B84C082
:102E580087F0866B856B846B84518A1385518B133D
:102E680086518C1387518D138851D8B43EEF17F0D3
:102E780040EF17F048EF17F083BF47EF17F045EF23
:102E880017F048EF17F08D8F8AC080F08BC081F063
:102E98008CC082F08DC083F0120080C08AF081C09F
:102EA8008BF0000184518511D8A45DEF17F05FEF16
:102EB80017F061EF17F00CEF18F08AC0D9FF8BC03C
:102EC800DAFF82C0DFFF84518A25866F85518B2106
:102ED800876FFF0E8625D96EFF0E8721DA6E82C0B6
:102EE800DFFF855107E1030E845DD8B07EEF17F050
:102EF80080EF17F082EF17F00CEF18F020EE01F0DA
:102F08008A51D9268B51DA2282C0DFFF20EE02F0E7
:102F18008A51D9268B51DA2282C0DFFF84518A2553
:102F2800866F85518B21876FFE0E8625D96EFF0E21
:102F38008721DA6E82C0DFFF84518A25866F85512A
:102F48008B21876FFD0E8625D96EFF0E8721DA6EDD
:102F580082C0DFFF855107E1070E845DD8B0B7EF67
:102F680017F0B9EF17F0BBEF17F00CEF18F020EEE1
:102F780003F08A51D9268B51DA2282C0DFFF8451AF
:102F88008A25866F85518B21876FFC0E8625D96E21
:102F9800FF0E8721DA6E82C0DFFF855107E1090E37
:102FA800845DD8B0DAEF17F0DCEF17F0DEEF17F03A
:102FB8000CEF18F08AC086F08BC087F0861F871F39
:102FC800864B872B030E8615886F896B88518A2755
:102FD80089518B238851845F8951855BFC0E841746
:102FE800FF0E851703EF18F08AC0D9FF8BC0DAFFF0
:102FF80082C0DFFF8407D8A085078A4B8B2B8451BA
:103008008511D8A40AEF18F00CEF18F0F8EF17F0B4
:1030180012000101B1B513EF18F015EF18F01BEF0E
:1030280018F0B20EF86F010EF96FB0EF18F0AF514B
:10303800D8B421EF18F023EF18F015EF18F0010EAF
:103048000001866F01015751D5EC11F086C09DF043
:1030580087C09EF09DC080F09EC081F0010E0001E7
:10306800826FB1EC18F0000180519C6F9DC0D9FFB0
:103078009EC0DAFFDECF80F0DDCF81F054C1D9FFEA
:1030880055C1DAFFDECF82F0DDCF83F057C184F07F
:10309800856B22EC1CF0FAC1D9FFFBC1DAFF57C1DE
:1030A800DFFF01015351FE0BF8C1D9FFF9C1DAFF67
:1030B800DF6E000E00019F6F86EF18F09F51070D1D
:1030C800590EF324D96E010EF420DA6E9F51070DC4
:1030D800520EF324E16E010EF420E26E060EDBCFF1
:1030E800E3FFE806FCE2A40E9F25D96EDA6A010E1A
:1030F800DA22A30E9F25E16EE26A010EE222DFCFFB
:10310800E7FF9F2B0101AF5100019F5DD8A08FEF12
:1031180018F091EF18F062EF18F00101AF07090EEF
:103128000A6599EF18F09BEF18F09DEF18F076EC10
:103138001BF0000E01010A25D96EDA6A010EDA22A7
:103148009CC0DFFF0A2B270E0001DA6F100ED96F23
:103158009DC0F8F19EC0F9F1120080C0D9FF81C06E
:10316800DAFFDE50DE10D8A4BCEF18F0BEEF18F07E
:10317800C3EF18F00001806981693FEF19F00B0E69
:103188000001886F000E896F82513D0D000E836F1C
:10319800020E846FF3508327F45084238951060D5F
:1031A800F3508327F45084238351801907E1845115
:1031B8008119D8A4E2EF18F0E4EF18F0E8EF18F05E
:1031C80089C088F0F1EF18F0892B090E8965EFEFB7
:1031D80018F0F1EF18F0C8EF18F00B0E8819D8A402
:1031E800F8EF18F0FAEF18F0FCEF18F0BEEF18F04F
:1031F8008851060DF3CF83F0F4CF84F082513D0D52
:10320800000E856F020E866F030E8527000E86233B
:10321800F3508527F450862383518525D96E845130
:103228008621DA6EDF50D8A41CEF19F01EEF19F0D2
:1032380020EF19F0BEEF18F08851060DF3CF83F098
:10324800F4CF84F082513D0D000E856F020E866F1B
:10325800040E8527000E8623F3508527F450862315
:1032680083518525D96E84518621DA6EDF50876FA8
:103278008751806F816B12000001876F0B0E000170
:10328800886F000E8B6F8B51060DF3CF82F0F4CF51
:1032980083F080513D0D000E846F020E856F040E81
:1032A8008427000E8523F3508427F4508523825108
:1032B8008425D96E83518521DA6E8751DE18D8A40A
:1032C80068EF19F06AEF19F06EEF19F08BC088F00B
:1032D80077EF19F08B2B090E8B6575EF19F077EFE7
:1032E80019F047EF19F00B0E8819D8A47EEF19F0E2
:1032F80080EF19F08AEF19F0B20E896F010E8A6F0C
:1033080089C080F08AC081F0C8EF19F08851060D95
:10331800F3CF82F0F4CF83F080513D0D000E846F1F
:10332800020E856F030E8427000E8523F350842731
:10333800F450852382518425D96E83518521DA6E14
:10334800DF50D8A4AAEF19F0ACEF19F0AEEF19F0DE
:1033580080EF19F08851060DF3CF82F0F4CF83F097
:1033680080513D0D000E846F020E856FF350842747
:10337800F450852382518425896F835185218A6F72
:1033880089C080F08AC081F012000001823583353F
:10339800896F8951D8A4D3EF19F0D5EF19F0DFEF71
:1033A80019F0000E806F000E816F000E826F000E04
:1033B800836F4CEF1AF080C084F081C085F082C022
:1033C80086F083C087F0200EEFEF19F0D89087338E
:1033D800863385338433E82EEAEF19F08451886FF9
:1033E800828FFF0E8017FF0E8117FF0E8217000EC7
:1033F8008317960E895F89BF06EF1AF004EF1AF05B
:103408001CEF1AF08951800A970FD8B00EEF1AF006
:1034180010EF1AF012EF1AF0D5EF19F0D8908333A5
:10342800823381338033893F12EF1AF034EF1AF078
:103438001F0E896522EF1AF024EF1AF02CEF1AF00C
:10344800D5EF19F0D89080378137823783378907CD
:103458008951D8A432EF1AF034EF1AF026EF1AF097
:103468008851D8B43AEF1AF03CEF1AF044EF1AF04A
:10347800831F821F811F806D000E81238223832377
:1034880080C080F081C081F082C082F083C083F068
:103498001200000E00019915A16F000E9A15A26F77
:1034A800800E9B15A36F7F0E9C15A46FA151A211CE
:1034B800A311A411D8A463EF1AF065EF1AF06DEF09
:1034C8001AF0000E996F000E9A6F000E9B6F000E97
:1034D8009C6F000E9D15A16F000E9E15A26F800EA9
:1034E8009F15A36F7F0EA015A46FA151A211A31160
:1034F800A411D8A482EF1AF084EF1AF08CEF1AF016
:10350800000E9D6F000E9E6F000E9F6F000EA06F45
:103518009CAF91EF1AF093EF1AF09CEF1AF0996DA7
:103528009A1FD8B09A2B9B1FD8B09B2B800E9C5704
:10353800A0AFA1EF1AF0A3EF1AF0ACEF1AF09D6D4F
:103548009E1FD8B09E2B9F1FD8B09F2B800EA057D0
:10355800000E991B000E9A1B000E9B1B800E9C1BD5
:10356800000E9D1B000E9E1B000E9F1B800EA01BB5
:103578009D51995D9E519A599F519B59A0519C59B3
:10358800D8B0C9EF1AF0CBEF1AF0CEEF1AF0D890F6
:10359800CFEF1AF0D8801200000E00018015886F56
:1035A800000E8115896F800E82158A6F7F0E831534
:1035B8008B6F885189118A118B11D8A4E6EF1AF004
:1035C800E8EF1AF0F0EF1AF0000E806F000E816F2E
:1035D800000E826F000E836F000E8415886F000E38
:1035E8008515896F800E86158A6F7F0E87158B6FFC
:1035F800885189118A118B11D8A405EF1BF007EFA8
:103608001BF00FEF1BF0000E846F000E856F000E8D
:10361800866F000E876F845180190FE185518119DB
:103628000CE18651821909E187518319D8B41FEF3B
:103638001BF021EF1BF024EF1BF0D89025EF1BF0B7
:10364800D88012000001856F00018051410DBA0E2B
:10365800F324D96E020EF420DA6EDF50826F836B8A
:1036680085518227000E832383BF44EF1BF08351CB
:1036780009E1400E825DD8A044EF1BF046EF1BF035
:103688004CEF1BF0000E806F000E816F75EF1BF082
:103698008051410DBA0EF324D96E020EF420DA6E71
:1036A8008551DF268051410D7A0E826F020E836F9D
:1036B800F3508227F45083238051410DBA0EF3242E
:1036C800D96E020EF420DA6EDF50846F845182279F
:1036D800000E83238551825D806F8351D8A08305B6
:1036E800816F120001010A51D8B47DEF1BF07FEF02
:1036F8001BF0B4EF1BF0010E0001806F01010051B7
:1037080040EC19F080C099F081C09AF099C08BF014
:103718009AC08CF0010E00018D6F7CEC03F0000E56
:1037280000019B6FA7EF1BF0010E9B25D96EDA6A8B
:10373800010EDA22000E9B25E16EE26A010EE222FA
:10374800DFCFE7FF9B2B01010A5100019B5DD8A049
:10375800B0EF1BF0B2EF1BF098EF1BF001010A0766
:1037680012000001846F00018451410DBA0EF32448
:10377800D96E020EF420DA6E000EDF6E84513D0D14
:103788003C0EF324D96E020EF420DA6E000EDF6EC2
:10379800000E856F8551060DF3CF80F0F4CF81F0D0
:1037A80084513D0D000E826F020E836F030E822737
:1037B800000E8323F3508227F450832380518225FF
:1037C800D96E81518321DA6E000EDF6E852B090ECA
:1037D8008565F1EF1BF0F3EF1BF0CEEF1BF0120045
:1037E800000E00019B6F13EF1CF0010E806F000E9E
:1037F8009B25D96EDA6A010EDA22DF5040EC19F007
:1038080080C099F081C09AF099C08BF09AC08CF072
:10381800010E00018D6F7CEC03F000019B2B010170
:103828000A5100019B5DD8A01CEF1CF01EEF1CF094
:10383800F9EF1BF0000E01010A6F120082C089F037
:1038480083C08AF080C087F081C088F03CEF1CF00C
:1038580089C0D9FF8AC0DAFFDF50866F894B8A2B6F
:1038680087C0D9FF88C0DAFF86C0DFFF874B882B67
:1038780000018407D8A08507842906E18529D8A4F2
:1038880048EF1CF04AEF1CF02CEF1CF01200800EE1
:10389800F66E3A0EF76E000EF86E0900F5CFFCF1E1
:1038A8000900F5CFFDF10900F5CFFEF102EE00F0B9
:1038B800FC0EEE6AE806FDE101EE00F0B40EEE6AD9
:1038C800E806FDE100EEC0F0200EEE6AE806FDE134
:1038D8005F905F92000EF86E000146EF14F003C08F
:1038E8000AF004C00BF001C008F002C009F08DEF27
:1038F8001CF00AC0D9FF0BC0DAFFDF50076E0A4A76
:103908000B2A08C0D9FF09C0DAFF07C0DFFF084A41
:10391800092A0506D8A00606052806E10628D8A41F
:1039280098EF1CF09AEF1CF07DEF1CF01200000ECF
:103938005E6EB5EF1CF05E50020DC10EF324D96E19
:10394800000EF420DA6E02D8B4EF1CF00500FA6E0F
:10395800DE50FD6EDE50FE6EF850FF6EFA5012001B
:103968005E2A0001C0515E5CD8A0BDEF1CF0BFEF1D
:103978001CF09FEF1CF01200000E0001941B000EBB
:10398800951B000E961B800E971B90C080F091C06F
:1039980081F092C082F093C083F094C084F095C007
:1039A80085F096C086F097C087F070EC08F080C06C
:1039B80090F081C091F082C092F083C093F0120021
:1039C800C5BCE9EF1CF0EBEF1CF0F7EF1CF080C072
:1039D800C9FFC7B0F2EF1CF0F4EF1CF0EDEF1CF0DC
:1039E80000F001EF1DF0C584C5B4FDEF1CF0FFEF3A
:1039F8001CF0F8EF1CF0F4EF1CF01200C580C5B005
:103A080008EF1DF00AEF1DF003EF1DF000F09E9681
:103A180080C0C9FFC7B013EF1DF015EF1DF00EEF02
:103A28001DF000F012000001C051020DC10EF32478
:103A3800D96E000EF420DA6E80C0DEFF81C0DDFF93
:103A4800C02B1200000E0101B26F000EB36F000E02
:103A5800B5EC1BF0010EB5EC1BF01200C584C5B423
:103A680038EF1DF03AEF1DF033EF1DF000F01200B3
:0B3A7800000E0001C06F1200121321AD
:020000040020DA
:08000000FFFFFFFFFFFFFFFF00
:020000040030CA
:0E000000FF32193CFFB585FF0FC00FE00F4027
:00000001FF
