:020000040000FA
:0400000029EF00F0F4
:100008005F82FACF78F0FBCF79F0E1CF7AF0E2CFD8
:100018007BF0D9CF7CF0DACF7DF0F3CF7EF0F4CF50
:100028007FF0C4EC1CF07FC0F4FF7EC0F3FF7DC0FE
:10003800DAFF7CC0D9FF7BC0E2FF7AC0E1FF79C05C
:10004800FBFF78C0FAFF5F92110074EF1CF09EB6B8
:1000580030EF00F032EF00F020EF03F09EA237EF10
:1000680000F039EF00F054EF03F00E0E01010B1908
:10007800D8B441EF00F043EF00F057EF00F00D0E59
:100088000B19D8B44AEF00F04CEF00F057EF00F02E
:100098000C0E0B19D8A453EF00F055EF00F054EFF5
:1000A80003F020EF03F020EF03F0000ED76F000EEF
:1000B800D66F01011251D8B464EF00F066EF00F07A
:1000C8006FEF00F012C1D0F00001D16B0E0E0101EC
:1000D8000B6F77EF00F0000E0001D16F0A0ED06FA2
:1000E8000C0E01010B6F0DC1C9FF53EF03F0C5BC26
:1000F80080EF00F082EF00F0E0EF00F0010E010168
:10010800116589EF00F08BEF00F0B7EF00F00EC13A
:1001180067F00FC168F067C0D9FF68C0DAFFDECFAB
:1001280069F0DDCF6AF00001D7516925D96E000E5C
:100138006A21DA6EDF50C96ED72B010111071251FF
:10014800D8B4A9EF00F0ABEF00F053EF03F0000EC6
:100158000001D66F0E0E01010B6F12C1D0F0000125
:10016800D16B53EF03F00EC16BF00FC16CF06BC095
:10017800D9FF6CC0DAFFDECF6DF0DDCF6EF0000185
:10018800D7516D25D96E000E6E21DA6EDF50C96E1B
:10019800D72B01011107020E0C19D8A4D6EF00F0D5
:1001A800D8EF00F0DCEF00F0090E0B6F53EF03F00F
:1001B800050E0B6F53EF03F0000ED66F8C80C580D1
:1001C80001011251D8B4EBEF00F0EDEF00F0D8EFD9
:1001D80000F00D0E0B6FB1EF00F0C586070E0101A0
:1001E8000B6F53EF03F0FF0E606FFF0E616F01019D
:1001F80011510001626F636B605162276151632383
:10020800D751646F656B6251645D6551800A666F92
:100218006351800A6659D8B014EF01F016EF01F067
:1002280045EF01F0C59A0EC16FF00FC170F06FC0B5
:10023800D9FF70C0DAFFDECF71F0DDCF72F0D75191
:100248007125D96E000E7221DA6EC9CFDFFFD72B68
:1002580001011251D8B433EF01F035EF01F041EF4D
:1002680001F0000E0001D66F0E0E01010B6F12C1D6
:10027800D0F00001D16B5EEF01F0060E0B6F5EEF60
:1002880001F0C58A0EC173F00FC174F073C0D9FFB5
:1002980074C0DAFFDECF75F0DDCF76F0D751752563
:1002A800D96E000E7621DA6EC9CFDFFFD72B050E87
:1002B80001010B6FC58853EF03F0000ED66FC5849C
:1002C80001011251D8B46BEF01F06DEF01F0D8EFD6
:1002D80000F0EDEF00F00CC177F001010C05D8A497
:1002E80078EF01F07AEF01F009EF02F0090EAF653F
:1002F80080EF01F082EF01F0D4EF01F054C10CF06F
:1003080055C10DF0000E0E6E0AEC06F0000E00014D
:10031800D76FB3EF01F0D751070D590EF324D96EFB
:10032800010EF420DA6ED751070D520EF324E16E58
:10033800010EF420E26E060EDBCFE3FFE806FCE2D6
:10034800A40ED725D96EDA6A010EDA22A30ED725B4
:10035800E16EE26A010EE222DFCFE7FFD72BFF0E44
:10036800606FFF0E616F0101AF510001626F636B37
:100378006051622761516323D751646F656B625185
:10038800645D6551800A666F6351800A6659D8A01A
:10039800D0EF01F0D2EF01F08FEF01F00101AF07CC
:1003A800AF51070D530EF324D96E010EF420DA6E07
:1003B8000DC1DFFFAF51070D540EF324D96E010EA6
:1003C800F420DA6E0EC1DEFF0FC1DDFFAF51070D5D
:1003D800570EF324D96E010EF420DA6ED7C0DFFF72
:1003E800AF51070D560EF324D96E010EF420DA6EC4
:1003F80010C1DFFFA30EAF25D96EDA6A010EDA222B
:1004080098C1DFFFAF2B11EF02F00EC10CF00FC146
:100418000DF0000E0E6E0AEC06F0000E0001D76F0C
:100428003AEF02F0D751070D130EF324D96E010EDF
:10043800F420DA6ED751070D0C0EF324E16E010E8D
:10044800F420E26E060EDBCFE3FFE806FCE2990E2D
:10045800D725D96EDA6A010EDA22980ED725E16E11
:10046800E26A010EE222DFCFE7FFD72B0101AE518E
:100478000001D75DD8A043EF02F045EF02F016EF78
:1004880002F00101AE07AE51D8B44DEF02F04FEFC4
:1004980002F061EF02F0010E0B6F020E00017719F6
:1004A800D8A459EF02F05BEF02F05EEF02F0C582CC
:1004B80053EF03F0C58053EF03F0000E0B6F53EFBB
:1004C80003F09EA66AEF02F06CEF02F06EEF02F006
:1004D800010ED66FD051D111D8A475EF02F077EF85
:1004E80002F0A1EF02F0D651D8B47DEF02F07FEF11
:1004F80002F0A1EF02F001010C51D8B486EF02F02E
:1005080088EF02F091EF02F0020E0C19D8A48FEFD9
:1005180002F091EF02F095EF02F0040E0B6F20EF5E
:1005280003F00C05D8A49BEF02F09DEF02F0A1EFB9
:1005380002F0060E0B6F20EF03F00001D051D1112D
:10054800D8A4A9EF02F0ABEF02F053EF03F0D651B5
:10055800D8A4B1EF02F0B3EF02F053EF03F0C59067
:10056800C580010E01010B6F53EF03F09EA6BFEF8C
:1005780002F0C1EF02F0DFEF02F001010C51D8B434
:10058800C8EF02F0CAEF02F091EF02F0020E0C1968
:10059800D8A4D1EF02F0D3EF02F0D5EF02F091EF3B
:1005A80002F00C05D8A4DBEF02F0DDEF02F053EF08
:1005B80003F09DEF02F0D051D111D8A4E6EF02F07C
:1005C800E8EF02F053EF03F0C590C580B5EF02F0F5
:1005D8009EA6F1EF02F0F3EF02F0F5EF02F0010E44
:1005E800D66FD051D111D8A4FCEF02F0FEEF02F083
:1005F8000BEF03F0D651D8B404EF03F006EF03F085
:100608000BEF03F0090E01010B6F20EF03F0D0513F
:10061800D111D8A412EF03F014EF03F053EF03F055
:10062800D651D8A41AEF03F01CEF03F053EF03F0F0
:10063800C590C580B5EF02F001010B510001606F54
:10064800616B6151000AD8B42CEF03F053EF03F04B
:100658006051010AD8B459EF00F0050AD8B47BEF0D
:1006680000F0010AD8B461EF01F0030AD8B4F1EF41
:1006780000F0010AD8B4F7EF00F00E0AD8B46FEF13
:1006880001F0050AD8B4BAEF02F0010AD8B4ECEFC9
:1006980002F0030AD8B465EF02F053EF03F09E9618
:1006A8009EA259EF03F05BEF03F07BEF03F000012C
:1006B800D051D111D8B463EF03F065EF03F068EFC0
:1006C80003F0D007D8A0D107D251D311D8B46FEF17
:1006D80003F071EF03F076EF03F0D207D8A0D30749
:1006E8007AEF03F0270ED36F100ED26F9E9212008E
:1006F8008BC0D9FF8CC0DAFFDE50DE10D8B487EF8C
:1007080003F089EF03F009EF06F0B40E0001806FE3
:10071800010E816F8D51410D7A0EF324826F020E06
:10072800F420836F000E856F400E846F4BEC1CF035
:10073800000E0101F66F000EF76F00018D513D0D9F
:10074800000E8E6F020E8F6FF3508E27F4508F239A
:100758000101F751060DF35000018E27F4508F2345
:100768008E518B1907E18F518C19D8A4BEEF03F075
:10077800C0EF03F0C4EF03F0F7C1F6F1CEEF03F0DA
:100788000101F72B090EF765CCEF03F0CEEF03F06C
:10079800A1EF03F0000E0101F76FF751060DF3CF3B
:1007A8008EF0F4CF8FF000018D513D0D000E906F4B
:1007B800020E916F050E9027000E9123F35090279B
:1007C800F45091238E519025D96E8F519121DA6E74
:1007D8000101F651060DF3CF93F0F4CF94F0000128
:1007E8008D513D0D000E956F020E966F050E9527E3
:1007F800000E9623F3509527F45096239351952590
:10080800E16E94519621E26EDE50E65CD8B00FEFAF
:1008180004F011EF04F0BCEF04F00101F751060DEC
:10082800F3CF8EF0F4CF8FF000018D513D0D000E07
:10083800906F020E916F030E9027000E9123F350D4
:100848009027F45091238E519025D96E8F51912184
:10085800DA6EDE04D8A433EF04F035EF04F0BCEF11
:1008680004F00101F651060DF3CF8EF0F4CF8FF0AE
:1008780000018D513D0D000E906F020E916F050E17
:100888009027000E9123F3509027F45091238E5116
:100898009025D96E8F519121DA6EDF50926F936B4C
:1008A800B40E92250101F46F010E0001932101019C
:1008B800F56FF4C180F0F5C181F0F751060DF3CF63
:1008C8008EF0F4CF8FF000018D513D0D000E906F2A
:1008D800020E916FF3509027F45091238E5190257A
:1008E800D96E8F519121DA6EDECF82F0DDCF83F0A1
:1008F800400E926F000E936F0101F751060DF3CF72
:1009080094F0F4CF95F000018D513D0D000E966FD7
:10091800020E976F050E9627000E9723F350962721
:10092800F450972394519625D96E95519721DA6EF4
:10093800DF50986F9851925D846F9351D8A09305BA
:10094800856F4BEC1CF000018D51410D7A0EF3249C
:10095800806F020EF420816FB40E826F010E836FD8
:10096800000E856F400E846F4BEC1CF0C6EF04F050
:100978000101F72B090EF765C4EF04F0C6EF04F088
:10098800D1EF03F0000E0101F76FF751060DF3CF19
:100998008EF0F4CF8FF000018D513D0D000E906F59
:1009A800020E916F050E9027000E9123F3509027A9
:1009B800F45091238E519025D96E8F519121DA6E82
:1009C8000101F651060DF3CF93F0F4CF94F0000136
:1009D8008D513D0D000E956F020E966F050E9527F1
:1009E800000E9623F3509527F4509623935195259E
:1009F800E16E94519621E26EDE50E65CD8B007EFC6
:100A080005F009EF05F0B1EF05F00101F751060D0A
:100A1800F3CF8EF0F4CF8FF000018D513D0D000E15
:100A2800906F020E916F030E9027000E9123F350E2
:100A38009027F45091238E519025D96E8F51912192
:100A4800DA6EDE04D8A42BEF05F02DEF05F0B1EF38
:100A580005F00101F651060DF3CF8EF0F4CF8FF0BB
:100A680000018D513D0D000E906F020E916F020E28
:100A78009027000E9123F3509027F45091238E5124
:100A88009025D96E8F519121DA6EDF50926F010156
:100A9800F751060DF3CF93F0F4CF94F000018D5188
:100AA8003D0D000E956F020E966F050E9527000EF0
:100AB8009623F3509527F450962393519525D96E94
:100AC80094519621DA6E9251DF5E8D51410D7A0E66
:100AD8008E6F020E8F6FF3508E27F4508F23010113
:100AE800F751060DF3CF90F0F4CF91F000018D513E
:100AF8003D0D000E926F020E936F050E9227000EA9
:100B08009323F3509227F450932390519225D96E52
:100B180091519321DA6EDF50946F94518E27000E15
:100B28008F230101F751060DF3CF95F0F4CF96F01E
:100B380000018D513D0D000E976F020E986FF35016
:100B48009727F450982395519725D96E9651982157
:100B5800DA6E8EC0DEFF8FC0DDFF0101F72B090EB4
:100B6800F765B9EF05F0BBEF05F0C9EF04F0F651F2
:100B7800060DF3CF8EF0F4CF8FF000018D513D0DAF
:100B8800000E906F020E916F030E9027000E9123B6
:100B9800F3509027F45091238E519025D96E8F51A0
:100BA8009121DA6E000EDF6E8D513D0D3C0EF3245F
:100BB800D96E020EF420DA6EDF060101F651060D39
:100BC800F3CF8EF0F4CF8FF000018D513D0D000E64
:100BD800906F020E916F020E9027000E9123F35032
:100BE8009027F45091238E519025D96E8F519121E1
:100BF800DA6EDF50926F8D51410DBA0EF324D96E23
:100C0800020EF420DA6E9251DF5E12000CC0D9FF9A
:100C18000DC0DAFFDE50DE10D8B415EF06F017EF7E
:100C280006F06FEF08F01A0E016E000E026E0E50FD
:100C3800410D7A0EF324036E020EF420046E000EAA
:100C4800066E400E056E9CEC1CF0000E5C6E000EED
:100C58005D6E0E503D0D000E0F6E020E106EF350BD
:100C68000F26F45010225D50060DF3500F26F45055
:100C780010220F500C1807E110500D18D8A447EF98
:100C880006F049EF06F04DEF06F05DC05CF056EF58
:100C980006F05D2A090E5D6454EF06F056EF06F083
:100CA8002DEF06F0000E5D6E5D50060DF3CF0FF0D0
:100CB800F4CF10F00E503D0D000E116E020E126EA4
:100CC800050E1126000E1222F3501126F45012229E
:100CD8000F501124D96E10501220DA6E5C50060D98
:100CE800F3CF14F0F4CF15F00E503D0D000E166E34
:100CF800020E176E050E1626000E1722F350162642
:100D0800F450172214501624E16E15501720E26E85
:100D1800DE50E65CD8B093EF06F095EF06F035EFBD
:100D280007F05D50060DF3CF0FF0F4CF10F00E5022
:100D38003D0D000E116E020E126E030E1126000EEE
:100D48001222F3501126F45012220F501124D96E9A
:100D580010501220DA6EDE04D8A4B5EF06F0B7EF13
:100D680006F035EF07F05C50060DF3CF0FF0F4CF27
:100D780010F00E503D0D000E116E020E126E050E93
:100D88001126000E1222F3501126F45012220F5091
:100D98001124D96E10501220DA6EDF50136E146AC7
:100DA8001A0E13245A6E000E14205B6E5AC001F0FE
:100DB8005BC002F05D50060DF3CF0FF0F4CF10F0DA
:100DC8000E503D0D000E116E020E126EF3501126DC
:100DD800F45012220F501124D96E10501220DA6EDE
:100DE800DECF03F0DDCF04F0400E136E000E146E5C
:100DF8005D50060DF3CF15F0F4CF16F00E503D0DF3
:100E0800000E176E020E186E050E1726000E182219
:100E1800F3501726F450182215501724D96E16507F
:100E28001820DA6EDF50196E1950135C056E1450D5
:100E3800D8A01404066E9CEC1CF00E50410D7A0EDE
:100E4800F324016E020EF420026E1A0E036E000ED9
:100E5800046E000E066E400E056E9CEC1CF03EEF14
:100E680007F05D2A090E5D643CEF07F03EEF07F0DE
:100E780058EF06F0000E5D6E5D50060DF3CF0FF0D3
:100E8800F4CF10F00E503D0D000E116E020E126ED2
:100E9800050E1126000E1222F3501126F4501222CC
:100EA8000F501124D96E10501220DA6E5C50060DC6
:100EB800F3CF14F0F4CF15F00E503D0D000E166E62
:100EC800020E176E050E1626000E1722F350162670
:100ED800F450172214501624E16E15501720E26EB4
:100EE800DE50E65CD8B07BEF07F07DEF07F01BEF34
:100EF80008F05D50060DF3CF0FF0F4CF10F00E5050
:100F08003D0D000E116E020E126E030E1126000E1C
:100F18001222F3501126F45012220F501124D96EC8
:100F280010501220DA6EDE04D8A49DEF07F09FEF70
:100F380007F01BEF08F05C50060DF3CF0FF0F4CF6D
:100F480010F00E503D0D000E116E020E126E020EC4
:100F58001126000E1222F3501126F45012220F50BF
:100F68001124D96E10501220DA6EDF50136E5D50C6
:100F7800060DF3CF14F0F4CF15F00E503D0D000E12
:100F8800166E020E176E050E1626000E1722F35067
:100F98001626F450172214501624D96E155017200F
:100FA800DA6E1350DF5E0E50410D7A0E0F6E020E90
:100FB800106EF3500F26F45010225D50060DF3CF3B
:100FC80011F0F4CF12F00E503D0D000E136E020E0C
:100FD800146E050E1326000E1422F3501326F45037
:100FE800142211501324D96E12501420DA6EDF50D7
:100FF800156E15500F26000E10225D50060DF3CF0A
:1010080016F0F4CF17F00E503D0D000E186E020EBC
:10101800196EF3501826F450192216501824D96E58
:1010280017501920DA6E0FC0DEFF10C0DDFF5D2AF1
:10103800090E5D6422EF08F024EF08F040EF07F096
:101048005C50060DF3CF0FF0F4CF10F00E503D0DAD
:10105800000E116E020E126E030E1126000E1222E1
:10106800F3501126F45012220F501124D96E10504B
:101078001220DA6E000EDF6E0E503D0D3C0EF3248A
:10108800D96E020EF420DA6EDF065C50060DF3CF3F
:101098000FF0F4CF10F00E503D0D000E116E020E41
:1010A800126E020E1126000E1222F3501126F45071
:1010B80012220F501124D96E10501220DA6EDF5010
:1010C800136E0E50410DBA0EF324D96E020EF420A1
:1010D800DA6E1350DF5E120000018351800B8C6FB3
:1010E800835183258E6F82AF7CEF08F07EEF08F086
:1010F8007FEF08F08E818E51D8B485EF08F087EF26
:1011080008F09CEF08F08E29D8A48DEF08F08FEF37
:1011180008F097EF08F0000E806F000E816F000E48
:10112800826F000E836F828F000E836FA4EF08F02A
:10113800000E806F000E816F000E826F000E836FAD
:101148008751800B8D6F8C518D19D8B4AEEF08F094
:10115800B0EF08F0B1EF08F08C8D875187258D6FBF
:1011680086AFB9EF08F0BBEF08F0BCEF08F08D814F
:101178008D51D8B4C2EF08F0C4EF08F0D9EF08F0E9
:101188008D29D8A4CAEF08F0CCEF08F0D4EF08F006
:10119800000E846F000E856F000E866F000E876F3D
:1011A800868F000E876FE1EF08F0000E846F000E47
:1011B800856F000E866F000E876F8E518D5DD8B0DB
:1011C800E8EF08F0EAEF08F011EF09F08CADEFEF67
:1011D80008F0F1EF08F0F3EF08F0800E8C1B8EC0DA
:1011E8008FF08DC08EF08FC08DF080C08FF084C0DE
:1011F80080F08FC084F081C08FF085C081F08FC0EF
:1012080085F082C08FF086C082F08FC086F083C0E0
:101218008FF087C083F08FC087F0000E8F6F8E51DC
:101228008DC088F0896B885F000E895B89BF26EFC7
:1012380009F0895109E11A0E885DD8A026EF09F056
:1012480028EF09F05FEF09F08051811182118311B5
:10125800D8A431EF09F034EF09F0010E35EF09F0A9
:10126800000E8F6F000E806F000E816F000E826F70
:10127800000E836F8DC08EF068EF09F08FA147EFE5
:1012880009F049EF09F04FEF09F0D8908F310109C3
:101298008F6F51EF09F0D8908F3380A156EF09F086
:1012A80058EF09F059EF09F08F8F83358333823374
:1012B800813380338E2B8D518E5DD8A066EF09F077
:1012C80068EF09F042EF09F08CBD6DEF09F06FEFA0
:1012D80009F0AFEF09F08E51D8A475EF09F077EF58
:1012E80009F081EF09F0000E806F000E816F000E8B
:1012F800826F000E836FD0EF0AF0845180278551EA
:101308008123865182238751832383A18EEF09F09D
:1013180090EF09F03CEF0AF08FA195EF09F097EFF5
:1013280009F09DEF09F0D8908F3101098F6F9FEF79
:1013380009F0D8908F3380A1A4EF09F0A6EF09F047
:10134800A7EF09F08F8F833583338233813380335E
:101358008E2B3CEF0AF08451805D8551815986516E
:1013680082598351800A886F8751800A8859D8B07A
:10137800C0EF09F0C2EF09F0EDEF09F08051845D8C
:10138800886F81518559896F825186598A6F835137
:1013980087598B6FFF0E8825806FFF0E8921816F1B
:1013A800FF0E8A21826FFF0E8B21836F800E8C1BAC
:1013B8008F6D8F51D8A4E3EF09F0E5EF09F0F5EF51
:1013C80009F0010E8027000E812382238323F5EF85
:1013D80009F08451805F8551815B8651825B87511A
:1013E800835B8051811182118311D8A4FEEF09F02B
:1013F80000EF0AF035EF0AF08F51D8A406EF0AF093
:1014080008EF0AF035EF0AF0000E806F000E816FCA
:10141800000E826F000E836FD0EF0AF0D8908037ED
:101428008137823783378FAF1CEF0AF01EEF0AF03F
:101438001FEF0AF080818FA124EF0AF026EF0AF04F
:101448002AEF0AF0D8808F372CEF0AF0D8908F3720
:101458008E51D8B432EF0AF034EF0AF035EF0AF0C3
:101468008E0782AF3AEF0AF03CEF0AF012EF0AF06B
:10147800000E8D6F8FAF43EF0AF045EF0AF05DEF76
:101488000AF08FC088F07F0E8817D8B44EEF0AF0A4
:1014980050EF0AF054EF0AF0010E8D6F5DEF0AF07D
:1014A80080A159EF0AF05BEF0AF05DEF0AF050EF08
:1014B8000AF08D51D8B463EF0AF065EF0AF090EFA7
:1014C8000AF0010E8027000E81238223832383A143
:1014D80070EF0AF072EF0AF090EF0AF080C088F01F
:1014E80081C089F082C08AF083C08BF08B358B3342
:1014F8008A338933883388C080F089C081F08AC0F4
:1015080082F08BC083F08E29D8B48DEF0AF08FEF6C
:101518000AF090EF0AF08E2B8E29D8B496EF0AF0D5
:1015280098EF0AF0A0EF0AF08E51D8A49EEF0AF0C7
:10153800A0EF0AF0B2EF0AF0000E806F000E816F84
:10154800000E826F000E836F8E51D8A4AEEF0AF0A2
:10155800B0EF0AF0B2EF0AF0000E8C6F8EA1B7EF71
:101568000AF0B9EF0AF0BCEF0AF0828FBDEF0AF07B
:10157800829FD8908E31836F8CAFC5EF0AF0C7EF8A
:101588000AF0C8EF0AF0838F80C080F081C081F034
:1015980082C082F083C083F0120000018351800B67
:1015A8008C6F83518325926F82AFDDEF0AF0DFEFF6
:1015B8000AF0E0EF0AF092819251D8B4E6EF0AF00F
:1015C800E8EF0AF0FBEF0AF09229D8A4EEEF0AF050
:1015D800F0EF0AF0F8EF0AF0000E806F000E816F4E
:1015E800000E826F000E836F828F03EF0BF0000EE8
:1015F800806F000E816F000E826F000E836F87511F
:10160800800B8C1B875187258D6F86AF0EEF0BF0F3
:1016180010EF0BF011EF0BF08D818D51D8B417EF4F
:101628000BF019EF0BF02CEF0BF08D29D8A41FEF5E
:101638000BF021EF0BF029EF0BF0000E846F000E7A
:10164800856F000E866F000E876F868F34EF0BF064
:10165800000E846F000E856F000E866F000E876F78
:101668008D51D8B43AEF0BF03CEF0BF044EF0BF090
:101678009251D8A442EF0BF044EF0BF04EEF0BF071
:10168800000E806F000E816F000E826F000E836F58
:10169800E6EF0CF086518003F3CF97F0F4CF98F083
:1016A80097518E6F8F6B906B916B9851936F946B72
:1016B800956B966B85518103F3CF97F0F4CF98F033
:1016C80097518E27000E8F239023912398519327AB
:1016D800000E94239523962384518203F3CF97F029
:1016E800F4CF98F097518E27000E8F2390239123E3
:1016F80098519327000E94239523962390C091F038
:101708008FC090F08EC08FF08E6B84518103F3CF21
:1017180097F0F4CF98F097518E2798518F23000EA9
:101728009023000E912385518003F3CF97F0F4CFD7
:1017380098F097518E2798518F23000E9023000E12
:10174800912390C091F08FC090F08EC08FF08E6B77
:1017580084518003F3CF97F0F4CF98F097518E27F8
:1017680098518F23000E9023000E912386518103F8
:10177800F3CF97F0F4CF98F097519327985194238B
:10178800000E9523000E962385518203F3CF97F020
:10179800F4CF98F09751932798519423000E9523EE
:1017A800000E962386518203F3CF97F0F4CF98F07A
:1017B8009751886F9851896F8A6B8B6B8AC08BF0B1
:1017C80089C08AF088C089F0886B8851932789512D
:1017D80094238A5195238B5196238EC088F08FC00D
:1017E80089F090C08AF091C08BF0190E01EF0CF0CF
:1017F800D8908B338A3389338833E82EFCEF0BF08B
:1018080088519327895194238A5195238B51962384
:1018180090C091F08FC090F08EC08FF08E6B8D517C
:1018280092C088F0896B8827000E8923820E88254C
:10183800976FFF0E8921986F37EF0CF0D890933788
:1018480094379537963791AF2CEF0CF02EEF0CF0BC
:101858002FEF0CF09381D8908E378F3790379137D0
:101868009707D8A0980795AF3CEF0CF03EEF0CF027
:1018780022EF0CF0000E8D6F91AF45EF0CF047EFA3
:101888000CF06BEF0CF0FF0E8E15886FFF0E8F15A6
:10189800896FFF0E90158A6F7F0E91158B6F885197
:1018A80089118A118B11D8B45CEF0CF05EEF0CF043
:1018B80062EF0CF0010E8D6F6BEF0CF093A167EFE8
:1018C8000CF069EF0CF06BEF0CF05EEF0CF08D5143
:1018D800D8B471EF0CF073EF0CF097EF0CF0010E29
:1018E8009327000E94239523962396A17EEF0CF060
:1018F80080EF0CF097EF0CF093C088F094C089F05B
:1019080095C08AF096C08BF08B358B338A33893338
:10191800883388C093F089C094F08AC095F08BC052
:1019280096F0974B982B98BFA2EF0CF0985108E1CE
:101938009729D8A0A2EF0CF0A4EF0CF0AEEF0CF0B2
:10194800000E936F000E946F800E956F7F0E966F4A
:10195800DCEF0CF098BFBBEF0CF0985106E197054F
:10196800D8B0B9EF0CF0BBEF0CF0C7EF0CF0000EDD
:10197800936F000E946F000E956F000E966F000E19
:101988008C6FDCEF0CF097C092F0FF0E9317FF0EF0
:1019980094177F0E9517000E961792A1D6EF0CF0AC
:1019A800D8EF0CF0D9EF0CF0958FD8909231966F54
:1019B8008C51961393C080F094C081F095C082F04A
:1019C80096C083F01200800E00018E6F960E8F6F06
:1019D800980E906F4B0E916FADC080F0AEC081F045
:1019E800826B836B000E9EEC16F080C092F081C073
:1019F80093F082C094F083C095F0C0EC0EF08EC0D6
:101A0800BCF18FC0BDF190C0BEF191C0BFF1000E16
:101A18000001996F000E9A6F800E9B6F430E9C6FAA
:101A2800A7C084F0A8C085F0A9C086F0AAC087F036
:101A3800BCC180F0BDC181F0BEC182F0BFC183F0DE
:101A4800D1EC0AF080C09DF081C09EF082C09FF06A
:101A580083C0A0F076EC1AF00001D8A036EF0DF0A4
:101A680038EF0DF0BFEF0EF0BCC180F0BDC181F0C2
:101A7800BEC182F0BFC183F0A7C084F0A8C085F0C2
:101A8800A9C086F0AAC087F0D1EC0AF080C0C4F1E2
:101A980081C0C5F182C0C6F183C0C7F1C4C180F05E
:101AA800C5C181F0C6C182F0C7C183F0F2EC19F05C
:101AB80080C0C8F181C0C9F1C4C199F0C5C19AF00C
:101AC800C6C19BF0C7C19CF0C8C180F0C9C181F0F4
:101AD8000001826B836B000E9EEC16F080C09DF0B7
:101AE80081C09EF082C09FF083C0A0F076EC1AF00F
:101AF8000001D8A082EF0DF084EF0DF0A9EF0DF0F2
:101B0800C4C190F0C5C191F0C6C192F0C7C193F0AD
:101B1800C8C180F0C9C181F0826B836B000E9EEC56
:101B280016F080C094F081C095F082C096F083C012
:101B380097F0E9EC1CF090C0B4F191C0B5F192C0F7
:101B4800B6F193C0B7F1CCEF0DF0C8C180F0C9C1B0
:101B580081F0826B836B000E9EEC16F080C090F0D3
:101B680081C091F082C092F083C093F0C4C194F018
:101B7800C5C195F0C6C196F0C7C197F0E9EC1CF055
:101B880090C0B4F191C0B5F192C0B6F193C0B7F16D
:101B9800B4C1C0F1B5C1C1F1B6C1C2F1B7C1C3F199
:101BA800C0C199F0C1C19AF0C2C19BF0C3C19CF0F9
:101BB800B1C0D9FFB2C0DAFFDECF9DF0DECF9EF014
:101BC800DECF9FF0DECFA0F076EC1AF00001D8B09F
:101BD800F0EF0DF0F2EF0DF00EEF0EF0ABC0D9FF05
:101BE800ACC0DAFFC8C1DEFFC9C1DDFFAFC0D9FF95
:101BF800B0C0DAFFADC0DEFFAEC0DDFFB1C0D9FFB7
:101C0800B2C0DAFFC0C1DEFFC1C1DEFFC2C1DEFF64
:101C1800C3C1DEFF0101C84BC92BC4C199F0C5C1BE
:101C28009AF0C6C19BF0C7C19CF0C8C180F0C9C179
:101C380081F00001826B836B000E9EEC16F080C071
:101C48009DF081C09EF082C09FF083C0A0F076EC2A
:101C58001AF00001D8A033EF0EF035EF0EF05AEF6E
:101C68000EF0C4C190F0C5C191F0C6C192F0C7C1D1
:101C780093F0C8C180F0C9C181F0826B836B000EFC
:101C88009EEC16F080C094F081C095F082C096F06A
:101C980083C097F0E9EC1CF090C0B8F191C0B9F19D
:101CA80092C0BAF193C0BBF17DEF0EF0C8C180F0CD
:101CB800C9C181F0826B836B000E9EEC16F080C068
:101CC80090F081C091F082C092F083C093F0C4C1BB
:101CD80094F0C5C195F0C6C196F0C7C197F0E9EC7C
:101CE8001CF090C0B8F191C0B9F192C0BAF193C09C
:101CF800BBF1B8C1C0F1B9C1C1F1BAC1C2F1BBC130
:101D0800C3F1C0C199F0C1C19AF0C2C19BF0C3C16F
:101D18009CF0B1C0D9FFB2C0DAFFDECF9DF0DECFB4
:101D28009EF0DECF9FF0DECFA0F076EC1AF0000137
:101D3800D8B0A1EF0EF0A3EF0EF0BFEF0EF0ABC0DE
:101D4800D9FFACC0DAFFC8C1DEFFC9C1DDFFAFC033
:101D5800D9FFB0C0DAFFADC0DEFFAEC0DDFFB1C055
:101D6800D9FFB2C0DAFFC0C1DEFFC1C1DEFFC2C108
:101D7800DEFFC3C1DEFF120000019151800B9E6F90
:101D880091519125A56F90AFCCEF0EF0CEEF0EF0EC
:101D9800CFEF0EF0A581A551D8B4D5EF0EF0D7EF4F
:101DA8000EF0ECEF0EF0A529D8A4DDEF0EF0DFEF72
:101DB8000EF0E7EF0EF0000E8E6F000E8F6F000E24
:101DC800906F000E916F908F000E916FF4EF0EF0F0
:101DD800000E8E6F000E8F6F000E906F000E916FC9
:101DE8009551800B9E1B95519525A66F94AFFFEFDB
:101DF8000EF001EF0FF002EF0FF0A681A651D8B454
:101E080008EF0FF00AEF0FF01FEF0FF0A629D8A484
:101E180010EF0FF012EF0FF01AEF0FF0000E926FA5
:101E2800000E936F000E946F000E956F948F000E46
:101E3800956F27EF0FF0000E926F000E936F000E54
:101E4800946F000E956F9251931194119511D8A427
:101E580030EF0FF032EF0FF04AEF0FF0000E8E6FF9
:101E6800000E8F6F000E906F000E916F800E901312
:101E78007F0E91139E5191138EC08EF08FC08FF0FC
:101E880090C090F091C091F08DEF10F0A551D8A4BA
:101E980050EF0FF052EF0FF05CEF0FF0000E8E6F67
:101EA800000E8F6F000E906F000E916F8DEF10F087
:101EB800A651A5C096F0976B965F000E975B7F0EB4
:101EC80096259F6F000E9721A06F8EC09AF08FC045
:101ED8009BF090C09CF091C09DF0000E8E6F000E9C
:101EE8008F6F000E906F000E916F000EA16F000EA5
:101EF800A26F000EA36F000EA46F000EA66FBDEFB9
:101F08000FF0A651D8B48BEF0FF08DEF0FF0A4EFC0
:101F18000FF0D8909A379B379C379D37D8908E37DB
:101F28008F3790379137A4AF9CEF0FF09EEF0FF0EB
:101F38009FEF0FF08E81D890A137A237A337A4372F
:101F480092519A5D93519B5994519C5995519D5921
:101F5800D8A0B1EF0FF0B3EF0FF0BCEF0FF0A48DE6
:101F680092519A5F93519B5B94519C5B95519D5BF9
:101F7800A62B190EA665C3EF0FF0C5EF0FF085EF7E
:101F88000FF09A519B119C119D11D8B4CEEF0FF010
:101F9800D0EF0FF0E8EF0FF0A181E8EF0FF0D89045
:101FA8008E378F3790379137A4AFDDEF0FF0DFEF23
:101FB8000FF0E0EF0FF08E81D890A137A237A3374A
:101FC800A4379F07D8A0A00790AFEDEF0FF0EFEF71
:101FD8000FF0D3EF0FF0000EA66FA4AFF6EF0FF0DF
:101FE800F8EF0FF01CEF10F0FF0EA115966FFF0E23
:101FF800A215976FFF0EA315986F7F0EA415996F02
:102008009651971198119911D8B40DEF10F00FEF60
:1020180010F013EF10F0010EA66F1CEF10F08EA158
:1020280018EF10F01AEF10F01CEF10F00FEF10F08F
:10203800A651D8B422EF10F024EF10F048EF10F0BA
:10204800010E8E27000E8F239023912391A12FEF4D
:1020580010F031EF10F048EF10F08EC096F08FC0FE
:1020680097F090C098F091C099F0993599339833CA
:102078009733963396C08EF097C08FF098C090F043
:1020880099C091F09F4BA02BA0BF53EF10F0A05127
:1020980008E19F29D8A053EF10F055EF10F060EF3A
:1020A80010F0000EA06F9F69000E8E6F000E8F6FEC
:1020B800000E906F000E916FA0BF6DEF10F0A05151
:1020C80006E19F05D8B06BEF10F06DEF10F07BEFD5
:1020D80010F0000EA06F000E9F6F000E8E6F000EA6
:1020E8008F6F000E906F000E916F000E9E6F9FC055
:1020F800A5F0A5A182EF10F084EF10F087EF10F0A3
:10210800908F88EF10F0909FD890A531916F3EEF97
:102118000FF0120000019F6F000E00019D6F000E6E
:102128009E6F0101B005D8B49CEF10F09EEF10F03F
:10213800A3EF10F0000194699569D4EF11F0B1A1F3
:10214800A8EF10F0AAEF10F0ACEF10F09EEF10F02F
:10215800070EAE65B2EF10F0B4EF10F0BBEF10F061
:10216800FF0E0001956FFE0E946FD4EF11F0000181
:10217800D82BD851D8A4C3EF10F0C5EF10F0C6EF94
:1021880010F0D82B000E866F9651010DF350D5EC48
:1021980011F086C0A0F087C0A1F0A0C080F0A1C057
:1021A80081F0000E0001826FDAEC18F00101AE51E7
:1021B800070D100EF324D96E010EF420DA6E00011B
:1021C80080C0DFFFA0C0D9FFA1C0DAFFDE50DE105B
:1021D800D8A4F1EF10F0F3EF10F0F5EF10F09EEF48
:1021E80010F0A0C0D9FFA1C0DAFFDECF80F0DDCFAC
:1021F80081F094C082F095C083F09651010DF3CF21
:1022080084F0F4CF85F04BEC1CF00101AE51070DC2
:102218000E0EF324D96E010EF420DA6EA0C0DEFF94
:10222800A1C0DDFF000E0001866F9751010DF3502C
:10223800D5EC11F086C0A0F087C0A1F0A0C0D9FFEE
:10224800A1C0DAFFDE50DE10D8A42DEF11F02FEF79
:1022580011F031EF11F09EEF10F00101AE51070DB2
:10226800150EF324D96E010EF420DA6EA0C0DEFF3D
:10227800A1C0DDFFA0C080F0A1C081F0000E000168
:10228800826FDAEC18F00101AE51070D170EF32436
:10229800D96E010EF420DA6E000180C0DFFF010163
:1022A800AE51070D0C0EF324D96E010EF420DA6E30
:1022B800020EDF6EAE51070D0D0EF324D96E010E1E
:1022C800F420DA6E9FC0DFFFAE51070D110EF32424
:1022D800D96E010EF420DA6E96C0DFFFAE51070DFD
:1022E800120EF324D96E010EF420DA6E98C0DFFFC7
:1022F800980EAE25D96EDA6A010EDA22D8C0DFFF51
:102308000001D82BD851D8A48CEF11F08EEF11F022
:102318008FEF11F0D82B0101AE2BAE51070D0C0E2B
:10232800F324D96E010EF420DA6E010EDF6EAE5181
:10233800070D0D0EF324D96E010EF420DA6E00019C
:102348009F510109DF6E0101AE51070D110EF324F3
:10235800D96E010EF420DA6E97C0DFFFAE51070D7B
:10236800120EF324D96E010EF420DA6E98C0DFFF46
:10237800980EAE25D96EDA6A010EDA22D8C0DFFFD0
:10238800AE2B0B51D8A4CBEF11F0CDEF11F0D0EF5D
:1023980011F0010E0B6FC580D8C094F00001956B49
:1023A80012000001906F000186513D0D3C0EF32490
:1023B800D96E020EF420DA6E090EDF64E6EF11F032
:1023C800E8EF11F0F2EF11F0B20E916F010E926F7B
:1023D80091C086F092C087F012EF13F086C080F0AB
:1023E80090514FEC1BF080C08EF081C08FF000013F
:1023F8008E518F11D8A403EF12F005EF12F007EFFA
:1024080012F0E8EF11F0CE0E8625D96EDA6A000ECA
:10241800DA22DF2ACE0E8625D96EDA6A000EDA2293
:10242800DF50D8A41AEF12F01CEF12F023EF12F0CD
:10243800CE0E8625D96EDA6A000EDA22DF2A000E61
:10244800936F9351060DF3CF88F0F4CF89F086513E
:102458003D0D000E8A6F020E8B6F030E8A27000E49
:102468008B23F3508A27F4508B2388518A25D96E01
:1024780089518B21DA6EDF50D8A445EF12F047EF6F
:1024880012F0E6EF12F09351060DF3CF88F0F4CF77
:1024980089F086513D0D000E8A6F020E8B6FF35046
:1024A8008A27F4508B2388518A25D96E89518B212C
:1024B800DA6E8EC0DEFF8FC0DDFF9351060DF3CFBD
:1024C80088F0F4CF89F086513D0D000E8A6F020E18
:1024D8008B6F020E8A27000E8B23F3508A27F45045
:1024E8008B2388518A25D96E89518B21DA6E90C049
:1024F800DFFF9351060DF3CF88F0F4CF89F08651B2
:102508003D0D000E8A6F020E8B6F030E8A27000E98
:102518008B23F3508A27F4508B2388518A25D96E50
:1025280089518B21DA6E010EDF6ECE0E8625D96EAB
:10253800DA6A000EDA229351060DF3CF88F0F4CF51
:1025480089F086513D0D000E8A6F020E8B6F040EC6
:102558008A27000E8B23F3508A27F4508B23885147
:102568008A25E16E89518B21E26EDFCFE7FF935117
:10257800060DF3CF88F0F4CF89F086513D0D000E9B
:102588008A6F020E8B6F050E8A27000E8B23F3507D
:102598008A27F4508B2388518A25D96E89518B213B
:1025A800DA6E8651410DBA0EF324E16E020EF42064
:1025B800E26EE7508C6F90518C5DDF6E93C08DF0AA
:1025C800EFEF12F0932B090E9365EDEF12F0EFEF9A
:1025D80012F025EF12F086513D0D3C0EF324D96E12
:1025E800020EF420DA6EDF2A8D51060DF3CF88F043
:1025F800F4CF89F086513D0D000E8A6F020E8B6F65
:10260800F3508A27F4508B2388518A25916F89517A
:102618008B21926F91C086F092C087F01200010161
:10262800D06FF28CF28E000E0101B26F000EB36F04
:102638004FEC1DF0000E0101D56F000ED66FA00EF5
:10264800D76F410ED86F000ED26F000ED16F000EFB
:10265800D46F000ED36F170E0001A76FB70EA86FC7
:10266800D10EA96F380EAA6FD30EAB6F010EAC6FE7
:10267800000EAE6F100EAD6FD10EAF6F010EB06FC2
:10268800D50EB16F010EB26FE7EC0CF0170E00011A
:10269800A76FB70EA86FD10EA96F380EAA6FD30E09
:1026A800AB6F010EAC6F000EAE6F040EAD6FD10EA6
:1026B800AF6F010EB06FD50EB16F010EB26FE7ECC0
:1026C8000CF0170E0001A76FB70EA86FD10EA96FF7
:1026D800380EAA6FD30EAB6F010EAC6F000EAE6F43
:1026E800010EAD6FD10EAF6F010EB06FD50EB16F89
:1026F800010EB26FE7EC0CF0D5C180F0D6C181F0C5
:10270800D7C182F0D8C183F0000E0001846F000E9B
:10271800856FA00E866F410E876FF9EC1AF00001E5
:10272800D8A099EF13F09BEF13F0A0EF13F000017E
:10273800B369B4694BEF14F0000E0101AE6F000EDF
:10274800AF6F980E0001806F010E816F000E836FCE
:10275800000E826F000E856F0B0E846F7AEC17F0F7
:10276800010E0001D86F000E01010B6FBA50870BE4
:102778004809BA6ED3C1BBFF000EBC6E9D829E9203
:10278800D6EF13F0BA50FC0B0209BA6EF1EF13F052
:10279800BA50FC0B0109BA6EF1EF13F0FC0EBA1631
:1027A800F1EF13F0D1C1B5F0D2C1B6F00001B651C6
:1027B800000AD8B4E2EF13F09BEF13F0B551010A09
:1027C800D8B4D2EF13F0050AD8B4CCEF13F0140A3A
:1027D800D8B4C6EF13F09BEF13F0000ED16F000EC4
:1027E800D06FBA840101D0A5FCEF13F0FEEF13F00F
:1027F80001EF14F09D8602EF14F09D96D0A307EF29
:1028080014F009EF14F09BEF13F0D0A10EEF14F0C1
:1028180010EF14F012EF14F09BEF13F0C69A550E58
:10282800CA6F350ECB6F850ECC6F440ECD6FCAC103
:1028380080F0CBC181F0CCC182F0CDC183F0F2EC45
:1028480019F080C0CEF181C0CFF10101CE2906E197
:10285800CF29D8A432EF14F034EF14F03AEF14F083
:10286800CEC1B3F0CFC1B4F04BEF14F0CEC1C8FF66
:10287800C79EC650F00B0809C66EC68A010EB06F17
:10288800D0C1B1F1000E0001B46F000EB36F120099
:1028980000019C6F0101B005D8B455EF14F057EF53
:1028A80014F05CEF14F00001946995697EEF15F05F
:1028B800B1A161EF14F063EF14F065EF14F057EF76
:1028C80014F0B1B56AEF14F06CEF14F0D4EF14F013
:1028D8009CC080F00001816B2BEC1DF0000197512A
:1028E800D8B479EF14F07BEF14F087EF14F097C0A9
:1028F800D0F0D16BD051D111D8A485EF14F087EF67
:1029080014F07EEF14F0000E9D6FAEEF14F09D51A1
:102918009425D96E000E9521DA6EDF50986F985184
:10292800806F816B0DEC1DF000019751D8B49FEFBB
:1029380014F0A1EF14F0ADEF14F097C0D0F0D16B04
:10294800D051D111D8A4ABEF14F0ADEF14F0A4EF2F
:1029580014F09D2B96519D5DD8A0B5EF14F0B7EFFC
:1029680014F08BEF14F05BEC1DF000019751D8B414
:10297800C0EF14F0C2EF14F0CEEF14F097C0D0F00F
:10298800D16BD051D111D8A4CCEF14F0CEEF14F004
:10299800C5EF14F0000E956F000E946F7EEF15F0E2
:1029A800080EAE65DAEF14F0DCEF14F0E3EF14F084
:1029B800FF0E0001956FFE0E946F7EEF15F000017B
:1029C800D82BD851D8A4EBEF14F0EDEF14F0EEEFBC
:1029D80014F0D82B000E866F9651010DF350D5ECEC
:1029E80011F086C09EF087C09FF09EC080F09FC007
:1029F80081F0000E0001826FDAEC18F00101AE518F
:102A0800070D100EF324D96E010EF420DA6E0001C2
:102A180080C0DFFF9EC0D9FF9FC0DAFFDE50DE1006
:102A2800D8A419EF15F01BEF15F01DEF15F057EFAF
:102A380014F09EC0D9FF9FC0DAFFDECF80F0DDCF53
:102A480081F094C082F095C083F09651010DF3CFC8
:102A580084F0F4CF85F04BEC1CF00101AE51070D6A
:102A68000E0EF324D96E010EF420DA6E9EC0DEFF3E
:102A78009FC0DDFFAE51070D0C0EF324D96E010E79
:102A8800F420DA6E000EDF6EAE51070D0D0EF32442
:102A9800D96E010EF420DA6E9CC0DFFFAE51070D2F
:102AA800110EF324D96E010EF420DA6E96C0DFFF02
:102AB800AE51070D120EF324D96E010EF420DA6E12
:102AC80097C0DFFF980EAE25D96EDA6A010EDA22BA
:102AD800D8C0DFFFAE2B0B51D8A475EF15F077EFF8
:102AE80015F07AEF15F0010E0B6FC580D8C094F081
:102AF8000001956B1200700ED3129268BF0E946E8F
:102B0800000E956E000E966E000E936E010E0F016C
:102B1800386F000E3A6F000E3C6F000E396F000ED2
:102B2800616EF18EF28E000E8C6E000E8D6E000EB0
:102B38008A6E65EC1DF0060E13EC13F0B3C009F3B2
:102B4800B4C00AF30301092906E10A29D8A4AFEFA2
:102B580015F0B1EF15F0B4EF15F08C689CEF16F096
:102B6800560E0001806F000E816F40EC1DF0FCC115
:102B780005F3FDC106F3FEC107F3050E0001946FCE
:102B8800030E956F030E966F0A0E976FA00E4CEC0E
:102B980014F094C009F395C00AF30301092906E16A
:102BA8000A29D8A4DAEF15F0DCEF15F0DEEF15F0FE
:102BB800B1EF15F0140E066F320E076F050E000107
:102BC800946F030E956F030E966F0A0E976FAE0EF5
:102BD8004CEC14F094C009F395C00AF303010929D9
:102BE80006E10A29D8A4FBEF15F0FDEF15F0FFEF79
:102BF80015F0B1EF15F0130E066F050E0001946F76
:102C0800030E956F020E966F010E976F0A0E986F5E
:102C1800A00E8EEC10F094C009F395C00AF30301DE
:102C2800092906E10A29D8A41CEF16F01EEF16F0B0
:102C380020EF16F0B1EF15F0140E066F050E000127
:102C4800946F030E956F020E966F010E976F0A0E22
:102C5800986FAE0E8EEC10F094C009F395C00AF38D
:102C68000301092906E10A29D8A43DEF16F03FEF30
:102C780016F041EF16F0B1EF15F0080E0101F86FEC
:102C8800030EF96F000EFA6F030EFB6F36EC18F0A7
:102C9800F8C101F3F9C102F301C3D9FF02C3DAFF96
:102CA800DE50DE10D8B45BEF16F05DEF16F041EFA2
:102CB80016F001C3D9FF02C3DAFFDECF03F3DDCF7D
:102CC80004F3A00E03010819D8A46DEF16F06FEFF6
:102CD80016F07FEF16F003C3D9FF04C3DAFF210E05
:102CE800DE18D8A47AEF16F07CEF16F07FEF16F016
:102CF8008C5002098C6EAE0E0819D8A486EF16F017
:102D080088EF16F098EF16F003C3D9FF04C3DAFF73
:102D1800320EDE18D8A493EF16F095EF16F098EF60
:102D280016F08C5004098C6E1DEC1CF041EF16F067
:102D380029EF00F00001886F00018851D8B4A7EF8F
:102D480016F0A9EF16F0CBEF16F083BFB0EF16F030
:102D5800AEEF16F0CBEF16F080C084F081C085F09E
:102D680082C086F083C087F0841F851F861F871F57
:102D7800842B000E85238623872384C08AF085C090
:102D88008BF086C08CF087C08DF0D3EF16F080C032
:102D98008AF081C08BF082C08CF083C08DF08051A6
:102DA800811182118311D8A4DCEF16F0DEEF16F042
:102DB800E8EF16F0000E806F000E816F000E826F34
:102DC800000E836F79EF17F0960E896FF2EF16F009
:102DD800892BD8908D338C338B338A33000E8A1528
:102DE800846F000E8B15856F000E8C15866FFE0E96
:102DF8008D15876F8451851186118711D8A407EF27
:102E080017F009EF17F0ECEF16F017EF17F0892B12
:102E1800010E8A27000E8B238C238D23D8908D33A7
:102E28008C338B338A33000E8A15846F000E8B1512
:102E3800856F000E8C15866FFF0E8D15876F845178
:102E4800851186118711D8A42CEF17F02EEF17F0F3
:102E58000BEF17F036EF17F08907D8908A378B37C2
:102E68008C378D378CBF3BEF17F03DEF17F045EFF0
:102E780017F0020E896143EF17F045EF17F030EFB6
:102E880017F089B14AEF17F04CEF17F04DEF17F034
:102E98008C9FD890893389C084F0856B866B876B4B
:102EA80084C087F0866B856B846B84518A13855147
:102EB8008B1386518C1387518D138851D8B467EFC3
:102EC80017F069EF17F071EF17F083BF70EF17F085
:102ED8006EEF17F071EF17F08D8F8AC080F08BC0FE
:102EE80081F08CC082F08DC083F0120080C08AF01F
:102EF80081C08BF0000184518511D8A486EF17F0AA
:102F080088EF17F08AEF17F035EF18F08AC0D9FF6D
:102F18008BC0DAFF82C0DFFF84518A25866F855116
:102F28008B21876FFF0E8625D96EFF0E8721DA6EFB
:102F380082C0DFFF855107E1030E845DD8B0A7EF9B
:102F480017F0A9EF17F0ABEF17F035EF18F020EEF8
:102F580001F08A51D9268B51DA2282C0DFFF20EE98
:102F680002F08A51D9268B51DA2282C0DFFF8451C0
:102F78008A25866F85518B21876FFE0E8625D96E2F
:102F8800FF0E8721DA6E82C0DFFF84518A25866FA3
:102F980085518B21876FFD0E8625D96EFF0E8721FF
:102FA800DA6E82C0DFFF855107E1070E845DD8B075
:102FB800E0EF17F0E2EF17F0E4EF17F035EF18F055
:102FC80020EE03F08A51D9268B51DA2282C0DFFF26
:102FD80084518A25866F85518B21876FFC0E862543
:102FE800D96EFF0E8721DA6E82C0DFFF855107E1B7
:102FF800090E845DD8B003EF18F005EF18F007EF5D
:1030080018F035EF18F08AC086F08BC087F0861F5D
:10301800871F864B872B030E8615886F896B88510F
:103028008A2789518B238851845F8951855BFC0EDF
:103038008417FF0E85172CEF18F08AC0D9FF8BC0B4
:10304800DAFF82C0DFFF8407D8A085078A4B8B2B65
:1030580084518511D8A433EF18F035EF18F021EF1B
:1030680018F012000101B1B53CEF18F03EEF18F06E
:1030780044EF18F0B20EF86F010EF96FD9EF18F09F
:10308800AF51D8B44AEF18F04CEF18F03EEF18F0F3
:10309800010E0001866F01015751D5EC11F086C071
:1030A8009DF087C09EF09DC080F09EC081F0010E0B
:1030B8000001826FDAEC18F0000180519C6F9DC00E
:1030C800D9FF9EC0DAFFDECF80F0DDCF81F054C19A
:1030D800D9FF55C1DAFFDECF82F0DDCF83F057C1CB
:1030E80084F0856B4BEC1CF0FAC1D9FFFBC1DAFF09
:1030F80057C1DFFF01015351FE0BF8C1D9FFF9C1D8
:10310800DAFFDF6E000E00019F6FAFEF18F09F51DE
:10311800070D590EF324D96E010EF420DA6E9F5173
:10312800070D520EF324E16E010EF420E26E060E36
:10313800DBCFE3FFE806FCE2A40E9F25D96EDA6A2E
:10314800010EDA22A30E9F25E16EE26A010EE22249
:10315800DFCFE7FF9F2B0101AF5100019F5DD8A092
:10316800B8EF18F0BAEF18F08BEF18F00101AF07BD
:10317800090E0A65C2EF18F0C4EF18F0C6EF18F090
:103188009FEC1BF0000E01010A25D96EDA6A010EC8
:10319800DA229CC0DFFF0A2B270E0001D36F100E26
:1031A800D26F9DC0F8F19EC0F9F1120080C0D9FF1E
:1031B80081C0DAFFDE50DE10D8A4E5EF18F0E7EFA3
:1031C80018F0ECEF18F000018069816968EF19F0D8
:1031D8000B0E0001886F000E896F82513D0D000EA5
:1031E800836F020E846FF3508327F4508423895130
:1031F800060DF3508327F45084238351801907E187
:1032080084518119D8A40BEF19F00DEF19F011EFC3
:1032180019F089C088F01AEF19F0892B090E896511
:1032280018EF19F01AEF19F0F1EF18F00B0E8819D2
:10323800D8A421EF19F023EF19F025EF19F0E7EFE3
:1032480018F08851060DF3CF83F0F4CF84F0825143
:103258003D0D000E856F020E866F030E8527000E4A
:103268008623F3508527F450862383518525D96E0C
:1032780084518621DA6EDF50D8A445EF19F047EF64
:1032880019F049EF19F0E7EF18F08851060DF3CF60
:1032980083F0F4CF84F082513D0D000E856F020E4D
:1032A800866F040E8527000E8623F3508527F45079
:1032B800862383518525D96E84518621DA6EDF50A5
:1032C800876F8751806F816B12000001876F0B0E2B
:1032D8000001886F000E8B6F8B51060DF3CF82F0C3
:1032E800F4CF83F080513D0D000E846F020E856F80
:1032F800040E8427000E8523F3508427F450852379
:1033080082518425D96E83518521DA6E8751DE1862
:10331800D8A491EF19F093EF19F097EF19F08BC03B
:1033280088F0A0EF19F08B2B090E8B659EEF19F032
:10333800A0EF19F070EF19F00B0E8819D8A4A7EFB9
:1033480019F0A9EF19F0B3EF19F0B20E896F010E59
:103358008A6F89C080F08AC081F0F1EF19F0885136
:10336800060DF3CF82F0F4CF83F080513D0D000EAF
:10337800846F020E856F030E8427000E8523F35099
:103388008427F450852382518425D96E8351852161
:10339800DA6EDF50D8A4D3EF19F0D5EF19F0D7EFD4
:1033A80019F0A9EF19F08851060DF3CF82F0F4CF88
:1033B80083F080513D0D000E846F020E856FF3502F
:1033C8008427F450852382518425896F8351852170
:1033D8008A6F89C080F08AC081F0120000018235AE
:1033E8008335896F8951D8A4FCEF19F0FEEF19F0E5
:1033F80008EF1AF0000E806F000E816F000E826FCA
:10340800000E836F75EF1AF080C084F081C085F0DC
:1034180082C086F083C087F0200E18EF1AF0D8908B
:103428008733863385338433E82E13EF1AF08451BB
:10343800886F828FFF0E8017FF0E8117FF0E82178D
:10344800000E8317960E895F89BF2FEF1AF02DEFB4
:103458001AF045EF1AF08951800A970FD8B037EF64
:103468001AF039EF1AF03BEF1AF0FEEF19F0D89086
:103478008333823381338033893F3BEF1AF05DEF2A
:103488001AF01F0E89654BEF1AF04DEF1AF055EF41
:103498001AF0FEEF19F0D8908037813782378337DA
:1034A80089078951D8A45BEF1AF05DEF1AF04FEF46
:1034B8001AF08851D8B463EF1AF065EF1AF06DEF7F
:1034C8001AF0831F821F811F806D000E81238223C3
:1034D800832380C080F081C081F082C082F083C0E5
:1034E80083F01200000E00019915A16F000E9A15C5
:1034F800A26F800E9B15A36F7F0E9C15A46FA15120
:10350800A211A311A411D8A48CEF1AF08EEF1AF00F
:1035180096EF1AF0000E996F000E9A6F000E9B6FCF
:10352800000E9C6F000E9D15A16F000E9E15A26FD8
:10353800800E9F15A36F7F0EA015A46FA151A21135
:10354800A311A411D8A4ABEF1AF0ADEF1AF0B5EFA0
:103558001AF0000E9D6F000E9E6F000E9F6F000EFA
:10356800A06F9CAFBAEF1AF0BCEF1AF0C5EF1AF0D3
:10357800996D9A1FD8B09A2B9B1FD8B09B2B800EA1
:103588009C57A0AFCAEF1AF0CCEF1AF0D5EF1AF09B
:103598009D6D9E1FD8B09E2B9F1FD8B09F2B800E6D
:1035A800A057000E991B000E9A1B000E9B1B800E45
:1035B8009C1B000E9D1B000E9E1B000E9F1B800E69
:1035C800A01B9D51995D9E519A599F519B59A0519D
:1035D8009C59D8B0F2EF1AF0F4EF1AF0F7EF1AF09E
:1035E800D890F8EF1AF0D8801200000E000180156C
:1035F800886F000E8115896F800E82158A6F7F0E85
:1036080083158B6F885189118A118B11D8A40FEFFC
:103618001BF011EF1BF019EF1BF0000E806F000E6E
:10362800816F000E826F000E836F000E8415886F05
:10363800000E8515896F800E86158A6F7F0E871597
:103648008B6F885189118A118B11D8A42EEF1BF02A
:1036580030EF1BF038EF1BF0000E846F000E856F03
:10366800000E866F000E876F845180190FE1855117
:1036780081190CE18651821909E187518319D8B45F
:1036880048EF1BF04AEF1BF04DEF1BF0D8904EEFC0
:103698001BF0D88012000001856F00018051410D98
:1036A800BA0EF324D96E020EF420DA6EDF50826F60
:1036B800836B85518227000E832383BF6DEF1BF038
:1036C800835109E1400E825DD8A06DEF1BF06FEFCA
:1036D8001BF075EF1BF0000E806F000E816F9EEFE0
:1036E8001BF08051410DBA0EF324D96E020EF4205E
:1036F800DA6E8551DF268051410D7A0E826F020EF7
:10370800836FF3508227F45083238051410DBA0E02
:10371800F324D96E020EF420DA6EDF50846F8451E0
:103728008227000E83238551825D806F8351D8A044
:103738008305816F120001010A51D8B4A6EF1BF06E
:10374800A8EF1BF0DDEF1BF0010E0001806F0101F7
:10375800005169EC19F080C099F081C09AF099C0C5
:103768008BF09AC08CF0010E00018D6F7CEC03F099
:10377800000E00019B6FD0EF1BF0010E9B25D96E48
:10378800DA6A010EDA22000E9B25E16EE26A010E6A
:10379800E222DFCFE7FF9B2B01010A5100019B5D6D
:1037A800D8A0D9EF1BF0DBEF1BF0C1EF1BF0010134
:1037B8000A0712000001846F00018451410DBA0EFE
:1037C800F324D96E020EF420DA6E000EDF6E8451F7
:1037D8003D0D3C0EF324D96E020EF420DA6E000E75
:1037E800DF6E000E856F8551060DF3CF80F0F4CFA4
:1037F80081F084513D0D000E826F020E836F030E1F
:103808008227000E8323F3508227F45083238051AC
:103818008225D96E81518321DA6E000EDF6E852BE9
:10382800090E85651AEF1CF01CEF1CF0F7EF1BF072
:103838001200000E00019B6F3CEF1CF0010E806F20
:10384800000E9B25D96EDA6A010EDA22DF5069EC88
:1038580019F080C099F081C09AF099C08BF09AC095
:103868008CF0010E00018D6F7CEC03F000019B2BA6
:1038780001010A5100019B5DD8A045EF1CF047EFFC
:103888001CF022EF1CF0000E01010A6F120082C02A
:1038980089F083C08AF080C087F081C088F065EF26
:1038A8001CF089C0D9FF8AC0DAFFDF50866F894BC8
:1038B8008A2B87C0D9FF88C0DAFF86C0DFFF874B15
:1038C800882B00018407D8A08507842906E185296B
:1038D800D8A471EF1CF073EF1CF055EF1CF0120028
:1038E800D20EF66E3A0EF76E000EF86E0900F5CF9E
:1038F800FCF10900F5CFFDF10900F5CFFEF102EE6C
:1039080000F0FC0EEE6AE806FDE101EE00F0B40EF0
:10391800EE6AE806FDE100EEB9F0200EEE6AE80670
:10392800FDE15F905F92000EF86E00017FEF15F0E9
:1039380003C00AF004C00BF001C008F002C009F08F
:10394800B6EF1CF00AC0D9FF0BC0DAFFDF50076ED4
:103958000A4A0B2A08C0D9FF09C0DAFF07C0DFFFEF
:10396800084A092A0506D8A00606052806E10628F9
:10397800D8A4C1EF1CF0C3EF1CF0A6EF1CF0120096
:10398800000E5E6EDEEF1CF05E50020DBA0EF324E0
:10399800D96E000EF420DA6E02D8DDEF1CF00500B7
:1039A800FA6EDE50FD6EDE50FE6EF850FF6EFA5075
:1039B80012005E2A0001B9515E5CD8A0E6EF1CF047
:1039C800E8EF1CF0C8EF1CF01200000E0001941B79
:1039D800000E951B000E961B800E971B90C080F062
:1039E80091C081F092C082F093C083F094C084F0BB
:1039F80095C085F096C086F097C087F070EC08F007
:103A080080C090F081C091F082C092F083C093F0A2
:103A18001200C5BC12EF1DF014EF1DF020EF1DF0D1
:103A280080C0C9FFC7B01BEF1DF01DEF1DF016EFDA
:103A38001DF000F02AEF1DF0C584C5B426EF1DF077
:103A480028EF1DF021EF1DF01DEF1DF01200C580BD
:103A5800C5B031EF1DF033EF1DF02CEF1DF000F075
:103A68009E9680C0C9FFC7B03CEF1DF03EEF1DF029
:103A780037EF1DF000F012000001B951020DBA0E27
:103A8800F324D96E000EF420DA6E80C0DEFF81C008
:103A9800DDFFB92B1200000E0101B26F000EB36FEB
:103AA800000EDEEC1BF0010EDEEC1BF01200C584EC
:103AB800C5B461EF1DF063EF1DF05CEF1DF000F081
:0D3AC8001200000E0001B96F120012132150
:020000040020DA
:08000000FFFFFFFFFFFFFFFF00
:020000040030CA
:0E000000FF32193CFFB585FF0FC00FE00F4027
:00000001FF
