:020000040000fa
:080000000002040000000000f2
:020000040000fa
:0400080010030000e1
:020000040000fa
:04000c0010030000dd
:020000040000fa
:0400100010030000d9
:020000040000fa
:0400140010030000d5
:020000040000fa
:0400180010030000d1
:020000040000fa
:04001c0010030000cd
:020000040000fa
:0400200010030000c9
:020000040000fa
:0400240010030000c5
:020000040000fa
:0400280010030000c1
:020000040000fa
:04002c0010030000bd
:020000040000fa
:0400300010030000b9
:020000040000fa
:0400340010030000b5
:020000040000fa
:0400380010030000b1
:020000040000fa
:04003c0010030000ad
:020000040000fa
:0400400010030000a9
:020000040000fa
:04004400c8020000ee
:020000040000fa
:0400480010030000a1
:020000040000fa
:04004c00100300009d
:020000040000fa
:040050001003000099
:020000040000fa
:040054001003000095
:020000040000fa
:040058001003000091
:020000040000fa
:04005c00100300008d
:020000040000fa
:040060001003000089
:020000040000fa
:040064001003000085
:020000040000fa
:040068001003000081
:020000040000fa
:04006c00ec020000a2
:020000040000fa
:040070001003000079
:020000040000fa
:040074001003000075
:020000040000fa
:040078001003000071
:020000040000fa
:04007c00100300006d
:020000040000fa
:040080001003000069
:020000040000fa
:040084001003000065
:020000040000fa
:040088001003000061
:020000040000fa
:04008c00100300005d
:020000040000fa
:040090001003000059
:020000040000fa
:040094001003000055
:020000040000fa
:040098001003000051
:020000040000fa
:04009c00100300004d
:020000040000fa
:0400a0001003000049
:020000040000fa
:0400a4001003000045
:020000040000fa
:0400a8001003000041
:020000040000fa
:0400ac00100300003d
:020000040000fa
:0400b0001003000039
:020000040000fa
:0400b4001003000035
:020000040000fa
:0400b8001003000031
:020000040000fa
:0400bc00100300002d
:020000040000fa
:0400c0001003000029
:020000040000fa
:0400c4001003000025
:020000040000fa
:0400c8001003000021
:020000040000fa
:0400cc00100300001d
:020000040000fa
:0400d0001003000019
:020000040000fa
:0400d4001003000015
:020000040000fa
:0400d8001003000011
:020000040000fa
:0400dc00100300000d
:020000040000fa
:0400e0001003000009
:020000040000fa
:0400e4001003000005
:020000040000fa
:0400e8001003000001
:020000040000fa
:0400ec0010030000fd
:020000040000fa
:0400f00010030000f9
:020000040000fa
:0400f40010030000f5
:020000040000fa
:0400f80010030000f1
:020000040000fa
:0400fc0010030000ed
:020000040000fa
:0401000010030000e8
:020000040000fa
:0401040010030000e4
:020000040000fa
:0401080010030000e0
:020000040000fa
:04010c0010030000dc
:020000040000fa
:0401100010030000d8
:020000040000fa
:0401140010030000d4
:020000040000fa
:0401180010030000d0
:020000040000fa
:04011c0010030000cc
:020000040000fa
:0401200010030000c8
:020000040000fa
:0401240010030000c4
:020000040000fa
:0401280010030000c0
:020000040000fa
:04012c0010030000bc
:020000040000fa
:0401300010030000b8
:020000040000fa
:0401340010030000b4
:020000040000fa
:0402080010030000df
:020000040000fa
:04020c0010030000db
:020000040000fa
:0402100010030000d7
:020000040000fa
:0402140010030000d3
:020000040000fa
:0402180010030000cf
:020000040000fa
:04021c0010030000cb
:020000040000fa
:0402200010030000c7
:020000040000fa
:0402240010030000c3
:020000040000fa
:0402280010030000bf
:020000040000fa
:04022c0010030000bb
:020000040000fa
:0402300010030000b7
:020000040000fa
:0402340010030000b3
:020000040000fa
:0402380010030000af
:020000040000fa
:04023c0010030000ab
:020000040000fa
:0402400010030000a7
:020000040000fa
:04024400c8020000ec
:020000040000fa
:04024800100300009f
:020000040000fa
:04024c00100300009b
:020000040000fa
:040250001003000097
:020000040000fa
:040254001003000093
:020000040000fa
:04025800100300008f
:020000040000fa
:04025c00100300008b
:020000040000fa
:040260001003000087
:020000040000fa
:040264001003000083
:020000040000fa
:04026800100300007f
:020000040000fa
:04026c00ec020000a0
:020000040000fa
:040270001003000077
:020000040000fa
:040274001003000073
:020000040000fa
:04027800100300006f
:020000040000fa
:04027c00100300006b
:020000040000fa
:040280001003000067
:020000040000fa
:040284001003000063
:020000040000fa
:04028800100300005f
:020000040000fa
:04028c00100300005b
:020000040000fa
:040290001003000057
:020000040000fa
:040294001003000053
:020000040000fa
:04029800100300004f
:020000040000fa
:04029c00100300004b
:020000040000fa
:0402a0001003000047
:020000040000fa
:0402a4001003000043
:020000040000fa
:0402a800100300003f
:020000040000fa
:0402ac00100300003b
:020000040000fa
:0402b0001003000037
:020000040000fa
:0402b4001003000033
:020000040000fa
:0402b800100300002f
:020000040000fa
:0402bc00100300002b
:020000040000fa
:0402c0001003000027
:020000040000fa
:0402c4001003000023
:020000040000fa
:0402c800100300001f
:020000040000fa
:0402cc00100300001b
:020000040000fa
:0402d0001003000017
:020000040000fa
:0402d4001003000013
:020000040000fa
:0402d800100300000f
:020000040000fa
:0402dc00100300000b
:020000040000fa
:0402e0001003000007
:020000040000fa
:0402e4001003000003
:020000040000fa
:0402e80010030000ff
:020000040000fa
:0402ec0010030000fb
:020000040000fa
:0402f00010030000f7
:020000040000fa
:0402f40010030000f3
:020000040000fa
:0402f80010030000ef
:020000040000fa
:0402fc0010030000eb
:020000040000fa
:0403000010030000e6
:020000040000fa
:0403040010030000e2
:020000040000fa
:0403080010030000de
:020000040000fa
:04030c0010030000da
:020000040000fa
:0403100010030000d6
:020000040000fa
:0403140010030000d2
:020000040000fa
:0403180010030000ce
:020000040000fa
:04031c0010030000ca
:020000040000fa
:0403200010030000c6
:020000040000fa
:0403240010030000c2
:020000040000fa
:0403280010030000be
:020000040000fa
:04032c0010030000ba
:020000040000fa
:0403300010030000b6
:020000040000fa
:0403340010030000b2
:020000040000fa
:100400004f9620000e7f22000e01880000000000a1
:10041000000020000000e000020032000001200087
:100420002002880014000700a00007000000e00080
:1004300003003a00607d2100010020000200370027
:100440000000200001002000810f70000100320038
:1004500014000700000020000000e000020032004d
:100460000000020000000000d8160200000000009a
:100470000040da000000fe004440a9000000200017
:100480000000e0000300320000002000a00188000e
:100490004440a800000006008a1f78008b1f7800e7
:1004a0000000060091018800800478000000eb0045
:1004b0001a003700e284440032a0b4009905ba0063
:1004c000e284440032a0b4009906ba00e2844400f9
:1004d00032a0b4000006eb00476fde00fd07b2005b
:1004e000636ce10003003a00ebff07000000eb0043
:1004f0000a003700606ce10004003a00005deb0088
:100500008b05e900fdff3e00040037006168e10053
:10051000010032000086eb000b00070019c7ba008b
:100520001905ba000e04e00003003a000a00e000da
:10053000e0ff3a0000000600fe07b2009e018800be
:100540008a047800f5ff3700395dba008b05e900b1
:100550000c003200295dba008b05e900080032006a
:100560000c00e00003003a00e284440032a0b40032
:10057000f5ff370019ddba008b05e900faff3a00f4
:100580008904e800e184440032a0b40000000600c1
:100590003600f800809fbe00829fbe00849fbe0090
:1005a000869fbe003400f80000002000a0018800f3
:1005b0000000fa00bd0307000080fa003400f900d3
:1005c0004f03be004f02be004f01be004f00be00f1
:1005d0003600f900004006003600f800809fbe009b
:1005e000829fbe00849fbe00869fbe003400f8003c
:1005f00000002000a00188000000fa00ab03070003
:100600000080fa003400f9004f03be004f02be0024
:100610004f01be004f00be003600f900004006004a
:100620000040da000000fe00889fbe0080047800d1
:10063000104780000000e00004003a000e000700b0
:100640000084eb000000e00008003500184780003f
:100650000900e00005003200090044000600070020
:100660000000e00001003d000084eb00080078007d
:100670004f04be0000000600800078000100e0008a
:1006800003003a00408e200010478800000005005b
:100690000080eb0042962000828f500002003e0056
:1006a000114788000000eb00000006000000050074
:1006b00003f0a200889fbe008a9fbe008c1f7800b6
:1006c0001b010700220133006450e1004f0032009b
:1006d0006420e1005200320003826c0007003b00fe
:1006e0000905d0000306d000820f54000c065d00ff
:1006f0000200390002003200890178000306780008
:100700008582550004003d000003fd008103fd00cb
:100710008502ea008b854200840f720002003b00d4
:1007200060001000e08018006011b8000005eb00c8
:100730007a28e1000a00390006007800c75ddd0074
:10074000f707b200878075002d00370082817100a5
:100750000a017800610560008180d1000080d3002b
:100760008502e900f9ff3b00060440008784480049
:1007700002003b0060041400e0841c000988a30010
:10078000070032008a81710082817100610164007a
:100790008904d1000884d3008b05e80017003700d6
:1007a0000978a30013003a000b00e00013003400a6
:1007b0008b05e9000804440089844c000a44740055
:1007c0000978a3000d003a000b00e0000700340098
:1007d0008b05e9000804440089844c0001003a00bc
:1007e0000b0020000978a300f7ff32000001eb00a6
:1007f00002003700828171000a0178009100070031
:100800000cf0a70001f0a000da0037006420e1003e
:1008100002003a00838f6c00da0033000801be004a
:100820000200be00d30037008f1fd10079010700fe
:100830008f87e9000000e00000000600889fbe00ee
:100840008a9fbe008c1f7800b9000700c0003300eb
:1008500003866c006450e1002e0032006420e10049
:10086000330032006150e1002f0032006120e100ce
:100870003100320085855500eb07b00009002000eb
:1008800008042000050037000804440089844c0057
:100890000a0031000603430087834b000001530028
:1008a00081815b00f8ff33000203be000800a00056
:1008b0000804440089844c00f6ff3900c639dd0085
:1008c0008301730001003200130020008904d1006d
:1008d0000884d3000998a300050032000800a7008f
:1008e0000300a0008904d1000884d3008b05e80030
:1008f0008904d1000884d3000001eb000281d200fa
:100900005000070001f0a1000cf0a70001f0a000ca
:10091000980037006420e1009a0032000801be0010
:100920000200be00f7ff37006120e10095003200b1
:100930006000b800f3ff37000000200001f8270036
:10094000f0ff370081037800640007000001be005b
:100950006000b8000478a30013003a006220e100b0
:1009600015003e000d0039008301d1000281d30043
:100970008180d3008301d1000281d3008180d30024
:100980008301d1000281d3008180d3000538b000fb
:10099000c42add00f300b2008381720007f0a700d3
:1009a00003f0a00000000600f3ff2700f2ff2f0075
:1009b0006110b900fbff370003ff2700f7ff370086
:1009c00014002000ba013700f4ff2f00b8013700ef
:1009d0000001be00410007000470a70003f0a10061
:1009e00003f8a30013003a006509b10010003200bb
:1009f000090035006928e1000200350001002800e7
:100a00000000050000004000818048008502e900e8
:100a1000fcff3a0000000600f88f42000500350098
:100a20008100d1000080d3008502e800fcff3a007d
:100a3000000006008000eb00000005006011b80017
:100a4000b601370081002000618055000b003d0099
:100a50000b00200061fe2f000100e1001d003400aa
:100a600082817100610164008904d1000884d3008f
:100a70000000e800faff3a00710020006100640005
:100a800003007000020060000900320061044400ad
:100a9000e0844c000988a500050032008b05e800c1
:100aa0006808e10002003a008904d1000884d300fc
:100ab000f20f20000258e10005003d00c75ddd0097
:100ac000f907b20089807500080078000000060070
:100ad0000bf827008b00780000000500c70ade0035
:100ae000f107b200f50fb20008003200e1cf42007a
:100af000020032000170a00024000500810f700088
:100b0000010032000408050044000500810f700058
:100b100002003a00140005008502e90000004000d0
:100b200081c04800fcff3b000170a00024000500cc
:100b30000004be00e9ff07000003be000405be007c
:100b40000200be00e5ff0700844f750000000600ac
:100b50000200be006450e100050036006420e100a0
:100b6000020036000968a30001003a000800be0038
:100b70000160a0004f0678004f05be004f04be0084
:100b800000000600f0ff2f00f1ff2700f9ff3700fb
:100b90002800fa00889fbe008a9fbe008c9fbe007e
:100ba00003866b00290107000028a30064003a00b7
:100bb0000128a30067003a000008a30062003a0081
:100bc0000108a30065003a001e009000be089000d6
:100bd00081064000ed3fb100f4805700ee01900027
:100be000111ab8008e099000311bb8009e099000c0
:100bf000311cb800511db800f485570046000700ad
:100c0000fe0190003a0007008b85e8003e000700d7
:100c10008e09900040000700ee01900034000700ac
:100c20008b85e800380007008e099000400007001f
:100c30009e0990001b18b800890440000a854800ee
:100c4000fe019000340007008b85e80038000700a3
:100c5000ee019000300007008e0990001b18b800cc
:100c6000890440000a8548000a98a30008003a0059
:100c70000402420085824a0006034b0087834b0032
:100c800008044c0089844c000a054d008d06e900db
:100c900084827200850273004c3add008502720086
:100ca0000100320015002000443ade001400b200ba
:100cb0004538de00cb45dd000b007000c540de008e
:100cc000cb4ddd008b8070004549de00cb55dd004b
:100cd0000b017100c551de000d037800760007009e
:100ce00003f0a1000cf0a70003f0a000eb00370018
:100cf0001b18b8008502400006834800e0834b00c3
:100d000060044c00070037001b18b80006034000c1
:100d100087834800faff37001b18b800870340009c
:100d200008844800e0844c0060054d000000060087
:100d30001b18b8000804400089844800faff3700f7
:100d40000108a300d2003a005800be005801be00be
:100d5000e3ff37000008a300cd003a000904780043
:100d6000f9ff3700000000001400fa00889fbe0061
:100d70008a9fbe008c9fbe000005be000206be001a
:100d8000680047000c90be000a90be008800070073
:100d90006400e1001a00320016003e006100e1002c
:100da0001a0032006e049000fe0490000e0b9000ba
:100db0009e0b90006011b8009e0590000b38b100aa
:100dc000d501200082817100610164008703d10098
:100dd0000683d3008984d3000884d3008502e90008
:100de000f8ff3a0017ff07000df0a70001f0a00080
:100df000aa003700f1ff2700f0ff2f00a7003700ff
:100e000001f8270000002000f7ff37006000b8005d
:100e1000f5ff3700889fbe008a9fbe008c9fbe00f2
:100e20000404be000605be00809fbe00829fbe0077
:100e30004d000700040678000800be000a01be004d
:100e400049000700840678004f03be004f02be0031
:100e50008d4f76007fb0970013003300f0ff2f0016
:100e60008b8f6b0006003b000d0666000c00a70090
:100e70000a00370007f0a600100020000a00370023
:100e8000880f5200898f5a008a0f5b008b8f5b009e
:100e9000030039001000200001003e000000200087
:100ea00007f0a7000000ea004f06be004f05be0095
:100eb0004f04be000000060018002000570020006c
:100ec000080453000d003d000600200097fc2f0091
:100ed0000740e1001e00340084827200610260005d
:100ee0008301d1000281d3008180d3000080d30030
:100ef0000804e800f8ff3a004700200061046000a1
:100f000005047400040464000d0032006100400018
:100f1000e080480060014900e081490003b8a50075
:100f2000070032000603e8006538e10004003a00db
:100f30008301d1000281d3008180d3000080d300df
:100f4000f87f20000830e100030035000803780036
:100f50006000b8006011b8004433dd00f300b20057
:100f6000830173000000060005ff27000582610071
:100f7000070032000428e1000100320024000500cf
:100f80000600070001003a004400050004080500bf
:100f900002000700f9ff3a00140005006f826100ab
:100fa0008102700085027100850272000000060057
:100fb000800078005002be005003be004439de00bd
:100fc000f700b200f37f2000030161000900320046
:100fd0000218e10016003a008501720083017300d7
:100fe000838173000008200015003a0040002000b3
:100ff0001300370085017200830173008381730041
:1010000005003a0004a8be0006a8be00100020009b
:101010000b0037000201e9000402420085824a0009
:1010200006034b0087834b000748a300f9ff3200fb
:101030000740a00004a8be0006a8be0020002000b3
:1010400080009800920098000000060068044700a5
:101050000294be000094be00fc0447008694be00cb
:101060008494be0009007800d1ff070008007800d2
:10107000cfff070099007800814f70000b003b0004
:101080000800be00540007004f00b1000300370005
:10109000f3ff2700f2ff2f006110b9004f06be00da
:1010a0004f05be004f04be000080fa00000006009d
:1010b000889fbe008a9fbe00841f78009cfe0700a8
:1010c0004f00780011003300f0ff2f00838f6c0079
:1010d00006003b00040565000a00a7000800370071
:1010e00009f0a6001000200008003700820f54000d
:1010f000838f5c00030039001000200001003e00d7
:101100000000200009f0a7000000ea004f05be0023
:101110004f04be000000e00000000600889fbe00f3
:101120008a9fbe0000827000040271000482710078
:10113000260032000004be000200be006011b800ac
:101140006b092000950220000182cf000a003900bf
:101150000541b1000082cf00070039000541b10010
:101160000982cf00040039000541b1000882cf0098
:10117000010039000541b100054252001200320061
:101180000a003b0082817100610164008100d1008e
:101190000080d3008984d3000884d3008b05e80045
:1011a0000442e800f7ff3a00070037000804440053
:1011b00089844c0000004800818048008b05e900cc
:1011c0000442e900f9ff3a001efe07004f05be0089
:1011d0004f04be0000000600e48240001078a30027
:1011e00007003200640240001178a3003400be0002
:1011f0001401be00040032000330a7000000060006
:101200003500be001501be000330a000000006003e
:101210000000e0002f003200c0017800e38f510091
:101220002c0036000308a3002a003a00f146800093
:101230000100e00002003200810f50000400310084
:1012400011009800f04688001600370082007800f0
:10125000110190000200e00002003200800f5100f6
:10126000faff39001102780084824000850f500097
:1012700018003900808f520003003a0083084200b2
:1012800001007800070037000200e0000300320090
:1012900083014000830f51000e00390012009800b6
:1012a00090009800900090000100e00009003200da
:1012b00010014000828f500006003a00c28d2000cd
:1012c0000009eb0010017800110841009100900026
:1012d0001100980000000600889fbe0000047800fe
:1012e000e14680000100e0000200320001007800c9
:1012f0000d003700f1468000e08d2000040037002b
:10130000910f5400250036000180e8009100900004
:101310000100e000faff3a0010003700920f54007d
:101320001e0036000280e800100178000200e00094
:10133000faff3a0011017800f1468000e08d2000ac
:1013400004003700910f5400140036000180e800bb
:1013500091009000828f5000faff3a000947800008
:10136000888f54000100310088047800090078005b
:10137000440007000000e00004003a00888f540099
:10138000050032008904d100f5ff37000918780004
:101390009fff0700d2ff37000000eb004f04be00a4
:1013a00000000600881f7800630440000800a100c8
:1013b0008000eb00800f540021003600e30f540042
:1013c00001003e004800200008007800c2ff07002e
:1013d0008000eb000000e00019003200900078006f
:1013e0009101780064815100880f510003003100a1
:1013f00011019000020878000700370008814000c2
:101400000208780091019000130198001001780003
:101410001109140088087800100178000000eb0022
:101420000200e00004003200920190000300e0009e
:10143000010032000280e800e04688008180e80078
:10144000010078004f047800000006008001780059
:1014500002003700b15978000201e9000200e00003
:10146000fcff3a000000060080017800020037000f
:10147000815978000201e9000200e000fcff3a0017
:1014800000000600800078000000eb000100e00092
:10149000050034000100780063fc0700e10f400004
:0c14a00001003a000000eb000000060014
:020000040000fa
:1014ac000200fa0030048000620060000000e000de
:1014bc000b003a002104800000082000008060002e
:1014cc000000e000d801320050408000ee0f5000c8
:1014dc000300320050408000ed0f5000d2013a0062
:1014ec0050408000e60f500080003200e60f5000a4
:1014fc000c003e00e30f50002c003200e30f5000b4
:10150c0003003e000000e00012003200c50137006d
:10151c00e40f5000a6003200e50f50006f003200bf
:10152c00c0013700ec0f50007c013200ec0f500072
:10153c0003003e00e80f5000ad003200b901370047
:10154c00ed0f500090013200ee0f50004d013200b3
:10155c00b40137000768ef000868ef003081200005
:10156c00104078000004e0000700320030812000b9
:10157c00104078000080fb0020408800e000200034
:10158c005040880004003700a00020002040880054
:10159c00c000200050408800e080200010407800ff
:1015ac000080fb00101088009e0137004110800065
:1015bc0000002800008060000000e00037003a00c6
:1015cc002081200010407800e14f50001b003600b5
:1015dc008140800007c8bf000080fb0000804000f5
:1015ec00104078000080fb001010880007c8bf0076
:1015fc000040e80007e8b700208120001040780088
:10160c008040e900208120000148780030812000d2
:10161c00104078000004e000750132000868ef000b
:10162c00e0002000504088003081200010407800fd
:10163c000080fb00204088007a0137008140800048
:10164c0007c8bf000080fb000080400010407800fd
:10165c000080fb001010880007c8bf000040e800a5
:10166c0007e8b70020812000104078008040e90096
:10167c00208120000148780060408000e20f50007b
:10168c0003003a00800020005040880065013700bc
:10169c004000200050408800620137000868ef00cd
:1016ac000602a80030812000104078000004e00001
:1016bc0007003200d000200050408800308120000c
:1016cc00104078000080fb00204088005501370056
:1016dc008000200050408800520137000662a800ac
:1016ec0060002000504088004e01370007c8bf0042
:1016fc008080fb0020812000104078000080fb00df
:10170c000000e900808f50001a003d0006a2a900dd
:10171c008140800007c8bf000080fb0000804000b3
:10172c0001108000814078000148780007c8bf0094
:10173c000040e80007e8b700308120001040780036
:10174c000004e000080032000868ef00e000200010
:10175c005040880030812000104078000080fb0051
:10176c0020408800100037005000200050408800b6
:10177c000d00370006a2a8008140800007c8bf00fa
:10178c000080fb0000804000011080008140780048
:10179c000148780007c8bf000040e80007e8b70020
:1017ac0040002000504088000682a8001d01370030
:1017bc000868ef000642a800308120001040780035
:1017cc000004e00007003200d000200050408800e8
:1017dc0030812000104078000080fb002040880001
:1017ec001001370080002000504088000d013700a8
:1017fc0060408000004f780060408000e10f500096
:10180c0060003a00308c200010407800e94f500006
:10181c0033003600004380007afe07000768ef00b3
:10182c002200370007c8bf000080fb007180200039
:10183c00914078008180fb008100e800a2802000ac
:10184c004300dd00000041002005b000c308dd00ae
:10185c002105b000a2802000810041003102be00b1
:10186c002103be000498be000690be0007c8bf004e
:10187c000081fb0007c8bf000080fb000000e800ef
:10188c00c10a200080804000a08020000080400021
:10189c0090409000608b20000000410011409800a7
:1018ac0007c8bf000040e80007e8b70007c8bf0042
:1018bc008080fb00308c2000104078000080fb0002
:1018cc000000e900808f5000d6ff3500308c2000de
:1018dc00104078008040e900308c200001487800ee
:1018ec00308c2000104078000080fb00e18020004c
:1018fc00914078004301dd00e085200000004100ac
:10190c0001487800308c2000104078000080fb00eb
:10191c00814080004301dd00008620000000410072
:10192c0001087800308c2000104078000080fb000b
:10193c0071802000914078006b0040004301dd0075
:10194c00a08020000000410001487800308c20006d
:10195c00104078000081fb00c08a20009040780085
:10196c00608b20000000410011409800308c20005a
:10197c00104078008040e800308c2000014878004e
:10198c0002003700804080001efe07000768ef0051
:10199c002200370007c8bf000080fb0071802000c8
:1019ac00914078008180fb008100e800a28020003b
:1019bc004300dd00000041000080e800c308dd00aa
:1019cc008180e800a2802000810041003102be002d
:1019dc002103be000498be000690be0007c8bf00dd
:1019ec000081fb0007c8bf000080fb000000e8007e
:1019fc00210a200080804000a08020000080400050
:101a0c0090407800c08a2000000041000148780016
:101a1c0007c8bf000040e80007e8b700208c200092
:101a2c009040780007c8bf0080cf5000d9ff3e001f
:101a3c00208c2000104078008040e900208c200091
:101a4c0001487800208c2000104078000004e00051
:101a5c00090032000000eb00504088001e40780066
:101a6c00e24f500002003a000622a8006d00370039
:101a7c000602a8006b003700b00020005040880020
:101a8c006800370030048000620060000000e00055
:101a9c000200320010c0b30008e8b70020408000fc
:101aac000000e00012003a0008c8bf000004e0008b
:101abc000f003200604080000000e00003003200a4
:101acc0060408000e20f500003003a00300020001c
:101adc005040880082fe370060408000e10f5000cb
:101aec0003003a0050002000504088007cfe370074
:101afc00204080000000e0003f003a0008c8bf0012
:101b0c000004e0003e003a000602a9000602a8000c
:101b1c000000eb0050408800420037003004800089
:101b2c00620060000000e0000f00320060408000a6
:101b3c000000e0000300320060408000e20f500023
:101b4c0003003a00300020005040880064fe37004b
:101b5c0060408000e10f50002b003a005000200044
:101b6c00504088005efe3700204080000000e000fe
:101b7c0027003a000602a9000602a8000000eb00ac
:101b8c00504088002700370030048000620060005d
:101b9c000000e0000200320010c0b30008e8b700fb
:101bac00204080000000e00006003a0008c8bf009a
:101bbc000004e00003003200800020005040880048
:101bcc0047fe3700204080000000e00012003a0081
:101bdc0008c8bf000004e00011003a000602a9008a
:101bec000602a8000000eb00504088000d003700f2
:101bfc00000000000b003700000000000900370057
:101c0c00000000000700370000000000050037004e
:101c1c000000000003003700000000000100370046
:101c2c00000000008620a90021048000000820008c
:101c3c00008060000000e0001000320020408000b6
:101c4c000000e00003003200204080000000e900aa
:101c5c0020408800104080000000e00004003200aa
:101c6c00104080000000e90010408800020037009e
:101c7c00007122001040880084e0a9000080fa0066
:101c8c00000006000400fa0020479800408c200059
:101c9c0010407800e14f5000020032000080eb0051
:101cac00270037000040eb00004f78000c00370095
:101cbc001e80fb00210a200080804000a0802000b4
:101ccc0000804000904078002e40900080cf500063
:101cdc0002003a000000eb00190037001e4fe8002c
:101cec00208c2000104078009e4f5000f0ff3e00ea
:101cfc000040eb00004f78000c0037001e80fb000a
:101d0c00c10a200080804000a0802000008040009c
:101d1c00904090002e40900080cf500002003a007e
:101d2c0020002000060037001e4fe800308c2000f9
:101d3c00104078009e4f5000f0ff3e001000200035
:101d4c000080fa00000006000a00fa00004f98001c
:101d5c0000002000011a2400008fbe000000eb00e0
:101d6c00200798000000eb0030079800e4004700c3
:101d7c00660047008e0278000102780003102000f4
:101d8c0000017800f026210031a823006e03070023
:101d9c00e4004700660047008e02780001027800dc
:101dac000304200000017800f026210031a8230054
:101dbc0065030700e4004700660047008e027800c8
:101dcc00010278008300200000017800f026210039
:101ddc0031a823005c030700e400470066004700bd
:101dec008e027800010278001300200000017800b8
:101dfc00f026210031a82300530307001e00be006b
:101e0c0002002000031a2400eafa07000000e00098
:101e1c0002003a000080eb006f003700208c20009d
:101e2c008040eb0001487800308c20008040eb00b3
:101e3c0001487800b20020008000eb00c08a20002e
:101e4c0086fd0700b20020008000eb00708b2000a4
:101e5c0082fd070010c0b30006e8b700b0002000f8
:101e6c00504088002e009000e80f50001600320001
:101e7c00e80f500003003e00e10f50001800320044
:101e8c001c00370001042000810f500008003200b4
:101e9c0001102000810f500016003a0081088000cc
:101eac000003200001007000800888001300370038
:101ebc0081088000f0fc2f00008060000050a00022
:101ecc00800888000d00370081088000f0fc2f008e
:101edc00008060000040a0008008880007003700e8
:101eec0081088000f0fc2f000080600080088800d2
:101efc00020037000080eb00370037003e009000f6
:101f0c00600888000428ef0011e1a90011a1a900c4
:101f1c0010c1a9001021a9001061a90084e0a9003a
:101f2c0094e0a80031058000f0ff280000806000dc
:101f3c0000c0a0003005880011e1a8000e489000f8
:101f4c000080fb00620060000000e0002100320015
:101f5c000e4890000080fb0061006000004078009b
:101f6c000004e000020032000080eb001a00370091
:101f7c000e4890000080fb00640060000000e00050
:101f8c00020032009620a800010037009620a9001c
:101f9c0000002900301088000822ef000a22ef0010
:101fac00c012200020108800408c200011c0b3000b
:101fbc0001487800508c20008e4890000148780031
:101fcc00a08d20008040eb00014878000000eb0061
:101fdc00010037000080eb000080fa0000000600d2
:101fec000a00fa004047980031079800024f980009
:101ffc00134f98000000eb0010079800408c200055
:10200c0010407800e14f5000020032000080eb00dd
:10201c009e003700508c2000104078000080fb00a0
:10202c0061006000004078000004e0000200320013
:10203c000080eb0095003700508c20001040780099
:10204c000080fb00640060000000e00032003a00f9
:10205c004e4090000080fb004c0207001e48900090
:10206c000004e000070032001e4890000080fb00d6
:10207c002040880000000000204080000000e000ac
:10208c00fdff3a000040eb00004f780011003700d4
:10209c001e80fb00be0090000080400010407800c5
:1020ac000080fb006e0207001e4890000004e00058
:1020bc00070032001e4890000080fb002040880082
:1020cc0000000000204080000000e000fdff3a000e
:1020dc001e4fe8000e4890009e40780080cf5000c4
:1020ec00ebff3900530207001e4890000004e0008b
:1020fc00070032001e4890000080fb002040880042
:10210c0000000000204080000000e000fdff3a00cd
:10211c000000eb005d003700208c200010407800a0
:10212c00e84f500002003600e0ff2f005700370048
:10213c0006c8bf000040e80006e8b70006c8bf00ac
:10214c000004e00003003a0006c8bf000040e800ad
:10215c0006e8b7000e4890000080fb008efc0700dc
:10216c00100798001e0090000000e00002003a00ea
:10217c000080eb00450037000e4890000080fb000b
:10218c0000017800be0090001e009000acfc07001f
:10219c00208c2000104078000080fb00c300dd0084
:1021ac00c0802000008040008000eb000108780017
:1021bc00208c2000104078000080fb00c300dd0064
:1021cc00e080200000804000ce4090000148780064
:1021dc00208c2000104078000080fb00c300dd0044
:1021ec0000812000008040009e00900001087800d3
:1021fc00208c2000104078000080fb000000e800dc
:10220c00c300dd00a0802000008040008e489000bc
:10221c0001487800208c2000104078000080fb00e2
:10222c000000e800c300dd00a0802000008040001a
:10223c009e48900011409800208c2000104078009f
:10224c000081fb006180200091407800c08a200052
:10225c000000410001487800208c200010407800dc
:10226c008040e800208c200001487800504080001d
:10227c00eb0f500003003a000000eb0050408800c8
:10228c000602a80006c8bf000080fb000080fa0010
:10229c00000006000600fa0020479800314798001d
:1022ac00424798000000eb00000f7800408c2000a3
:1022bc0010407800e14f5000020032000080eb002b
:1022cc005f003700508c2000104078000080fb002d
:1022dc0061006000004078000004e0000200320061
:1022ec000080eb0056003700208c20001040780056
:1022fc00e84f500002003600e0ff2f00500037007e
:10230c0006c8bf000040e80006e8b70006c8bf00da
:10231c000004e00003003a0006c8bf000040e800db
:10232c0006e8b7003e4090000080fb001afc070056
:10233c00000f78001e0078000000e00002003a0058
:10234c000080eb003e003700208c2000104078000d
:10235c000080fb00c300dd00c08020000080400036
:10236c001100200001087800208c2000104078001b
:10237c000080fb00c300dd00e080200000804000f6
:10238c00ae40900001487800208c2000104078006e
:10239c000080fb00c300dd000081200000804000b5
:1023ac001e087800208c2000104078000080fb0074
:1023bc000000e800c300dd00a08020000080400089
:1023cc00be40900001487800208c2000104078001e
:1023dc000080fb000000e800c300dd00a0802000ae
:1023ec0000804000ce40900011409800208c2000ce
:1023fc00104078000081fb00618020009140780043
:10240c00c08a20000000410001487800208c200088
:10241c00104078008040e800208c200001487800b3
:10242c0050408000eb0f500003003a000000eb001e
:10243c00504088000602a80006c8bf000080fb00c0
:10244c000080fa00000006000c00fa0040479800db
:10245c0031079800024f9800134f9800244f9800b2
:10246c000000eb00000f78000000eb001007980054
:10247c00408c200010407800e14f500002003200e8
:10248c000080eb00af003700508c2000104078002b
:10249c000080fb0061006000004078000004e00058
:1024ac00020032000080eb00a6003700208c2000d8
:1024bc0010407800e84f500002003600e0ff2f007b
:1024cc00a000370006c8bf000040e80006e8b700cf
:1024dc0006c8bf000004e00003003a0006c8bf00b5
:1024ec000040e80006e8b7000e4890000080fb00b2
:1024fc00a9fb0700000f78001e0078000000e00028
:10250c0002003a000080eb008e0037000e4890006d
:10251c000080fb0000017800be0090001e007800d7
:10252c00c7fb07000e4890000080fb009afb0700d9
:10253c00100798001e0090000000e00002003a0016
:10254c000080eb007f003700208c200010407800ca
:10255c000080fb00c300dd00c08020000080400034
:10256c002100200001087800208c20001040780009
:10257c000080fb00c300dd00e080200000804000f4
:10258c00ce40900001487800208c2000104078004c
:10259c000080fb00c300dd000081200000804000b3
:1025ac001e087800208c2000104078000080fb0072
:1025bc000000e800c300dd00a08020000080400087
:1025cc008e48900001487800208c20001040780044
:1025dc000080fb000000e800c300dd00a0802000ac
:1025ec0000804000ae48900011409800208c2000e4
:1025fc00104078000081fb00618020009140780041
:10260c00c08a2000000041000148780006c8bf00c5
:10261c000040e80006e8b70006c8bf000004e00070
:10262c0003003a0006c8bf000040e80006e8b70007
:10263c00208c2000104078008040e800208c200086
:10264c0001487800208c2000104078000080fb00ae
:10265c00c300dd00c080200000804000110020007d
:10266c0001087800208c2000104078000080fb00ce
:10267c00ce4090000104a0004301dd00e08020006a
:10268c000000410001487800208c200010407800a8
:10269c000080fb00c300dd000081200000804000b2
:1026ac009e00900001087800208c200010407800db
:1026bc000080fb000000e800c300dd00a0802000cb
:1026cc00008040009e48900001487800208c20003b
:1026dc00104078000080fb000000e800c300dd0023
:1026ec00a080200000804000ae489000114098006f
:1026fc00208c2000104078000081fb0061802000bd
:10270c0091407800c08a2000000041000148780008
:10271c00208c2000104078008040e800208c2000a5
:10272c000148780050408000eb0f500003003a0045
:10273c000000eb00504088000602a80006c8bf004d
:10274c000080fb000080fa00000006000800fa0080
:10275c002007980031079800508c2000104078001a
:10276c000080fb00640060000000e00002003a0002
:10277c000000eb004d003700308c2000104078003a
:10278c000004e0004800320001438000110798006b
:10279c0020862000104078008080fb003e009000d6
:1027ac0001087800e0852000904078002e00900011
:1027bc00014878000040eb00004f78001b00370008
:1027cc001e80fb009e80fb008100e800a2802000a0
:1027dc004300dd00000041002005b000c308dd000f
:1027ec002105b000a2802000810041003102be0012
:1027fc002103be000498be000690be001e81fb00a3
:10280c001e80fb000000e800c10a20008080400010
:10281c00a08020000080400090409000608b200041
:10282c0000004100114098001e4fe800308c200041
:10283c00104078009e4f5000e1ff3e00308c20008d
:10284c00104078008040e900308c2000014878006e
:10285c00a08d200010407800e94f50000100360098
:10286c0014000700a08d2000104078000080fb00b1
:10287c0080004000608c2000008040009e02900090
:10288c0005087800a08d2000104078008040e800fa
:10289c00a08d2000014878000071220010408800b3
:1028ac001e009000010037000000eb000080fa00d1
:1028bc00000006000200fa00a08d200010407800f5
:1028cc000004e0001a003200304680004dfa070088
:1028dc000040eb00004f78000c0037001e80fb001e
:1028ec009e80fb008100e80001814000618c20008b
:1028fc00810041009100780000014000608c2000b4
:10290c0000004100010878001e4fe800a08d200057
:10291c00104078009e4f5000f0ff3e00a08d20002c
:10292c00104078008040e900a08d2000014878001c
:10293c000080fa00000006000200fa000040eb00e4
:10294c00004f7800070037001e80fb00800040001d
:10295c00608c2000008040001000780029fa0700ed
:10296c001e4fe800a08d2000104078009e4f5000b4
:10297c00f5ff3e00a08d20008040eb000148780060
:10298c000000eb000080fa00000006000200fa00d4
:10299c00000f78000602a800000000003010800034
:1029ac00610060000000e000fcff3a000000000045
:1029bc001e007800101088000000000041108000fc
:1029cc0000002400008060000000e000fbff3a00e3
:1029dc00000000000000eb000080fa000000060080
:1029ec000200fa00000f78000622a8000000000088
:1029fc0030108000620060000000e000fcff3a0034
:102a0c00000000001e00780010108800000000007c
:102a1c004110800000002400008060000000e000f5
:102a2c00fbff3a00000000000000eb000080fa0001
:102a3c00000006000000fa000642a800000000009a
:102a4c0030108000640060000000e000fcff3a00e1
:102a5c00000000000000eb000080fa0000000600ff
:102a6c000200fa00000f78004110800000002800de
:102a7c00008060000000e0000a003a001e007800b0
:102a8c00101088000000000041108000000024009d
:102a9c00008060000000e000fbff3a000000000036
:102aac00070037000642a80000000000301080002c
:102abc00640060000000e000fcff3a000000000031
:102acc000000eb000080fa00000006000200fa0093
:102adc00004f78000662a800000000003010800053
:102aec00680060000000e000fcff3a0000000000fd
:102afc001e80fb000000e9004f00de000040780063
:102b0c000080fb00610060004500dd00311080009a
:102b1c000150a10001007000301088000682a8004e
:102b2c000000000030108000700060000000e00029
:102b3c00fcff3a000000000000108000004078000c
:102b4c000080fa00000006001e00fa00881f7800c2
:102b5c00100f9800210f9800320f9800430f980027
:102b6c00540f9800650f98004e0890008000eb0001
:102b7c00aff707000001be000040220041b724005f
:102b8c002bf707006cf70700009fbe000297be00f2
:102b9c001e089000ae08900067f707003e02be00ca
:102bac002e03be00f7f7070018c0b3006022b80070
:102bbc0006002000070f240018f707000000e000b3
:102bcc00010034000044eb000804e0007200320005
:102bdc001e089000ae08900057f707003e02be009a
:102bec002e03be00e7f707005cf8070040079800cb
:102bfc00510798004e009000de00900071f707001e
:102c0c00600798006e0090008000eb0088f70700ca
:102c1c0018c0b3004e019000de01900067f707006a
:102c2c000000e00001003c000044eb000804e00060
:102c3c00070032006e0090008000eb007cf707006c
:102c4c004e019000de01900096f607000700370059
:102c5c006e0090008000eb0075f707000001be00cd
:102c6c004e009000de0090008ef607007007980072
:102c7c00010f98006e0890001000be0018c0b30041
:102c8c007e0190008e0990004cf707000000e000d8
:102c9c0001003c000044eb000804e0000a00320094
:102cac003e089000ee009000010878005e0890004d
:102cbc004e099000020878006e0890007e0190008a
:102ccc008e0990000288be006e0090000000e800a3
:102cdc00600798006e0090008000eb0054f707002e
:102cec0018c0b3004e019000de01900033f70700ce
:102cfc000000e00001003c000044eb000804e00090
:102d0c00070032006e0090008000eb0048f70700cf
:102d1c004e019000de01900062f6070007003700bc
:102d2c006e0090008000eb0041f707000001be0030
:102d3c004e009000de0090005af6070070079800d5
:102d4c00010f98006e0890001000be0018c0b30070
:102d5c007e0190008e09900018f707000000e0003b
:102d6c0001003c000044eb000804e0000a003200c3
:102d7c003e089000ee019000030878005e08900079
:102d8c00ce089000010878006e0890007e0190003b
:102d9c008e0990000288be004f0478000080fa0073
:102dac00000006000e00fa0050079800610798001a
:102dbc0000c1b3007047980010c2b300004f9800d8
:102dcc004a00070020c0b300dffb0700000f7800ab
:102ddc001e007800e10f4000030032001e00780056
:102dec00e20f400001003a00d602a800670047003d
:102dfc00a3c0b30022c0b30080007800e0cab300c7
:102e0c0077fc0700000f78001e007800e10f4000ef
:102e1c0001003a00d622a80060c0b300cafb07002c
:102e2c00000f780010c1b30070479800670047008e
:102e3c00a3c0b30022c0b30080007800e0cab30086
:102e4c0067fc0700000f78001e007800e10f4000bf
:102e5c00030032001e007800e20f400001003a002f
:102e6c00d642a80000c1b300704798006700470025
:102e7c00a4c0b30013c0b30012c0b300800078002c
:102e8c00e0cab30070fd0700000f78001e00780048
:102e9c00e10f4000030032001e007800e20f4000fa
:102eac0003003a00d662a8000100370000000000c1
:102ebc00e40047006600470024fe07001007980056
:102ecc001e0090000000e000f8ff32001e00900091
:102edc009040780010c2b30080cf500001003a003f
:102eec00dc02a80094fe0700f1ff37000000fa0096
:102efc00d202a900d222a900d242a900d262a90012
:102f0c00d802a900d822a900d842a900d862a900e9
:102f1c00d282a800d2a2a800d2c2a800d2e2a800f5
:102f2c00d302a800d322a800d342a800d362a800e1
:102f3c00c6c2a900c6e2a900c722a900c742a900bf
:102f4c00c7e2a900d8a2a800d8c2a800d8e2a8005d
:102f5c00c762a800c782a800c7a2a800cda2a8007b
:102f6c00cdc2a800de02a900de22a900de42a80024
:102f7c00de62a800de82a800dea2a800e442a9005e
:102f8c00e462a800dec2a90030ff2f00601988009f
:102f9c0021e3a9000000eb000080fa00000006000d
:020000040000fa
:102fac000a080000d2000000000000000008000029
:102fbc000a00000000000000e00800000200000011
:102fcc000200000004000000dc0800000400000007
:102fdc0000000000e20800000200000000000000f9
:042fec0000000000e1
:020000040000fa
:020000040001f9
:0457f800bd7b000075
:020000040000fa
:020000040001f9
:0457fc003f3f00002b
:00000001FF
