:020000040000FA
:0400000021EF00F0FC
:100008005682FACF03F0FBCF04F0D9CF05F0DACF50
:1000180006F0F3CF07F0F4CF08F0FEEC0DF008C0BF
:10002800F4FF07C0F3FF06C0DAFF05C0D9FF04C01C
:10003800FBFF03C0FAFF569211009FEF0EF0750EFA
:10004800096E000E0A6E000E0C6E000E0B6E000E8E
:100058000E6E0D0E0D6ED6EC0BF0010E00019D6FAD
:10006800000E9C6F010E856F000E846F800E176E58
:10007800960E186E980E196E4B0E1A6E84C009F003
:1000880085C00AF00B6A0C6A000EFCEC0AF009C085
:100098001BF00AC01CF00BC01DF00CC01EF02FECAA
:1000A80009F017C092F018C093F019C094F01AC064
:1000B80095F0000E226E000E236E800E246E470E01
:1000C800256E52C00DF053C00EF054C00FF055C04D
:1000D80010F092C009F093C00AF094C00BF095C0DC
:1000E8000CF04BEC05F009C026F00AC027F00BC055
:1000F80028F00CC029F014EC0DF0D8A086EF00F021
:1001080088EF00F0EAEF02F092C009F093C00AF01D
:1001180094C00BF095C00CF052C00DF053C00EF017
:1001280054C00FF055C010F04BEC05F009C096F024
:100138000AC097F00BC098F00CC099F096C009F06F
:1001480097C00AF098C00BF099C00CF091EC0CF035
:1001580009C09AF00AC09BF096C022F097C023F01D
:1001680098C024F099C025F09AC009F09BC00AF005
:100178000B6A0C6A000EFCEC0AF009C026F00AC0F3
:1001880027F00BC028F00CC029F014EC0DF0D8A013
:10019800D0EF00F0D2EF00F0F7EF00F096C019F0C2
:1001A80097C01AF098C01BF099C01CF09AC009F0CB
:1001B8009BC00AF00B6A0C6A000EFCEC0AF009C03E
:1001C8001DF00AC01EF00BC01FF00CC020F023EC7D
:1001D8000EF019C086F01AC087F01BC088F01CC04A
:1001E80089F01AEF01F09AC009F09BC00AF00B6A77
:1001F8000C6A000EFCEC0AF009C019F00AC01AF0EB
:100208000BC01BF00CC01CF096C01DF097C01EF070
:1002180098C01FF099C020F023EC0EF019C086F0AA
:100228001AC087F01BC088F01CC089F086C0A0F0F7
:1002380087C0A1F088C0A2F089C0A3F09AC09EF040
:100248009BC09FF000019A4B9B2B96C022F097C051
:1002580023F098C024F099C025F09AC009F09BC0FB
:100268000AF00B6A0C6A000EFCEC0AF009C026F0D2
:100278000AC027F00BC028F00CC029F014EC0DF0D0
:10028800D8A049EF01F04BEF01F070EF01F096C0F4
:1002980019F097C01AF098C01BF099C01CF09AC0CA
:1002A80009F09BC00AF00B6A0C6A000EFCEC0AF01D
:1002B80009C01DF00AC01EF00BC01FF00CC020F0D2
:1002C80023EC0EF019C08AF01AC08BF01BC08CF01A
:1002D8001CC08DF093EF01F09AC009F09BC00AF0A2
:1002E8000B6A0C6A000EFCEC0AF009C019F00AC08F
:1002F8001AF00BC01BF00CC01CF096C01DF097C084
:100308001EF098C01FF099C020F023EC0EF019C021
:100318008AF01AC08BF01BC08CF01CC08DF08AC00C
:100328008EF08BC08FF08CC090F08DC091F08EC095
:1003380022F08FC023F090C024F091C025F0A0C017
:1003480026F0A1C027F0A2C028F0A3C029F014EC21
:100358000DF0D8B0B2EF01F0B4EF01F0C0EF01F04A
:100368009AC09EF09BC09FF08EC0A0F08FC0A1F0F5
:1003780090C0A2F091C0A3F0D59ED59CD596D59AF1
:10038800D598F28A52C030F053C031F054C032F0E0
:1003980055C033F09E0E346E000E356E000E376E6B
:1003A800800E366E9C0E386E000E396EA00E3A6EB8
:1003B800000E3B6E60EC07F052C030F053C031F0D5
:1003C80054C032F055C033F09E0E346E000E356EB8
:1003D800000E376E400E366E9C0E386E000E396E6B
:1003E800A00E3A6E000E3B6E60EC07F052C030F083
:1003F80053C031F054C032F055C033F09E0E346E05
:10040800000E356E000E376E200E366E9C0E386E5E
:10041800000E396EA00E3A6E000E3B6E60EC07F0CF
:1004280052C030F053C031F054C032F055C033F0F0
:100438009E0E346E000E356E000E376E100E366E40
:100448009C0E386E000E396EA00E3A6E000E3B6E92
:1004580060EC07F052C030F053C031F054C032F0B5
:1004680055C033F09E0E346E000E356E000E376E9A
:10047800080E366E9C0E386E000E396EA00E3A6E5F
:10048800000E3B6E60EC07F052C030F053C031F004
:1004980054C032F055C033F09E0E346E000E356EE7
:1004A800000E376E040E366E9C0E386E000E396ED6
:1004B800A00E3A6E000E3B6E60EC07F052C030F0B2
:1004C80053C031F054C032F055C033F09E0E346E34
:1004D800000E356E000E376E020E366E9C0E386EAC
:1004E800000E396EA00E3A6E000E3B6E60EC07F0FF
:1004F800AAEF02F0070ED512E0EF02F0D550F80B84
:100508000609D56EE0EF02F0D550F80B0509D56E57
:10051800E0EF02F0D550F80B0409D56EE0EF02F0D9
:10052800D550F80B0309D56EE0EF02F0D550F80B63
:100538000209D56EE0EF02F0D550F80B0109D56E2F
:10054800E0EF02F0F80ED516E0EF02F09CC082F062
:100558009DC083F000018351000AD8B4BAEF02F0BD
:10056800010AD8B4D9EF02F0EAEF02F08251020A88
:10057800D8B4A6EF02F0060AD8B4A0EF02F00C0A2D
:10058800D8B49AEF02F0180AD8B494EF02F0300AFF
:10059800D8B48EEF02F0600AD8B488EF02F0C00A2F
:1005A800D8B482EF02F0EAEF02F08251000AD8B420
:1005B8007EEF02F0EAEF02F09E510008806F9F5133
:1005C800D8A0E82A0008816F63EC0EF012000C50E6
:1005D800800B156E0C500C24176E0BAEF6EF02F064
:1005E800F8EF02F0F9EF02F017801750D8B4FFEFD8
:1005F80002F001EF03F016EF03F01728D8A407EF75
:1006080003F009EF03F011EF03F0000E096E000E7E
:100618000A6E000E0B6E000E0C6E0B8E000E0C6E2A
:100628001EEF03F0000E096E000E0A6E000E0B6E30
:10063800000E0C6E1050800B166E15501618D8B49C
:1006480028EF03F02AEF03F02BEF03F0158C10507E
:100658001024166E0FAE33EF03F035EF03F036EFCC
:1006680003F016801650D8B43CEF03F03EEF03F0C9
:1006780053EF03F01628D8A444EF03F046EF03F035
:100688004EEF03F0000E0D6E000E0E6E000E0F6E94
:10069800000E106E0F8E000E106E5BEF03F0000E52
:1006A8000D6E000E0E6E000E0F6E000E106E1750BF
:1006B800165CD8B062EF03F064EF03F08BEF03F041
:1006C80015AC69EF03F06BEF03F06DEF03F0800EEC
:1006D800151A17C018F016C017F018C016F009C080
:1006E80018F00DC009F018C00DF00AC018F00EC0BF
:1006F8000AF018C00EF00BC018F00FC00BF018C0AD
:100708000FF00CC018F010C00CF018C010F0000E5C
:10071800186E175016C011F0126A115E000E125AA8
:1007280012BEA0EF03F0125009E11A0E115CD8A016
:10073800A0EF03F0A2EF03F0D9EF03F009500A107D
:100748000B100C10D8A4ABEF03F0AEEF03F0010EC2
:10075800AFEF03F0000E186E000E096E000E0A6E61
:10076800000E0B6E000E0C6E16C017F0E2EF03F0D1
:1007780018A0C1EF03F0C3EF03F0C9EF03F0D8905E
:1007880018300109186ECBEF03F0D890183209A081
:10079800D0EF03F0D2EF03F0D3EF03F0188E0C3450
:1007A8000C320B320A320932172A1650175CD8A0BD
:1007B800E0EF03F0E2EF03F0BCEF03F015BCE7EF66
:1007C80003F0E9EF03F029EF04F01750D8A4EFEF96
:1007D80003F0F1EF03F0FBEF03F0000E096E000EDB
:1007E8000A6E000E0B6E000E0C6E4AEF05F00D50EF
:1007F80009260E500A220F500B2210500C220CA072
:1008080008EF04F00AEF04F0B6EF04F018A00FEFB9
:1008180004F011EF04F017EF04F0D8901830010934
:10082800186E19EF04F0D890183209A01EEF04F0E2
:1008380020EF04F021EF04F0188E0C340C320B3248
:100848000A320932172AB6EF04F00D50095C0E502F
:100858000A580F500B580C50800A116E1050800A1D
:100868001158D8B03AEF04F03CEF04F067EF04F009
:1008780009500D5C116E0A500E58126E0B500F582D
:10088800136E0C501058146EFF0E1124096EFF0ED3
:1008980012200A6EFF0E13200B6EFF0E14200C6E32
:1008A800800E151A186C1850D8A45DEF04F05FEF8D
:1008B80004F06FEF04F0010E0926000E0A220B2245
:1008C8000C226FEF04F00D50095E0E500A5A0F50BB
:1008D8000B5A10500C5A09500A100B100C10D8A4BF
:1008E80078EF04F07AEF04F0AFEF04F01850D8A4D2
:1008F80080EF04F082EF04F0AFEF04F0000E096E11
:10090800000E0A6E000E0B6E000E0C6E4AEF05F01C
:10091800D89009360A360B360C3618AE96EF04F026
:1009280098EF04F099EF04F0098018A09EEF04F006
:10093800A0EF04F0A4EF04F0D8801836A6EF04F076
:10094800D89018361750D8B4ACEF04F0AEEF04F0D6
:10095800AFEF04F017060BAEB4EF04F0B6EF04F0F7
:100968008CEF04F0000E166E18AEBDEF04F0BFEF6A
:1009780004F0D7EF04F018C011F07F0E1116D8B4A8
:10098800C8EF04F0CAEF04F0CEEF04F0010E166EC3
:10099800D7EF04F009A0D3EF04F0D5EF04F0D7EFB8
:1009A80004F0CAEF04F01650D8B4DDEF04F0DFEF1E
:1009B80004F00AEF05F0010E0926000E0A220B22A8
:1009C8000C220CA0EAEF04F0ECEF04F00AEF05F0BB
:1009D80009C011F00AC012F00BC013F00CC014F0DB
:1009E8001434143213321232113211C009F012C009
:1009F8000AF013C00BF014C00CF01728D8B407EF96
:100A080005F009EF05F00AEF05F0172A1728D8B402
:100A180010EF05F012EF05F01AEF05F01750D8A403
:100A280018EF05F01AEF05F02CEF05F0000E096E2F
:100A3800000E0A6E000E0B6E000E0C6E1750D8A436
:100A480028EF05F02AEF05F02CEF05F0000E156EE3
:100A580017A031EF05F033EF05F036EF05F00B8EF8
:100A680037EF05F00B9ED89017300C6E15AE3FEFA0
:100A780005F041EF05F042EF05F00C8E09C009F0D2
:100A88000AC00AF00BC00BF00CC00CF012000C509E
:100A9800800B156E0C500C241B6E0BAE56EF05F038
:100AA80058EF05F059EF05F01B801B50D8B45FEFE5
:100AB80005F061EF05F074EF05F01B28D8A467EF87
:100AC80005F069EF05F071EF05F0000E096E000EF4
:100AD8000A6E000E0B6E000E0C6E0B8E7CEF05F08E
:100AE800000E096E000E0A6E000E0B6E000E0C6EE4
:100AF8001050800B151A105010241A6E0FAE87EF85
:100B080005F089EF05F08AEF05F01A801A50D8B47D
:100B180090EF05F092EF05F0A5EF05F01A28D8A49C
:100B280098EF05F09AEF05F0A2EF05F0000E0D6EB4
:100B3800000E0E6E000E0F6E000E106E0F8EADEFD3
:100B480005F0000E0D6E000E0E6E000E0F6E000EFC
:100B5800106E1A50D8B4B3EF05F0B5EF05F0BDEF3D
:100B680005F01B50D8A4BBEF05F0BDEF05F0C7EFAB
:100B780005F0000E096E000E0A6E000E0B6E000ED8
:100B88000C6E5FEF07F00F500902F3CF20F0F4CF9F
:100B980021F02050166E176A186A196A21501C6EC7
:100BA8001D6A1E6A1F6A0E500A02F3CF20F0F4CFA6
:100BB80021F020501626000E172218221922215043
:100BC8001C26000E1D221E221F220D500B02F3CFE1
:100BD80020F0F4CF21F020501626000E17221822FC
:100BE800192221501C26000E1D221E221F2218C069
:100BF80019F017C018F016C017F0166A0D500A023F
:100C0800F3CF20F0F4CF21F02050162621501722E0
:100C1800000E1822000E19220E500902F3CF20F000
:100C2800F4CF21F02050162621501722000E18224A
:100C3800000E192218C019F017C018F016C017F0C6
:100C4800166A0D500902F3CF20F0F4CF21F020509E
:100C5800162621501722000E1822000E19220F50B6
:100C68000A02F3CF20F0F4CF21F020501C262150A7
:100C78001D22000E1E22000E1F220E500B02F3CF63
:100C880020F0F4CF21F020501C2621501D22000E08
:100C98001E22000E1F220F500B02F3CF20F0F4CFBC
:100CA80021F02050116E2150126E136A146A13C07D
:100CB80014F012C013F011C012F0116A11501C2662
:100CC80012501D2213501E2214501F2216C011F05C
:100CD80017C012F018C013F019C014F0190E7AEFEB
:100CE80006F0D8901432133212321132E82E75EF12
:100CF80006F011501C2612501D2213501E221450AB
:100D08001F2218C019F017C018F016C017F0166A7D
:100D18001A501BC011F0126A1126000E1222820E00
:100D28001124206EFF0E1220216EB0EF06F0D8902D
:100D38001C361D361E361F3619AEA5EF06F0A7EF76
:100D480006F0A8EF06F01C80D8901636173618362D
:100D580019362006D8A021061EAEB5EF06F0B7EF6B
:100D680006F09BEF06F0000E1A6E19AEBEEF06F005
:100D7800C0EF06F0E4EF06F0FF0E1614116EFF0E3A
:100D88001714126EFF0E1814136E7F0E1914146EBA
:100D98001150121013101410D8B4D5EF06F0D7EF75
:100DA80006F0DBEF06F0010E1A6EE4EF06F01CA069
:100DB800E0EF06F0E2EF06F0E4EF06F0D7EF06F01A
:100DC8001A50D8B4EAEF06F0ECEF06F010EF07F08F
:100DD800010E1C26000E1D221E221F221FA0F7EF47
:100DE80006F0F9EF06F010EF07F01CC011F01DC077
:100DF80012F01EC013F01FC014F014341432133252
:100E08001232113211C01CF012C01DF013C01EF0B6
:100E180014C01FF0204A212A21BE1BEF07F02150E1
:100E280008E12028D8A01BEF07F01DEF07F027EFF7
:100E380007F0000E1C6E000E1D6E800E1E6E7F0EDB
:100E48001F6E55EF07F021BE34EF07F0215006E181
:100E58002004D8B032EF07F034EF07F040EF07F086
:100E6800000E1C6E000E1D6E000E1E6E000E1F6E14
:100E7800000E156E55EF07F020C01BF0FF0E1C1674
:100E8800FF0E1D167F0E1E16000E1F161BA04FEF1D
:100E980007F051EF07F052EF07F01E8ED8901B3085
:100EA8001F6E15501F121CC009F01DC00AF01EC08D
:100EB8000BF01FC00CF01200800E176E960E186E05
:100EC800980E196E4B0E1A6E36C009F037C00AF02C
:100ED8000B6A0C6A000EFCEC0AF009C01BF00AC091
:100EE8001CF00BC01DF00CC01EF02FEC09F017C051
:100EF80044F018C045F019C046F01AC047F0000E7B
:100F0800226E000E236E800E246E470E256E30C0B2
:100F18000DF031C00EF032C00FF033C010F044C0F5
:100F280009F045C00AF046C00BF047C00CF04BEC86
:100F380005F009C026F00AC027F00BC028F00CC045
:100F480029F014EC0DF0D8A0ACEF07F0AEEF07F0E5
:100F58002EEF09F044C009F045C00AF046C00BF076
:100F680047C00CF030C00DF031C00EF032C00FF0A9
:100F780033C010F04BEC05F009C04CF00AC04DF03E
:100F88000BC04EF00CC04FF04CC009F04DC00AF039
:100F98004EC00BF04FC00CF091EC0CF009C050F0B3
:100FA8000AC051F04CC022F04DC023F04EC024F0CE
:100FB8004FC025F050C009F051C00AF00B6A0C6A06
:100FC800000EFCEC0AF009C026F00AC027F00BC09E
:100FD80028F00CC029F014EC0DF0D8A0F6EF07F0BB
:100FE800F8EF07F01DEF08F04CC019F04DC01AF0EB
:100FF8004EC01BF04FC01CF050C009F051C00AF0A1
:101008000B6A0C6A000EFCEC0AF009C01DF00AC05D
:101018001EF00BC01FF00CC020F023EC0EF019C01E
:101028003CF01AC03DF01BC03EF01CC03FF040EF42
:1010380008F050C009F051C00AF00B6A0C6A000EA3
:10104800FCEC0AF009C019F00AC01AF00BC01BF03A
:101058000CC01CF04CC01DF04DC01EF04EC01FF05F
:101068004FC020F023EC0EF019C03CF01AC03DF040
:101078001BC03EF01CC03FF03CC048F03DC049F0EA
:101088003EC04AF03FC04BF048C022F049C023F0B0
:101098004AC024F04BC025F03AC0D9FF3BC0DAFF64
:1010A800DECF26F0DECF27F0DECF28F0DECF29F026
:1010B80014EC0DF0D8B063EF08F065EF08F081EF9D
:1010C80008F034C0D9FF35C0DAFF50C0DEFF51C088
:1010D800DDFF38C0D9FF39C0DAFF36C0DEFF37C0C0
:1010E800DDFF3AC0D9FF3BC0DAFF48C0DEFF49C088
:1010F800DEFF4AC0DEFF4BC0DEFF504A512A4CC01B
:1011080022F04DC023F04EC024F04FC025F050C04F
:1011180009F051C00AF00B6A0C6A000EFCEC0AF0E8
:1011280009C026F00AC027F00BC028F00CC029F02F
:1011380014EC0DF0D8A0A3EF08F0A5EF08F0CAEF63
:1011480008F04CC019F04DC01AF04EC01BF04FC04B
:101158001CF050C009F051C00AF00B6A0C6A000E6E
:10116800FCEC0AF009C01DF00AC01EF00BC01FF00D
:101178000CC020F023EC0EF019C040F01AC041F06A
:101188001BC042F01CC043F0EDEF08F050C009F05E
:1011980051C00AF00B6A0C6A000EFCEC0AF009C098
:1011A80019F00AC01AF00BC01BF00CC01CF04CC0A0
:1011B8001DF04DC01EF04EC01FF04FC020F023ECB4
:1011C8000EF019C040F01AC041F01BC042F01CC01C
:1011D80043F040C048F041C049F042C04AF043C023
:1011E8004BF048C022F049C023F04AC024F04BC05D
:1011F80025F03AC0D9FF3BC0DAFFDECF26F0DECFBC
:1012080027F0DECF28F0DECF29F014EC0DF0D8B0AF
:1012180010EF09F012EF09F02EEF09F034C0D9FFF2
:1012280035C0DAFF50C0DEFF51C0DDFF38C0D9FF3E
:1012380039C0DAFF36C0DEFF37C0DDFF3AC0D9FF5C
:101248003BC0DAFF48C0DEFF49C0DEFF4AC0DEFF10
:101258004BC0DEFF12001A50800B276E1A501A245A
:101268002E6E19AE3AEF09F03CEF09F03DEF09F0A8
:101278002E802E50D8B443EF09F045EF09F05AEF0D
:1012880009F02E28D8A44BEF09F04DEF09F055EFDF
:1012980009F0000E176E000E186E000E196E000E83
:1012A8001A6E198E000E1A6E62EF09F0000E176E94
:1012B800000E186E000E196E000E1A6E1E50800B6E
:1012C800271A1E501E242F6E1DAE6DEF09F06FEF0A
:1012D80009F070EF09F02F802F50D8B476EF09F09D
:1012E80078EF09F08DEF09F02F28D8A47EEF09F0E8
:1012F80080EF09F088EF09F0000E1B6E000E1C6EDF
:10130800000E1D6E000E1E6E1D8E000E1E6E95EFD9
:1013180009F0000E1B6E000E1C6E000E1D6E000EF6
:101328001E6E1B501C101D101E10D8A49EEF09F035
:10133800A0EF09F0B8EF09F0000E176E000E186E56
:10134800000E196E000E1A6E800E19127F0E1A12F8
:1013580027501A1217C017F018C018F019C019F042
:101368001AC01AF0FBEF0AF02E50D8A4BEEF09F00D
:10137800C0EF09F0CAEF09F0000E176E000E186EE4
:10138800000E196E000E1A6EFBEF0AF02F502EC0D9
:101398001FF0206A1F5E000E205A7F0E1F24286E41
:1013A800000E2020296E17C023F018C024F019C0A1
:1013B80025F01AC026F0000E176E000E186E000EEB
:1013C800196E000E1A6E000E2A6E000E2B6E000E9D
:1013D8002C6E000E2D6E000E2F6E2BEF0AF02F5084
:1013E800D8B4F9EF09F0FBEF09F012EF0AF0D89042
:1013F8002336243625362636D89017361836193629
:101408001A362DAE0AEF0AF00CEF0AF00DEF0AF0CB
:101418001780D8902A362B362C362D361B50235C55
:101428001C5024581D5025581E502658D8A01FEF70
:101438000AF021EF0AF02AEF0AF02D8C1B50235EE8
:101448001C50245A1D50255A1E50265A2F2A190E50
:101458002F6431EF0AF033EF0AF0F3EF09F023506D
:10146800241025102610D8B43CEF0AF03EEF0AF0FD
:1014780056EF0AF02A8056EF0AF0D8901736183639
:1014880019361A362DAE4BEF0AF04DEF0AF04EEF33
:101498000AF01780D8902A362B362C362D36280697
:1014A800D8A0290619AE5BEF0AF05DEF0AF041EF0C
:1014B8000AF0000E2F6E2DAE64EF0AF066EF0AF008
:1014C8008AEF0AF0FF0E2A141F6EFF0E2B14206EEF
:1014D800FF0E2C14216E7F0E2D14226E1F5020102B
:1014E80021102210D8B47BEF0AF07DEF0AF081EFCB
:1014F8000AF0010E2F6E8AEF0AF017A086EF0AF0A5
:1015080088EF0AF08AEF0AF07DEF0AF02F50D8B47E
:1015180090EF0AF092EF0AF0B6EF0AF0010E1726E4
:10152800000E182219221A221AA09DEF0AF09FEF26
:101538000AF0B6EF0AF017C01FF018C020F019C063
:1015480021F01AC022F022342232213220321F32F6
:101558001FC017F020C018F021C019F022C01AF0DF
:10156800284A292A29BEC1EF0AF0295008E128286B
:10157800D8A0C1EF0AF0C3EF0AF0CEEF0AF0000ED0
:10158800296E2868000E176E000E186E000E196E70
:10159800000E1A6E29BEDBEF0AF0295006E1280476
:1015A800D8B0D9EF0AF0DBEF0AF0E9EF0AF0000E45
:1015B800296E000E286E000E176E000E186E000EB3
:1015C800196E000E1A6E000E276E28C02EF02EA07F
:1015D800F0EF0AF0F2EF0AF0F5EF0AF0198EF6EFE5
:1015E8000AF0199ED8902E301A6EACEF09F012004E
:1015F800116E1150D8B403EF0BF005EF0BF027EF85
:101608000BF00CBE0CEF0BF00AEF0BF027EF0BF012
:1016180009C00DF00AC00EF00BC00FF00CC010F09E
:101628000D1E0E1E0F1E101E0D2A000E0E220F225A
:1016380010220DC013F00EC014F00FC015F010C02A
:1016480016F02FEF0BF009C013F00AC014F00BC00E
:1016580015F00CC016F009500A100B100C10D8A485
:1016680038EF0BF03AEF0BF044EF0BF0000E096E79
:10167800000E0A6E000E0B6E000E0C6ED5EF0BF00E
:10168800960E126E4EEF0BF0122AD89016321532C3
:1016980014321332000E13140D6E000E14140E6E55
:1016A800000E15140F6EFE0E1614106E0D500E104F
:1016B8000F101010D8A463EF0BF065EF0BF048EF94
:1016C8000BF073EF0BF0122A010E1326000E1422F2
:1016D80015221622D8901632153214321332000E03
:1016E80013140D6E000E14140E6E000E15140F6EEA
:1016F800FF0E1614106E0D500E100F101010D8A4F7
:1017080088EF0BF08AEF0BF067EF0BF092EF0BF01E
:101718001206D890133614361536163615BE97EFBE
:101728000BF099EF0BF0A1EF0BF0020E12609FEF98
:101738000BF0A1EF0BF08CEF0BF012B0A6EF0BF053
:10174800A8EF0BF0A9EF0BF0159ED890123212C03B
:101758000DF00E6A0F6A106A0DC010F00F6A0E6A5B
:101768000D6A0D5013120E5014120F50151210500E
:1017780016121150D8B4C3EF0BF0C5EF0BF0CDEF34
:101788000BF00CBECCEF0BF0CAEF0BF0CDEF0BF06B
:10179800168E13C009F014C00AF015C00BF016C05D
:1017A8000CF0120009C013F00AC014F00D500E100E
:1017B800D8A4E1EF0BF0E3EF0BF0E5EF0BF090EFBF
:1017C8000CF013C0D9FF14C0DAFF0BC0DFFF0D50B7
:1017D80013240F6E0E501420106EFF0E0F24D96EB6
:1017E800FF0E1020DA6E0BC0DFFF0E5007E1030E6C
:1017F8000D5CD8B002EF0CF004EF0CF006EF0CF023
:1018080090EF0CF020EE01F01350D9261450DA2294
:101818000BC0DFFF20EE02F01350D9261450DA2255
:101828000BC0DFFF0D5013240F6E0E501420106EE6
:10183800FE0E0F24D96EFF0E1020DA6E0BC0DFFFEC
:101848000D5013240F6E0E501420106EFD0E0F2431
:10185800D96EFF0E1020DA6E0BC0DFFF0E5007E1C5
:10186800070E0D5CD8B03BEF0CF03DEF0CF03FEFEE
:101878000CF090EF0CF020EE03F01350D926145022
:10188800DA220BC0DFFF0D5013240F6E0E50142008
:10189800106EFC0E0F24D96EFF0E1020DA6E0BC0EE
:1018A800DFFF0E5007E1090E0D5CD8B05EEF0CF0BB
:1018B80060EF0CF062EF0CF090EF0CF013C00FF03B
:1018C80014C010F00F1E101E0F4A102A030E0F141A
:1018D800116E126A115013261250142211500D5E07
:1018E80012500E5AFC0E0D16FF0E0E1687EF0CF056
:1018F80013C0D9FF14C0DAFF0BC0DFFF0D06D8A054
:101908000E06134A142A0D500E10D8A48EEF0CF0B0
:1019180090EF0CF07CEF0CF012000B340C34126ECC
:101928001250D8A49AEF0CF09CEF0CF0A6EF0CF034
:10193800000E096E000E0A6E000E0B6E000E0C6E85
:1019480013EF0DF009C00DF00AC00EF00BC00FF038
:101958000CC010F0200EB6EF0CF0D89010320F32F9
:101968000E320D32E82EB1EF0CF00D50116E0B8EC9
:10197800FF0E0916FF0E0A16FF0E0B16000E0C16A8
:10198800960E125E12BECDEF0CF0CBEF0CF0E3EF2B
:101998000CF01250800A970FD8B0D5EF0CF0D7EFA3
:1019A8000CF0D9EF0CF09CEF0CF0D8900C320B3205
:1019B8000A320932123ED9EF0CF0FBEF0CF01F0E81
:1019C8001264E9EF0CF0EBEF0CF0F3EF0CF09CEF86
:1019D8000CF0D89009360A360B360C36120612501F
:1019E800D8A4F9EF0CF0FBEF0CF0EDEF0CF0115070
:1019F800D8B401EF0DF003EF0DF00BEF0DF00C1E56
:101A08000B1E0A1E096C000E0A220B220C2209C0AA
:101A180009F00AC00AF00BC00BF00CC00CF0120061
:101A2800000E22142A6E000E23142B6E800E24142E
:101A38002C6E7F0E25142D6E2A502B102C102D1075
:101A4800D8A429EF0DF02BEF0DF033EF0DF0000EB9
:101A5800226E000E236E000E246E000E256E000E00
:101A680026142A6E000E27142B6E800E28142C6E56
:101A78007F0E29142D6E2A502B102C102D10D8A44F
:101A880048EF0DF04AEF0DF052EF0DF0000E266E04
:101A9800000E276E000E286E000E296E25AE57EF39
:101AA8000DF059EF0DF062EF0DF0226C231ED8B047
:101AB800232A241ED8B0242A800E255629AE67EF83
:101AC8000DF069EF0DF072EF0DF0266C271ED8B0FF
:101AD800272A281ED8B0282A800E2956000E221A36
:101AE800000E231A000E241A800E251A000E261A3C
:101AF800000E271A000E281A800E291A2650225C7A
:101B0800275023582850245829502558D8B08FEFEB
:101B18000DF091EF0DF094EF0DF0D89095EF0DF0DA
:101B2800D8801200700ED3129268BF0E946E000E09
:101B3800956E000E966E000E936E010E0F01386FB3
:101B4800000E3A6F000E3C6F000E396F000E616E8A
:101B5800F18EF28E000E8C6E000E8D6E000E8A6E67
:101B6800CD0E526ECC0E536ECC0E546E3D0E556E8D
:101B780023EC00F0B9EC0EF0A20E096E1B0E0A6EF3
:101B880090EC0EF08C70000E0E6E010E0D6E46EC91
:101B98000EF0C6EF0DF021EF00F0F2A4D6EF0DF035
:101BA800D8EF0DF0FDEF0DF080C0D6FF81C0D7FF54
:101BB800000E016E760E0124D96EDA6A000EDA2262
:101BC800DF50D8B4EAEF0DF0ECEF0DF0F3EF0DF0C5
:101BD800760E0124D96EDA6A000EDA22DF06012AAF
:101BE800090E0164FAEF0DF0FCEF0DF0DEEF0DF0D9
:101BF800F2941200000E026E18EF0EF00250020D61
:101C0800610EF324D96E000EF420DA6E02D817EFB5
:101C18000EF00500FA6EDE50FD6EDE50FE6EF850D6
:101C2800FF6EFA501200022A00016051025CD8A02F
:101C380020EF0EF022EF0EF002EF0EF01200000E71
:101C48001D1A000E1E1A000E1F1A800E201A19C027
:101C580009F01AC00AF01BC00BF01CC00CF01DC024
:101C68000DF01EC00EF01FC00FF020C010F0EBECFE
:101C780002F009C019F00AC01AF00BC01BF00CC022
:101C88001CF0120000017551D8A44DEF0EF04FEF73
:101C98000EF062EF0EF00DC009F00EC00AF0000E53
:101CA8007BEC0EF0000EACEC0EF009500A10D8A434
:101CB80060EF0EF062EF0EF056EF0EF01200760EA7
:101CC800096E000E0A6E000E0C6E000E0B6E000EF2
:101CD8000E6E0A0E0D6ED6EC0BF0F29480C0D6FF95
:101CE80081C0D7FFD58E000E0001756F12000B6EF4
:101CF80000017505D8A483EF0EF085EF0EF087EF8D
:101D08000EF08FEF0EF0760E0B24D96EDA6A000E05
:101D1800DA2209C0DFFF120000016051020D610ED6
:101D2800F324D96E000EF420DA6E09C0DEFF0AC073
:101D3800DDFF602B120000EE60F0220EEE6AE8066E
:101D4800FDE156905692000EF86E000196EF0DF0E8
:101D58000C6E760E0C24D96EDA6A000EDA22DF5089
:101D68000B6E0B50096E0A6A1200000E0001606FBC
:021D7800120057
:020000040020DA
:08000000FFFFFFFFFFFFFFFF00
:020000040030CA
:0E000000FF32193CFFB585FF0FC00FE00F4027
:00000001FF
